:020000040800F2
:1000000000000520555A0008A5590008A959000804
:10001000AD590008B1590008B559000800000000AA
:10002000000000000000000000000000B9590008B6
:10003000BD59000800000000C1590008C55900085A
:10004000A55A0008A55A0008A55A0008A55A000894
:10005000A55A0008A55A0008A55A0008A55A000884
:10006000A55A0008A55A0008A55A0008D559000845
:10007000A55A0008A55A0008A55A0008A55A000864
:10008000A55A0008E1590008A55A0008A55A000819
:10009000A55A0008A55A0008A55A0008A55A000844
:1000A000A55A0008A55A0008A55A0008A55A000834
:1000B000A55A0008A55A0008A55A0008A55A000824
:1000C000A55A0008A55A0008A55A0008A55A000814
:1000D000A55A0008A55A0008A55A0008A55A000804
:1000E000A55A0008A55A0008A55A0008A55A0008F4
:1000F000A55A0008A55A0008A55A0008A55A0008E4
:10010000A55A0008A55A0008A55A0008A55A0008D3
:10011000A55A0008A55A0008A55A0008A55A0008C3
:10012000ED590008A55A0008A55A0008A55A00086C
:10013000A55A0008A55A0008A55A0008A55A0008A3
:10014000A55A0008A55A0008A55A0008A55A000893
:10015000A55A0008A55A0008A55A0008A55A000883
:10016000A55A0008A55A0008A55A0008A55A000873
:10017000A55A0008A55A0008A55A0008000000006A
:10018000A55A0008A55A0008A55A0008F959000800
:10019000A55A0008A55A0008A55A0008A55A000843
:1001A000A55A0008A55A0008A55A0008A55A000833
:1001B000A55A0008A55A0008A55A0008A55A000823
:0801C000A55A0008A55A000829
:1001D00010B5054C237833B9044B13B10448AFF381
:1001E00000800123237010BD8C000020000000005F
:1001F00064E2000808B5034B1BB103490348AFF3A1
:10020000008008BD000000009000002064E20008AB
:10021000034613F8012B002AFBD1181A0138704746
:1002200001F0FF01102A2BDB10F0070F08D010F8A7
:10023000013B013A8B422DD010F0070F42B3F6D1AB
:10024000F0B441EA012141EA014122F007047FF0C4
:1002500000070023F0E80256083C85EA010586EA1B
:10026000010685FA47F5A3FA87F586FA47F6A5FA57
:1002700087F68EB9EED1F0BC01F0FF0102F0070263
:1002800032B110F8013B013A83EA010313B1F8D10E
:100290000020704701387047002D06BF35460338EF
:1002A000073815F0010F07D1013015F4807F02BF28
:1002B000013015F4C03F0130F0BC0138704700BF79
:1002C00081F0004102E000BF83F0004330B54FEA07
:1002D00041044FEA430594EA050F08BF90EA020F74
:1002E0001FBF54EA000C55EA020C7FEA645C7FEA07
:1002F000655C00F0E2804FEA5454D4EB5555B8BF2A
:100300006D420CDD2C4480EA020281EA030382EA9A
:10031000000083EA010180EA020281EA0303362D2C
:1003200088BF30BD11F0004F4FEA01314FF4801CFF
:100330004CEA113102D0404261EB410113F0004F11
:100340004FEA03334CEA133302D0524263EB4303C8
:1003500094EA050F00F0A780A4F10104D5F1200E66
:100360000DDB02FA0EFC22FA05F2801841F10001C1
:1003700003FA0EF2801843FA05F359410EE0A5F195
:1003800020050EF1200E012A03FA0EFC28BF4CF0C6
:10039000020C43FA05F3C01851EBE37101F000457C
:1003A00007D54FF0000EDCF1000C7EEB00006EEB89
:1003B0000101B1F5801F1BD3B1F5001F0CD3490813
:1003C0005FEA30004FEA3C0C04F101044FEA44526A
:1003D00012F5800F80F09A80BCF1004F08BF5FEAF1
:1003E000500C50F1000041EB045141EA050130BDD1
:1003F0005FEA4C0C404141EB010111F4801FA4F174
:100400000104E9D191F0000F04BF01460020B1FAC8
:1004100081F308BF2033A3F10B03B3F120020CDA00
:100420000C3208DD02F1140CC2F10C0201FA0CF0DE
:1004300021FA02F10CE002F11402D8BFC2F1200C43
:1004400001FA02F120FA0CFCDCBF41EA0C019040F9
:10045000E41AA2BF01EB0451294330BD6FEA040442
:100460001F3C1CDA0C340EDC04F11404C4F120022D
:1004700020FA04F001FA02F340EA030021FA04F33F
:1004800045EA030130BDC4F10C04C4F1200220FA96
:1004900002F001FA04F340EA0300294630BD21FAD4
:1004A00004F0294630BD94F0000F83F4801306BF9A
:1004B00081F480110134013D4EE77FEA645C18BF8E
:1004C0007FEA655C29D094EA050F08BF90EA020F25
:1004D00005D054EA000C04BF1946104630BD91EA1D
:1004E000030F1EBF0021002030BD5FEA545C05D120
:1004F0004000494128BF41F0004130BD14F580045F
:100500003CBF01F5801130BD01F0004545F0FE41D2
:1005100041F470014FF0000030BD7FEA645C1ABF07
:10052000194610467FEA655C1CBF0B46024650EA3E
:10053000013406BF52EA033591EA030F41F400216A
:1005400030BD00BF90F0000F04BF0021704730B5F0
:100550004FF4806404F132044FF000054FF00001C5
:1005600050E700BF90F0000F04BF0021704730B586
:100570004FF4806404F1320410F0004548BF40425B
:100580004FF000013EE700BF42004FEAE2014FEAB0
:1005900031014FEA02701FBF12F07F4393F07F4F8B
:1005A00081F06051704732F07F4208BF704793F08E
:1005B0007F4F04BF41F40021704730B54FF46074A1
:1005C00001F0004521F000411CE700BF50EA0102A4
:1005D00008BF704730B54FF000050AE050EA01024D
:1005E00008BF704730B511F0004502D5404261EBBD
:1005F00041014FF4806404F132045FEA915C3FF4FE
:10060000D8AE4FF003025FEADC0C18BF03325FEA9A
:10061000DC0C18BF033202EBDC02C2F1200300FA4B
:1006200003FC20FA02F001FA03FE40EA0E0021FA70
:1006300002F11444BDE600BF70B54FF0FF0C4CF45E
:10064000E06C1CEA11541DBF1CEA135594EA0C0F10
:1006500095EA0C0F00F0DEF82C4481EA030621EA4B
:100660004C5123EA4C5350EA013518BF52EA033586
:1006700041F4801143F4801338D0A0FB02CE4FF038
:100680000005E1FB02E506F00042E0FB03E54FF068
:100690000006E1FB03569CF0000F18BF4EF0010E60
:1006A000A4F1FF04B6F5007F64F5407404D25FEA5C
:1006B0004E0E6D4146EB060642EAC62141EA55510F
:1006C0004FEAC52040EA5E504FEACE2EB4F1FD0C51
:1006D00088BFBCF5E06F1ED8BEF1004F08BF5FEACF
:1006E000500E50F1000041EB045170BD06F0004681
:1006F00046EA010140EA020081EA0301B4EB5C042E
:10070000C2BFD4EB0C0541EA045170BD41F4801125
:100710004FF0000E013C00F3AB8014F1360FDEBF4A
:10072000002001F0004170BDC4F10004203C35DA26
:100730000C341BDC04F11404C4F1200500FA05F3A9
:1007400020FA04F001FA05F240EA020001F000424A
:1007500021F0004110EBD37021FA04F642EB0601C0
:100760005EEA430E08BF20EAD37070BDC4F10C04EA
:10077000C4F1200500FA04F320FA05F001FA04F2AE
:1007800040EA020001F0004110EBD37041F100019A
:100790005EEA430E08BF20EAD37070BDC4F12005A5
:1007A00000FA05F24EEA020E20FA04F301FA05F20D
:1007B00043EA020321FA04F001F0004121FA04F2B5
:1007C00020EA020000EBD3705EEA430E08BF20EA85
:1007D000D37070BD94F0000F0FD101F000464000BF
:1007E00041EB010111F4801F08BF013CF7D041EA41
:1007F000060195F0000F18BF704703F00046520045
:1008000043EB030313F4801F08BF013DF7D043EA15
:100810000603704794EA0C0F0CEA135518BF95EACB
:100820000C0F0CD050EA410618BF52EA4306D1D152
:1008300081EA030101F000414FF0000070BD50EA71
:10084000410606BF1046194652EA430619D094EAFB
:100850000C0F02D150EA013613D195EA0C0F05D1E5
:1008600052EA03361CBF104619460AD181EA030139
:1008700001F0004141F0FE4141F470014FF00000F1
:1008800070BD41F0FE4141F4780170BD70B54FF08C
:10089000FF0C4CF4E06C1CEA11541DBF1CEA13550C
:1008A00094EA0C0F95EA0C0F00F0A7F8A4EB0504EE
:1008B00081EA030E52EA03354FEA013100F08880E5
:1008C0004FEA03334FF0805545EA131343EA1263AE
:1008D0004FEA022245EA111545EA10654FEA002663
:1008E0000EF000419D4208BF964244F1FD0404F51C
:1008F000407402D25B084FEA3202B61A65EB030578
:100900005B084FEA32024FF480104FF4002CB6EB34
:10091000020E75EB030E22BFB61A754640EA0C00B4
:100920005B084FEA3202B6EB020E75EB030E22BFF4
:10093000B61A754640EA5C005B084FEA3202B6EB35
:10094000020E75EB030E22BFB61A754640EA9C00F4
:100950005B084FEA3202B6EB020E75EB030E22BFC4
:10096000B61A754640EADC0055EA060E18D04FEA82
:10097000051545EA16754FEA06164FEAC30343EA22
:1009800052734FEAC2025FEA1C1CC0D111F4801FEF
:100990000BD141EA00014FF000004FF0004CB6E7E8
:1009A00011F4801F04BF01430020B4F1FD0C88BF87
:1009B000BCF5E06F3FF6AFAEB5EB030C04BFB6EB92
:1009C000020C5FEA500C50F1000041EB045170BD85
:1009D0000EF0004E4EEA113114EB5C04C2BFD4EBB2
:1009E0000C0541EA045170BD41F480114FF0000E36
:1009F000013C90E645EA060E8DE60CEA135594EAB2
:100A00000C0F08BF95EA0C0F3FF43BAF94EA0C0FB4
:100A10000AD150EA01347FF434AF95EA0C0F7FF429
:100A200025AF104619462CE795EA0C0F06D152EA7D
:100A300003353FF4FDAE1046194622E750EA410661
:100A400018BF52EA43067FF4C5AE50EA41047FF472
:100A50000DAF52EA43057FF4EBAE12E74FF0FF3CD7
:100A600006E000BF4FF0010C02E000BF4FF0010CA8
:100A70004DF804CD4FEA410C7FEA6C5C4FEA430C21
:100A800018BF7FEA6C5C1BD001B050EA410C0CBF70
:100A900052EA430C91EA030F02BF90EA020F0020D2
:100AA000704710F1000F91EA030F58BF994208BF39
:100AB00090422CBFD8176FEAE37040F001007047F6
:100AC0004FEA410C7FEA6C5C02D150EA013C07D14D
:100AD0004FEA430C7FEA6C5CD6D152EA033CD3D098
:100AE0005DF8040B704700BF8446104662468C4692
:100AF0001946634600E000BF01B5FFF7B7FF0028C5
:100B000048BF10F1000F01BD4DF808EDFFF7F4FFED
:100B10000CBF012000205DF808FB00BF4DF808ED78
:100B2000FFF7EAFF34BF012000205DF808FB00BF9B
:100B30004DF808EDFFF7E0FF94BF012000205DF8BD
:100B400008FB00BF4DF808EDFFF7CEFF94BF012072
:100B500000205DF808FB00BF4DF808EDFFF7C4FF6B
:100B600034BF012000205DF808FB00BF4FEA4102BE
:100B700012F5001215D211D56FF47873B3EB6252EF
:100B800012D94FEAC12343F0004343EA505311F016
:100B9000004F23FA02F018BF404270474FF00000A8
:100BA000704750EA013005D111F0004008BF6FF0E6
:100BB000004070474FF00000704700BF4FEA41020D
:100BC000B2F1E04324BFB3F5001CDCF1FE5C0DD9AB
:100BD00001F0004C4FEAC0024CEA5070B2F1004FF5
:100BE00040EB830008BF20F00100704711F0804FF8
:100BF00021D113F13872BCBF01F00040704741F4BD
:100C000080114FEA5252C2F11802C2F1200C10FAC0
:100C10000CF320FA02F018BF40F001004FEAC123A4
:100C20004FEAD32303FA0CFC40EA0C0023FA02F348
:100C30004FEA4303CCE77FEA625307D150EA01331E
:100C40001EBF4FF0FE4040F44000704701F00040EE
:100C500040F0FE4040F40000704700BF53B94AB96D
:100C6000002908BF00281CBF4FF0FF314FF0FF30B4
:100C700000F072B9ADF1080C6DE904CE00F006F891
:100C8000DDF804E0DDE9022304B070472DE9F04708
:100C9000089E04468846002B4BD18A42154667D9E8
:100CA000B2FA82F24AB1C2F1200701FA02F320FA45
:100CB00007F7954047EA030894404FEA154E230C86
:100CC000B8FBFEF71FFA85FC0EFB178843EA0843C2
:100CD00007FB0CF1994209D9EB1807F1FF3080F0BE
:100CE0001B81994240F21881023F2B445B1AA4B247
:100CF000B3FBFEF00EFB103344EA034400FB0CFC94
:100D0000A44509D92C1900F1FF3380F00781A445CF
:100D100040F2048102382C4440EA0740A4EB0C0462
:100D200000271EB1D4400023C6E900433946BDE880
:100D3000F0878B4209D9002E00F0EB800027C6E92E
:100D4000000138463946BDE8F087B3FA83F7002F33
:100D500047D18B4202D3824200F2FA80841A61EBBF
:100D6000030301209846002EE0D0C6E90048DDE7E5
:100D700002B9FFDEB2FA82F2002A40F08F80491BEE
:100D80004FEA154E1FFA85F80127B1FBFEFC230C34
:100D90000EFB1C1143EA014308FB0CF1994207D9F1
:100DA000EB180CF1FF3002D2994200F2CD8084465C
:100DB000591AA3B2B1FBFEF00EFB101443EA04442F
:100DC00008FB00F8A04507D92C1900F1FF3302D227
:100DD000A04500F2B6801846A4EB080440EA0C4097
:100DE0009FE7C7F1200CBB4022FA0CFE4EEA030E2F
:100DF00001FA07F420FA0CF521FA0CF34FEA1E4829
:100E00002543B3FBF8F92C0C08FB19331FFA8EFAB3
:100E100044EA034309FB0AF49C4202FA07F200FA8F
:100E200007F10BD91EEB030309F1FF3080F0878037
:100E30009C4240F28480A9F1020973441B1BADB2AD
:100E4000B3FBF8F008FB103345EA034400FB0AFA51
:100E5000A24508D91EEB040400F1FF336BD2A24572
:100E600069D90238744440EA0940A0FB0289A4EB26
:100E70000A044C45C2464B4654D351D0002E69D08B
:100E8000B1EB0A0564EB030404FA0CFCFD40FC40E2
:100E90004CEA0505C6E90054002747E7C2F12003E4
:100EA00020FA03F7954001FA02F021FA03F34FEA22
:100EB000154E3843010CB3FBFEF71FFA85F80EFB05
:100EC000173341EA034107FB08F38B4204FA02F4AB
:100ED00007D9691807F1FF3C2FD28B422DD9023F69
:100EE0002944CB1A81B2B3FBFEF00EFB103341EA6A
:100EF000034100FB08F38B4207D9691800F1FF3C5E
:100F000017D28B4215D902382944C91A40EA07473B
:100F10003BE73746304609E70746E7E61846FBE673
:100F20004145ABD2B8EB020A69EB0E020138134619
:100F3000A4E76046E9E7184695E76746D1E78146AA
:100F40007CE702382C4447E7ACF1020C2B442FE736
:100F5000384608E73746E9E6704700BF0E4A4FF4C7
:100F60007A730E491278B3FBF2F310B504460868A1
:100F7000B0FBF3F000F012FB08B90F2C01D90120EF
:100F800010BD002221464FF0FF3000F0C3FA044BA1
:100F900000201C6010BD00BF0000002008000020E1
:100FA0000400002008B5032000F0A0FA0020FFF79D
:100FB000D5FF04F089FB002008BD00BF034A044BA5
:100FC00011681B780B441360704700BF34920120F6
:100FD00000000020014B1868704700BF34920120C8
:100FE00038B50446FFF7F6FF0546631C02D0044BF4
:100FF0001B781C44FFF7EEFF401BA042FAD338BD1C
:1010000000000020002800F09280F8B5056C04462E
:10101000002D00F08280236CDB0604D50023012024
:1010200084F83C30F8BD236C4E4A4F491A4023687F
:101030004E4D42F0020222644A6822F440324A6075
:101040004A68606802434A605A68216922F48072E3
:10105000D4F808C0E7685A605868A66A40EA0120D8
:10106000AE425860586820F040705860596841EAB4
:101070000C015960996821F4006199609A6842EA0C
:1010800007029A6055D09968E06A21F07061996012
:101090009A6816439E60996821F0405199609A6859
:1010A00002439A609968A56921F0020194F8200032
:1010B00099609A6842EA45029A60002842D15A68CB
:1010C00022F400625A60D86A0026E56920F47000B4
:1010D00094F830C06A1E6769D8623046DD6A45EA16
:1010E0000255DD629D6825F400759D60996841EAAE
:1010F0004C219960996821F4806199609A6842EA6C
:1011000087229A606664236C23F0030343F0010393
:101110002364002384F83C30F8BD04F0EDFA6564E4
:10112000236C84F83C50DB063FF578AF7BE7012069
:1011300070479A6822F070629A609A6822F0405272
:101140009A60AFE75868626A40F40060511E5860C8
:101150005A6822F460425A605A6842EA41325A6040
:10116000B1E700BFFDEEFFFF002301400100000FCB
:10117000F0B5044683B0002094F83C300190012B78
:1011800000F0898025680120AB6884F83C00DE0708
:1011900014D4474B474E1868AB68A6FB006043F079
:1011A0000103800CAB6000EB40000190019B2BB170
:1011B00001980138019001980028F9D1A868236CA2
:1011C00010F0010044D03C48184040F48070206486
:1011D0006B68580505D5236C23F4405343F48053C2
:1011E0002364236C13F4805347D0636C23F006030D
:1011F0006364A76B1346DFF8D8E00A466FF0220C51
:101200002E482F49002684F83C60F96405F14C0112
:10121000C7E90FE0C5F800C038466F6847F080673F
:101220006F60AF6847F48077AF6000F06FFA254BCE
:101230002268586810F01F0013D1936813F04053D0
:101240000DD19168184641F08041916003B0F0BD26
:1012500043F010032364636C43F00103636403B041
:10126000F0BD19498A420AD05B68DB0602D41749EF
:101270008A4213D0002003B0F0BD6364B9E79368DD
:1012800013F0405F03D1936843F0804393600D4BAC
:1012900000205B68E3E7022003B0F0BD886810F02F
:1012A0004050E7D18B6843F080438B60D7E700BFA5
:1012B0000800002083DE1B43FEF8FFFFD912000860
:1012C000E9120008002301400020014000220140F3
:1012D00001130008704700BF08B5806BFFF7FAFFE5
:1012E00008BD00BF704700BF08B54022836B1A6479
:1012F00018465A6C42F004025A64FFF7F3FF08BD27
:10130000836B1A6C12F0500F1A6C10B523D142F493
:10131000007219681A648A6812F0405F17D19A69DE
:10132000AAB9CA6A12F4700F02D08A6850050ED4A6
:101330004A6822F020024A601A6C22F480721A6411
:101340001A6CD10403D41A6C42F001021A641846D4
:1013500003F09AFC10BDD20604D49B6BBDE810408C
:10136000DB6C18471846FFF7BDFF10BD90F83C3006
:101370000022F0B5012B83B0019200F09D800E6831
:1013800001220368B7B2092E80F83C2007EB47051D
:101390008A682FD9B6F1004F2CD01E3D4FF0070CB4
:1013A000DC680CFA05FCDFF838E124EA0C04764529
:1013B000DC6000F0848002FA05F5DA681543DD6030
:1013C0004968062901EB810226D8053A1F24596B8A
:1013D000944007FA02F221EA04015963596B0A4367
:1013E0005A633E4A934229D0002380F83C30184685
:1013F00003B0F0BD4FF0070C1C69AA4049680CFA15
:1014000005F5062924EA05051D611D6945EA020561
:1014100001EB81021D61D8D90C2938D8A2F123042F
:101420001F25196BA54007FA04F221EA050119638B
:101430001C6B1443294A93421C63D5D1B6F1004F6B
:1014400033D0122E40D0264B9E4243D1254A244908
:1014500053688E4243F400035360C5D102F14672D3
:10146000214B02F52E321B6802F28332A2FB0323CA
:101470009B0C03EB83035B000193019B002BB3D018
:10148000019B013B0193019B002BF9D1ACE7A2F139
:1014900041011F25DC6A8D4007FA01F224EA0504A8
:1014A000DC62D96A0A43DA629BE7D2F8043323F498
:1014B0004003C2F8043397E7022003B0F0BDDD68B3
:1014C00045EA0265DD607BE7064A536843F4800322
:1014D000536089E7112EB9D086E700BF0020014094
:1014E00012000010002301400800002007490002FC
:1014F000074BCA6800F4E06010B44FF6FF042240C6
:101500005DF8044B13431843C860704700ED00E0DA
:101510000000FA05174BDB68C3F3022330B4C3F1B4
:1015200007051C1D042D28BF0425062C18D9033BD4
:101530004FF0FF349C4022EA04044FF0FF320028B1
:1015400002FA05F221EA020101FA03F242EA040278
:101550004FEA0212D2B206DB074B1A5430BC704776
:1015600000242346E9E700F00F00044B1A5430BC76
:10157000704700BF00ED00E000E400E014ED00E083
:10158000002807DB00F01F0101234009024A8B40BD
:1015900042F82030704700BF00E100E00138B0F1B0
:1015A000807F0DD2074B0022072130B4F025064C76
:1015B0005860104684F823509A60196030BC704718
:1015C0000120704710E000E000ED00E008B503F0F6
:1015D00053FB08BDF8B50446FFF7FCFC002C53D0C4
:1015E000022223680021054684F835201A6884F811
:1015F000341022F001021A6005E0FFF7EBFC401BFB
:1016000005283AD823681A68D107F6D4D4E901200E
:10161000E16802431F68D4E904050A430243206AD3
:10162000D4E906612A43354D32433D400A43616A9D
:101630000243042942EA050228D01A605A6922F0BE
:1016400007021143DAB22E4D5961103A2D492E4846
:10165000A5FB02521940012513090022C05C032B8F
:101660004FF03F0388BF0431E06583401046A16519
:101670008B60626584F83550F8BD0323202218463C
:10168000626584F83530F8BD0120F8BDD4E90B510E
:10169000A76A45EA010047F0040102431A605A694B
:1016A00022F007021143002DCCD07EB1B6F5005FC9
:1016B00016D0022F03D9032FC4D1EA01C2D50123CA
:1016C00040221846626584F83530F8BD012F03D0FA
:1016D000F3D3022FB6D1F0E7B5F1C07FB2D1EEE778
:1016E000032FAFD801A252F827F000BFBF160008A1
:1016F000BB160008BF160008D91600083F8010F07E
:10170000ABAAAAAA00FCFFFFC8E20008F0B490F858
:101710003440012C38D0012590F83540866DAC421C
:1017200080F8345029D104680227002580F83570EC
:10173000456587682568402F25F48025256063600E
:1017400026D0A160E260C16D3F23026C8B40B36084
:10175000236843F016032360636943F080036361E9
:101760001AB1236843F0080323602268002342F083
:10177000010218462260F0BC70470022022380F864
:1017800034201846F0BC70470223F0BC184670475E
:10179000A260E160D7E700BF70B50446866DFFF731
:1017A00019FC94F83530022B06D08022002301204A
:1017B000626584F8343070BD23680546216C1A6870
:1017C00022F016021A605A6922F080025A6139B377
:1017D0001A6822F008021A601A6822F001021A60E0
:1017E00005E0FFF7F7FB401B05280FD823681B68AF
:1017F00013F00103F5D1E16D3F2218468A40012123
:10180000B26084F8343084F8351070BD0323202191
:1018100000226165184684F8342084F8353070BDA4
:10182000A26C002AD4D1D7E790F835200346022ACB
:1018300003D0802201205A657047026805210020EC
:1018400083F83510136823F001031360704700BF5D
:10185000F0B5044683B000200822664901900E6866
:10186000D4E916739A403D682A4203D0216808687B
:10187000400759D401229A402A4203D0216849697D
:10188000080674D404229A402A4203D021680968C9
:10189000890766D410229A402A4203D0216808683A
:1018A00000074BD420229A402A4214D021680868AD
:1018B000C00610D5BA6094F83520052A63D00B68AD
:1018C00013F4802F0B687ED0190340F18980E36BFD
:1018D0000BB120469847636D23B3636DDA071AD5C1
:1018E00022680521444B84F83510A3FB06361368A3
:1018F00023F00103B60A136002E01368DB0704D586
:10190000019B0133B3420193F7D90022012384F8EC
:10191000342084F83530E36C23B1204603B0BDE8B1
:10192000F040184703B0F0BD086820F004000860DC
:10193000BA60626D42F0010262659BE7BA600A68B4
:1019400012F4802F0A6818D1D20503D40A6822F055
:1019500008020A60226C002AA4D020469047E36D5A
:10196000A0E7BA60626D42F00402626592E7BA6075
:10197000626D42F00202626584E71103EAD5A26C4F
:10198000002AEAD18EE70A68206C22F016020A606B
:101990004A6922F080024A6138B30A6822F00802DC
:1019A0000A603F220020012102FA03F3226DBB608E
:1019B00084F8340084F83510002AB3D0204603B0F0
:1019C000BDE8F040104713F4807380D10A6801200D
:1019D00022F010020A6084F8343084F8350076E78B
:1019E000636C002B7FF475AF75E7A26C002AD4D12D
:1019F000D7E700BF08000020B5814E1B2DE9F04F4E
:101A0000884683B00024D1F80090DFF8F8E103E0C5
:101A10000134102C00F0B6800123A34009EA030230
:101A20009342F5D1D8F804506700032125F0100C3B
:101A3000B9400CF1FF33C943012B10D88668C5F3B8
:101A4000001306EA010AD8F80C60A340BE4046EA3B
:101A50000A068660466826EA020633434360C36886
:101A6000BCF1020FD8F8086003EA010306FA07F692
:101A700046EA0306C66015D1E30804F0070C4FF0F0
:101A80000F0BD8F8106000EB83034FEA8C0CD3F8EF
:101A900020A00BFA0CFB06FA0CF62AEA0B0A46EA1F
:101AA0000A061E62066805F003033140BB40EF00E2
:101AB00043EA01030360ABD5484B24F003064FF023
:101AC0000F0C5F6C194606F1804604F0030347F4DF
:101AD000804706F59C369B004F644F6C0CFA03F16F
:101AE00007F480470197019FB76827EA01013C4F3F
:101AF000B84220D007F58067B84246D0394FB84287
:101B000048D0394FB8424AD0384FB8424CD0384FFD
:101B1000B84253D0374FB84255D0374FB84248D06B
:101B2000364FB84254D0364FB8420CBF09270A2767
:101B300007FA03F31943B160D143DEF80030EE0336
:101B400004F1010454BF0B401343AF03CEF800303F
:101B5000DEF8043054BF0B401343EE02CEF80430DD
:101B6000DEF8083054BF0B401343AD02CEF8083006
:101B7000DEF80C3054BF0B401343102CCEF80C3061
:101B80007FF44AAF03B0BDE8F08F012707FA03F3F3
:101B90001943D0E7022707FA03F31943CBE70327DA
:101BA00007FA03F31943C6E7042707FA03F31943B7
:101BB000C1E7072707FA03F31943BCE7052707FA2C
:101BC00003F31943B7E7062707FA03F31943B2E70C
:101BD000082707FA03F31943ADE700BF00380240B6
:101BE0000000024000080240000C024000100240C9
:101BF0000014024000180240001C02400020024075
:101C000000240240003C014002B909048161704790
:101C100070B504460D4616466A1C23682CD19A6995
:101C2000900727D49A69D106F9D59A699106FCD50F
:101C300020221021D961DA619A69900701D500222A
:101C40009A629A69D10703D49A6942F001029A61B3
:101C50005A6800211B4E2025012032405A60636CD7
:101C600084F8401043F00403636484F8415084F81E
:101C7000421070BD002070BD9A699207FAD49A692B
:101C8000D0061BD4FFF7A6F9801BA84201D8002D6F
:101C9000C2D1636C2021002201200B4384F8402034
:101CA000636484F8411084F8422070BDFFF792F914
:101CB000801B8542EDD3002DEBD023689A699206F4
:101CC000F4D5B5E700E800FE70B504460D461646AB
:101CD00023689A69920649D49A69D20626D5681C67
:101CE00038D19A699106FCD520221021D961DA6198
:101CF0009A69900701D500229A629A69D10703D4A4
:101D00009A6942F001029A615A680021184E202512
:101D1000012032405A60636C84F8401043F00403A1
:101D2000636484F8415084F8421070BDFFF752F9A3
:101D3000801BA84201D8002DCAD1636C202100224B
:101D400001200B4384F84020636484F8411084F838
:101D5000422070BD9A699206C6D4FFF73BF9801BFA
:101D60008542EAD3002DE8D02368B8E7002070BD93
:101D700000E800FE00284DD0F8B590F84130044648
:101D800003F0FF02002B40D02421E568D4E90032A3
:101D900084F84110012D186822F07061A26820F0CB
:101DA000010018601961996821F40041996028D0F8
:101DB00042F40442022D9A6002D14FF400625A604C
:101DC0005A68002114482027A6691043D4E9042545
:101DD00058602A43D868E56942EA0622266A20F458
:101DE00000403543D8600846DA601D601A6842F04A
:101DF00001021A60616484F84170216384F8421022
:101E0000F8BD42F400429A60DAE780F8402003F01F
:101E1000CBFCB9E701207047008000022DE9F843B0
:101E200090F84140089E202C6FD190F84040012C42
:101E30006BD09846012391460F4680F84030044607
:101E4000FFF7C8F8054604E0FFF7C4F8401B19285F
:101E500075D82368986910F40040F5D1102221212B
:101E6000C4F82490C7F3090784F8411084F842208D
:101E70006064A4F82A80628D6063FF2A48D8618D6F
:101E8000484A89B258683A43DFF824E15FFA81FC96
:101E9000218500EA0E0142EA0C420A435A60DFF84B
:101EA0001481DFF8149147EA0808638D2A46314609
:101EB00020469BB2002B62D0FFF7AAFE00285BD120
:101EC000606A216810F8012B238D8A62628D013BC4
:101ED0006062013A9BB292B223856285628D92B2B2
:101EE000002AE2D0002BE0D1701C1DD18B691A06AC
:101EF000FCD5638DFF2B30D94B68FF2203EA090321
:101F0000228543EA08034B60CFE70220BDE8F8834F
:101F10005A68FF20DFF898C0234902EA0C022085A6
:101F200039430A435A60BAE78B691B06E1D4FFF7CD
:101F300051F8401B864202D30EB12168D4E7636C8E
:101F40002021002201200B4384F84020636484F8A0
:101F5000411084F84220BDE8F883628D47F0007399
:101F6000486892B200EA09005FFA82FC228543EADF
:101F70000C4303434B6098E70120BDE8F883FFF76B
:101F8000A3FE0028F8D123682021084DD9615A68A2
:101F90002A405A6084F8411084F8400084F84200D6
:101FA000B4E700BF002000820020FF8100E800FEAF
:101FB000009800FC0000FF01009C00FC90F84130FC
:101FC000DBB2202B70B41FD190F84020012A1BD027
:101FD00002682424002680F841401568344625F024
:101FE00001051560156825F48055156015682943AD
:101FF0001160116841F00101116080F8406080F8C3
:102000004130204670BC70470224204670BC7047A7
:1020100090F84130DBB2202B70B41ED190F84020F4
:10202000012A1AD002682424002680F8414014684E
:10203000354624F001041460146824F4706444EA02
:1020400001211160116841F00101116080F84060C8
:1020500080F84130284670BC70470225284670BC85
:10206000704700BF024A136843F4807313607047DF
:10207000007000401B4A1C4B116C41F0805130B580
:10208000116483B0126C1C4602F080520192019AD6
:102090001A6842F480321A60FEF79CFF054605E09C
:1020A000FEF798FF401BB0F57A7F17D86368DA0314
:1020B000F6D523680C4D43F400332360FEF78AFF06
:1020C000044605E0FEF786FF001BB0F57A7F05D8D1
:1020D0006B689B03F6D5002003B030BD032003B02E
:1020E00030BD00BF0038024000700040002800F002
:1020F0004C8103682DE9F041DD0782B0044635D5F7
:10210000AC498A6802F00C02042A00F0FF808A6859
:1021100002F00C02082A00F0F5806368B3F5803FF6
:1021200010D0002B00F01A81B3F5A02FA14B1A6834
:1021300000F0648122F480321A601A6822F480224E
:102140001A6004E09B4A136843F480331360FEF77F
:1021500041FF984D064605E0FEF73CFF801B6428D2
:1021600000F2EF802B689A03F6D523689F0742D4CC
:102170001A0717D56369002B00F0B1808D4B5A6F99
:102180001D4642F001025A67FEF724FF064605E0AD
:10219000FEF720FF801B022800F2D3806B6F9B07A5
:1021A000F6D523685D076BD5824B1A6CD00000F121
:1021B000EE801A6C012542F080521A641B6C03F009
:1021C00080530193019B7C4B1A68D10540F1A88094
:1021D000A368012B39D0002B00F0DB80052B754B59
:1021E0001A6F00F0138122F001021A671A6F22F0B1
:1021F00004021A672EE06F4A916811F00C0F63D049
:10220000916801F00C0108295BD0E368002B00F015
:10221000E180684B1A681D4642F001021A60FEF721
:10222000D9FE064605E0FEF7D5FE801B022800F227
:1022300088802B689807F6D52B68226923F0F8036D
:1022400043EAC2032B60236892E75A4A136F43F0B4
:1022500001031367FEF7BEFE564E804641F28837F3
:1022600005E0FEF7B7FEA0EB0800B84269D8336F6F
:102270009B07F6D525B14F4A136C23F080531364A6
:10228000A069D0B14B4B9A6802F00C02082A00F00A
:10229000C58002281A6800F0EB8022F080721C468C
:1022A0001A60FEF797FE054604E0FEF793FE401B1A
:1022B000022846D823689B01F7D4002002B0BDE86D
:1022C000F08152685602A0D43A4A126895073CD56C
:1022D000E268012A39D0012002B0BDE8F081354B17
:1022E0005A6F1D4622F001025A67FEF773FE06463A
:1022F00004E0FEF76FFE801B022822D86B6F9F0759
:10230000F7D44EE74A6850027FF507AF294A1268B2
:1023100091037FF52BAF6268002A7FF427AFDAE7DD
:102320001A681E4642F480721A60FEF753FE074692
:102330003368DA053FF54CAFFEF74CFEC01B64284E
:10234000F6D9032002B0BDE8F0811A4920690A6875
:1023500022F0F80242EAC0020A6009E7154B1A6847
:102360001D4622F480321A601A6822F480221A6014
:10237000FEF730FE064604E0FEF72CFE801B6428C4
:10238000DFD82B689B03F7D4EFE6012070470025C8
:1023900019E7084B41F288381A6F1E4622F00102F5
:1023A0001A671A6F22F004021A67FEF713FE074637
:1023B00009E000BF0038024000700040FEF70AFE4E
:1023C000C01B4045BDD8336F9807F7D4002D3FF4AC
:1023D00057AF50E7414B1A681D4622F001021A60C0
:1023E000FEF7F8FD064604E0FEF7F4FD801B022828
:1023F000A7D82B689907F7D42368B9E642F480225E
:102400001A601A6842F480321A60A0E642F00402B0
:102410001A671A6F42F001021A671BE701285A680F
:102420003FF45AAF02F48003E1698B427FF453AF6B
:1024300002F03F03216A8B427FF44DAF47F6C07331
:10244000616A1340B3EB811F7FF445AFA36A02F4C6
:1024500040315B08013BB1EB034F7FF43CAFE36AD3
:1024600002F07062B2EB036F14BF0120002033E76B
:1024700022F080721D461A60FEF7ACFD064605E0AC
:10248000FEF7A8FD801B02283FF65BAF2B68990181
:10249000F6D4D4E90732606A1343D4E90A2143F041
:1024A00000530E4C520843EA8013013A43EA016399
:1024B00043EA02436B602B6843F080732B60FEF7A6
:1024C00089FD054605E0FEF785FD401B02283FF625
:1024D00038AF23689A01F6D5EFE600BF0038024016
:1024E00078B15E4A136803F00F038B420BD2136876
:1024F00023F00F030B431360136803F00F038B42A9
:1025000001D00120704703682DE9F0419D0714D5E3
:102510005C0704D5524CA26842F4E052A2601A074C
:1025200004D54F4CA26842F46042A2604C4C8568CE
:10253000A26822F0F0022A43A260DF0704460D469B
:1025400021D54268464B012A1B6863D0022A79D004
:10255000990728D5424941F288388B680E4623F006
:10256000030313438B60FEF735FD074604E0FEF7D7
:1025700031FDC01B404563D8B368626803F00C03AB
:10258000B3EB820FF3D1354A136803F00F03AB426C
:102590000CD9136823F00F032B431360136803F067
:1025A0000F03AB4202D00120BDE8F08123685A0737
:1025B00006D52B49E0688A6822F4E05202438A601B
:1025C0001B0707D5264A2169936823F4604343EA31
:1025D000C103936022498B6803F00C03042B1CD0C9
:1025E000082B2BD14A684B6802F03F02496813F46C
:1025F00080032AD11B48C1F38811A1FB0001FEF71B
:102600002DFB174B5B68C3F3014301335B00B0FB49
:10261000F3F303E09E039DD4C5E7134B104A134C1C
:1026200092681348C2F3031212490068A25CD340B7
:102630000B60FEF793FC0020BDE8F081094BEDE74D
:102640000320B1E7980185D4ADE70748C1F38811AD
:102650000023A1FB0001FEF701FBD2E7003C024092
:10266000003802400024F40040787D01FCE20008BC
:102670000400002008000020164908B58B6803F00C
:102680000C03042B1BD0082B17D14A684B6802F0AF
:102690003F02496813F4800313D10F48C1F3881136
:1026A000A1FB0001FEF7DAFA0A4B5B68C3F30143B2
:1026B00001335B00B0FBF3F008BD074808BD0748D5
:1026C00008BD0648C1F388110023A1FB0001FEF7F5
:1026D000C5FAE9E7003802400024F40040787D01A3
:1026E000044B054A9B680549C3F382230868D35C01
:1026F000D8407047003802400CE300080800002072
:10270000044B054A9B680549C3F342330868D35C10
:10271000D8407047003802400CE300080800002051
:1027200003682DE9F04313F0010683B004460BD093
:10273000B64A916821F400019160466B916831437B
:10274000B6FA86F67609916013F4002510D0AF49E9
:10275000E56BD1F88C20B5F5801F22F4401242EAD7
:102760000502C1F88C2000F01A82B5FA85F56D09D2
:10277000D90210D5A548216CD0F88C20B1F5800F76
:1027800022F4400242EA0102C0F88C2000F00A82E2
:10279000002908BF012513F0807F18BF01269A0683
:1027A00000F1B781D9060CD5984AD2F88C1021F0E7
:1027B0008071C2F88C10D2F88C10A06B0143C2F863
:1027C0008C105A0408D59149606ED1F8902022F4FB
:1027D00040320243C1F890201F0408D58B49A06EF7
:1027E000D1F8902022F440220243C1F89020D8036F
:1027F00008D58649E06ED1F8902022F440120243B9
:10280000C1F89020990308D58049206FD1F8902015
:1028100022F440020243C1F890205A0608D57B49B1
:10282000606CD1F8902022F003020243C1F890209E
:102830001F0608D57549A06CD1F8902022F00C0233
:102840000243C1F89020D80508D57049E06CD1F852
:10285000902022F030020243C1F89020990508D55B
:102860006A49206DD1F8902022F0C0020243C1F8DD
:1028700090205A0508D56549606DD1F8902022F462
:1028800040720243C1F890201F0508D55F49A06D32
:10289000D1F8902022F440620243C1F89020D8047D
:1028A00008D55A49E06DD1F8902022F440520243F5
:1028B000C1F89020990408D55449206ED1F8902091
:1028C00022F440420243C1F890205A0208D54F49F1
:1028D000A06FD1F8902022F080620243C1F89020CE
:1028E0009F020CD54949E06FD1F89020B0F1006FFC
:1028F00022F0006208BF01250243C1F8902013F0C6
:10290000080F18BF0125580308D54049606FD1F85A
:10291000902022F040720243C1F89020190200F189
:10292000ED80012E01D09A0160D5384B1A681E4601
:1029300022F080621A60FEF74DFB074605E0FEF7C5
:1029400049FBC01B642800F2D58033681B01F6D414
:102950002368DF0712D5626B82B9D6F88420D6F8D7
:10296000847002F44032606807F07067A1683A43EF
:1029700042EA801242EA0172C6F884201E0304D59E
:10298000E26BB2F5801F00F01E81D80204D5226CE4
:10299000B2F5800F00F01781D90111D51B4E606888
:1029A000D6F88420D6F8847002F07062216907F0AE
:1029B000E0473A4342EA801242EA0142C6F88420E4
:1029C0009A0100F1F180114B1A681E4642F08062B4
:1029D0001A60FEF7FFFA074605E0FEF7FBFAC01B98
:1029E000642800F2878033681B01F6D5012D03D0DF
:1029F000002003B0BDE8F083044B1A681D4622F0A6
:102A000080521A60FEF7E6FA064606E000380240F9
:102A1000FEF7E0FA801B64286CD82B689F00F7D47F
:102A200023681D0301D5E26B1AB1D8021DD5226CB3
:102A3000DAB982496569D1F88820D1F8886002F452
:102A40004032A06906F0E046324342EA851242EA8B
:102A50000062C1F88820D1F88C20A06A22F4F852D4
:102A6000013842EA0022C1F88C20990215D5E26FA4
:102A7000B2F1006F11D171496569D1F88820D1F8A0
:102A8000886002F07062206A06F0E046324342EA53
:102A9000851242EA0042C1F888201A0719D5674A10
:102AA0006569D2F88810D2F8883001F07061E06969
:102AB00003F440330B4343EA851343EA0073C2F83F
:102AC0008830D2F88C30E16A23F440330B43C2F8EB
:102AD0008C305A4B1A681C4642F080521A60FEF73E
:102AE00079FA054623689B0082D4FEF773FA401BEF
:102AF0006428F7D9032003B0BDE8F0834F49D4F828
:102B00008000D1F8902022F080520243C1F890203A
:102B100007E74A4A4A4B116C1F4641F08051116445
:102B2000126C02F080520192019A1A6842F480728B
:102B30001A60FEF74FFA804605E0FEF74BFAA0EB6D
:102B400008006428D6D83B68DB05F6D53B4A236BE2
:102B5000116F03F4407011F4407110D081420ED017
:102B6000116F176F21F4407147F480371767176FA3
:102B700027F4803717671167116FCF0748D4B0F576
:102B8000407F3CD02D498A6822F4F8128A602B4A93
:102B9000C3F30B03116F0B431367236802E6002591
:102BA0000126E5E50126F6E5236962681B04D4E900
:102BB000021043EA8213214A43EA006343EA0173A5
:102BC000C2F88430FFE61D4E6068D6F88420D6F83F
:102BD000847002F44032E16807F0E0473A4342EA89
:102BE000801242EA0162C6F88420D6F88C10626A2C
:102BF00021F01F01013A0A43C6F88C20CCE60F48A9
:102C000010498268194022F4F8120A438260BEE734
:102C1000174641F28838FEF7DDF9814606E0FEF7F7
:102C2000D9F9A0EB090040453FF664AF3B6F980728
:102C3000F5D5236B03F44070A1E700BF00380240D4
:102C400000700040FFFCFF0F002866D0F8B5437FFE
:102C5000044603F0FF02002B43D0236853220220D6
:102C6000CA21607759625A62DA68550627D5986892
:102C7000256962682A492A430140606999600243D4
:102C80009D68D4E902102A439A6018611A6942EAE1
:102C900001421A61DA6822F08002DA609A689106CD
:102CA00023D5D96CFF26A769012521F00801002052
:102CB000D964DA6C3A43DA645E626577F8BD4FF046
:102CC000FF32DA60FEF786F9054605E0FEF782F985
:102CD000401BB0F57A7F19D82368DA685006F5D51D
:102CE000C5E7027702F098FDB7E7DA6822F0A002A4
:102CF000DA60FEF76FF905462368DA689206D0D4E9
:102D0000FEF768F9401BB0F57A7FF5D92268FF21FC
:102D10000423012051626377F8BD0120704700BF92
:102D2000BFFF8FFF2DE9F843037F012B00F08C805C
:102D30000D46022301210668437704460177B768F0
:102D4000002A30D017F040077AD02F7B3F046878F4
:102D50002A780002AB7840EA024018430743CA22AF
:102D6000532372627362F3685A064DD5464A2B6943
:102D70003A40696932600B43B26822F48022B26043
:102D8000B2681343B360F36823F08003F360B36861
:102D90009B065CD50023FF210122184671626277F1
:102DA0002377BDE8F88317F040074BD02F7B3F0413
:102DB0002B780021092B06D90A3B0131DBB2092B04
:102DC000FAD80901C9B219436B780020092B4FEAE0
:102DD000014106D90A3B0130DBB2092BFAD80001C8
:102DE000C0B20343A87809284FEA032349D90A3817
:102DF0000132C0B20928FAD81201D2B20F431043EF
:102E00003B4343EA0007AAE74FF0FF33F360FEF7C6
:102E1000E1F881462668F36813F04008A6D1FEF772
:102E2000D9F8A0EB0900B0F57A7FF3D92268FF2129
:102E300004230120516284F81C806377BDE8F88385
:102E40002F7384E72F73B3E70220BDE8F883F3689C
:102E500023F0A003F360FEF7BDF807462668F56887
:102E600015F0200596D1FEF7B5F8C01BB0F57A7FB6
:102E7000F4D92268FF21042301205162257763776A
:102E80008FE70022BAE700BF7F7F7F0070B404683D
:102E9000184BA56A20692468C0F30E004D602340DA
:102EA0008860180CC3F30624DBB200F0400600F083
:102EB0003F054C700E730D708B70BAB9260900F087
:102EC0000F001A0904F00F042D0903F00F0306EB9D
:102ED000860605EB850502EB820200EB450004EB5C
:102EE000460403EB420308704C708B70002070BCEA
:102EF000704700BF7F7F7F00F8B5037F012B74D040
:102F00000546022301206B7728770E78CB7876036D
:102F100048788C788ABBC70604D520F010000A30A8
:102F2000C0B24870092B4FF0000106D90A3B0131AD
:102F3000DBB2092BFAD80901C9B20B4309284FF0BB
:102F400000014FEA034306D90A380131C0B209280B
:102F5000FAD80901C9B20843092C4FEA002160D907
:102F60000A3C0132E4B2092CFAD81201D0B21E4355
:102F7000044346EA0100044304E046EA03431C43D9
:102F800044EA00242B68CA21532259625A62DA6843
:102F9000510611D5244A22405A60DA6822F0800294
:102FA000DA609A68920622D50022FF200121586239
:102FB000104669772A77F8BD4FF0FF32DA60FEF7E6
:102FC00009F806462B68DF6817F04007E2D1FEF7E4
:102FD00001F8801BB0F57A7FF4D92A68FF21042319
:102FE000012051622F776B77F8BD0220F8BDDA68B7
:102FF00022F0A002DA60FDF7EDFF06462B68DC68E0
:1030000014F02004D0D1FDF7E5FF801BB0F57A7FE6
:10301000F4D92A68FF210423012051622C776B77B1
:10302000F8BD0020A3E700BF3FFFFF000068164B7C
:1030300040680340F0B4C3F30724C3F34236180CCE
:1030400004F01F05DBB20E704D70C8708B70BAB9FA
:103050002D0903F00F06020904F00F04AF0000F081
:103060000F001B093D4402EB820203EB830304EBD8
:10307000450400EB420006EB43034C70C8708B70B4
:103080000020F0BC704700BF3FFFFF0000287BD04E
:10309000F8B590F83D30044603F0FF02002B3BD01A
:1030A00022680220414E424FB2F1804FA2EB060649
:1030B00084F83D00A2EB07071368B6FA86F6B7FA64
:1030C00087F74FEA56164FEA57172AD04EBB3949B1
:1030D0008A425BD001F580618A4257D001F5806158
:1030E0008A4258D0002F56D133498A421ED001F56A
:1030F00080618A421AD001F580618A4216D0A1F51A
:1031000098318A4212D001F580618A420ED001F5D1
:1031100080618A420ED109E080F83C2002F08AFBEF
:10312000BEE723F07005A06845EA000323F440736E
:1031300020690343A16923F08003E0680B436168C1
:103140001360D0629162E6B9DFB9012300205361B8
:1031500084F8483084F83E3084F83F3084F84030BA
:1031600084F8413084F8423084F8433084F84430A5
:1031700084F8453084F8463084F8473084F83D3090
:10318000F8BD63691363E0E70120704723F0700323
:10319000A1680B43CAE7094923F07003A0688A427B
:1031A00043EA0003C2D0002FC0D19DE700000140D8
:1031B000000401400004004000400140000C0040B9
:1031C000704700BF00287BD0F8B590F83D3004462A
:1031D00003F0FF02002B3BD022680220414E424FF9
:1031E000B2F1804FA2EB060684F83D00A2EB070780
:1031F0001368B6FA86F6B7FA87F74FEA56164FEA1B
:1032000057172AD04EBB39498A425BD001F58061FD
:103210008A4257D001F580618A4258D0002F56D19A
:1032200033498A421ED001F580618A421AD001F5E5
:1032300080618A4216D0A1F598318A4212D001F5F8
:1032400080618A420ED001F580618A420ED109E088
:1032500080F83C20FFF7B4FFBEE723F07005A068BC
:1032600045EA000323F4407320690343A16923F076
:103270008003E0680B4361681360D0629162E6B935
:10328000DFB901230020536184F8483084F83E30D0
:1032900084F83F3084F8403084F8413084F842307C
:1032A00084F8433084F8443084F8453084F846305C
:1032B00084F8473084F83D30F8BD63691363E0E774
:1032C0000120704723F07003A1680B43CAE7094946
:1032D00023F07003A0688A4243EA0003C2D0002FA3
:1032E000C0D19DE7000001400004014000040040FF
:1032F00000400140000C004000294BD190F83E30C6
:10330000012B5BD1022380F83E300368012201F0DB
:103310001F01186A02FA01F120EA010010B41862D4
:103320003E4C1A6AA34241EA0201196248D03C4A63
:10333000934245D03B4A3C4C934218BFB3F1804F77
:103340003A483B490CBF01220022A34208BF42F089
:103350000102834208BF42F001028B4208BF42F0E3
:1033600001023AB900F54060181AB0FA80F040093D
:10337000002846D099682F4A0A40062A29D0B2F57B
:10338000803F26D01A68002042F001021A605DF8E2
:10339000044B7047042920D0082926D00C2909D0D5
:1033A000102933D090F84330012B07D1022380F845
:1033B0004330AAE790F84130012B1ED0012070471E
:1033C0005A6C42F400425A641A4A99680A40062A22
:1033D000D5D100205DF8044B704790F83F30012BA9
:1033E000ECD1022380F83F308FE790F84030012B7A
:1033F000E4D1022380F8403087E7022380F841308F
:1034000083E71A6842F001021A60C0E790F8423080
:10341000012BD3D1022380F8423076E7000001402F
:10342000000401400004004000080040000C00407F
:10343000004001400700010090F83C30012B00F0F3
:1034400053810123F0B480F83C30142A43D8DFE8DC
:1034500012F015004200420042007D00420042008E
:103460004200E600420042004200B1004200420039
:103470004200190142004200420048000368D1F8AE
:1034800008C01D6A0F6825F00105B04C1D621A6A5C
:103490005E689D6922F002022C40AD4D42EA0C02AA
:1034A000AB4244EA070400F02D8105F58065AB428C
:1034B00000F028814D685E609C615D631A629C69C2
:1034C0000D6944F008049C61996921F00401996137
:1034D0009A692A439A610023F0BC80F83C30184670
:1034E000704703688E681D6A0F6825F48015994C33
:1034F0001D621A6A5D6822F40012D3F854C042EAD1
:103500000652934E0CEA0404B34244EA072400F046
:10351000ED8006F58066B34200F0E8804E685D609D
:103520005C65DE651A625C6D0D6944F400645C657F
:10353000596D21F4806159655A6D42EA05225A6538
:103540000023F0BC80F83C30184670470368D1F87F
:1035500008C01D6A0F6825F010057F4C1D621A6AAD
:103560005E689D6922F020022C40794D42EA0C12DF
:10357000AB4244EA072400F0D98005F58065AB42F0
:1035800000F0D4804D685E609C619D631A629C6906
:103590000D6944F400649C61996921F4806199612A
:1035A0009A6942EA05229A610023F0BC80F83C3017
:1035B0001846704703688E681D6A0F6825F48055A9
:1035C000654C1D621A6A5D6822F40052D3F81CC073
:1035D00042EA06325E4E0CEA0404B34244EA07248F
:1035E00000F09E8006F58066B34200F099804E6838
:1035F0005D60DC611E641A62DC690D6944F400647C
:10360000DC61D96921F48061D961DA6942EA052275
:10361000DA610023F0BC80F83C301846704703683C
:10362000D1F808C01D6A0F6825F48075474C1D62EB
:103630001A6A5E68DD6922F400722C40444D42EA49
:103640000C22AB4244EA070400F08A8005F580654D
:10365000AB4200F085804D685E60DC61DD631A621C
:10366000DC690D6944F00804DC61D96921F00401CA
:10367000D961DA692A43DA610023F0BC80F83C3072
:103680001846704703688E681D6A0F6825F48035F8
:10369000324C1D621A6A5D6822F40032D3F854C0BD
:1036A00042EA06422A4E0CEA0404B34244EA070402
:1036B00022D006F58066B3421ED04E685D605C6520
:1036C0009E651A625C6D0D6944F008045C65596D75
:1036D00021F0040159655A6D2A435A650023F0BC54
:1036E00080F83C30184670470220704725F480254A
:1036F0004E6945EA862511E725F480354E6945EA8D
:103700000625DAE726F4407C22F008028E69CF68AD
:103710004D693A43354322F0040245EA0C06C9E6F6
:1037200025F480454E6945EA861560E726F4406C2D
:1037300022F080028E69CF684D6942EA0712354354
:1037400022F040024CEA85061CE700BF8CFFFEFF1A
:1037500000000140FF8FFFFEFF8CFFFE8FFFFEFF8A
:1037600026F4405C22F400628E69CF684D6942EA1B
:103770000722354322F480624CEA05166BE700BF4E
:1037800090F83C30012B5BD002460220136870B4E5
:1037900082F83D00012598684C4C82F83C5004406A
:1037A000086840289C6076D04CD960282FD058D922
:1037B00070281BD0B0F5005F0FD1CC68D1E9015063
:1037C00040EA0501986841EA042120F47F40014362
:1037D0009960996841F4804199600023012118465D
:1037E00082F83D1082F83C3070BC7047D1E901503E
:1037F000CC6840EA0501986841EA042120F47F4042
:1038000001439960996841F077019960E5E71C6A86
:103810004D6824F01004CE681C629869196A20F47F
:10382000704021F0A00140EA063041EA051198619C
:103830001962996821F0700141F067019960CCE745
:1038400002207047102804D03DD9202801D030280C
:10385000C3D1996840F0070021F0700108439860D7
:10386000BBE75028B9D11D6A1C6A486825F00A05D3
:1038700024F00104CE6828431C62996921F0F0010C
:1038800041EA061199611862996821F0700141F0CE
:1038900057019960A1E71D6A1C6A486825F00A056E
:1038A00024F00104CE6828431C62996921F0F001DC
:1038B00041EA061199611862996821F0700141F09E
:1038C0004701996089E70028C3D086E78800FEFF9A
:1038D00090F83C30012B4BD00368274AF0B4274EB8
:1038E00002250124934218BFB34280F83D5080F86E
:1038F0003C4008BF01265C6818BF00269D6803D1C4
:1039000024F470044A6814431D4A24F070040F68BC
:10391000934218BFB3F1804FDFF870C044EA070448
:10392000184F0CBF012200225C60634508BF42F0C3
:103930000102154CBB4208BF42F0010207F59A375D
:10394000BB4208BF42F00102A34208BF42F001029D
:1039500002B926B18A6825F0800515439D600023D1
:10396000012280F83C3080F83D201846F0BC7047BA
:1039700002221046704700BF0004014000000140D1
:1039800000040040000C0040001800400008004007
:10399000704700BF704700BF08B50022836BA3F8D3
:1039A0005A201846A3F85220FFF7F4FF08BD00BFC5
:1039B000704700BF036840F60F01DA690A4270B52C
:1039C0001E6804469D6868D015F001056CD0D107CB
:1039D00009D5F00507D501211962D4F8801041F00E
:1039E0000101C4F88010910700F1B980510702D598
:1039F000002D40F0C280100705D5B10600F1C68049
:103A0000002D40F0C38015050AD5700108D54FF48C
:103A100000611962D4F8801041F02001C4F88010D0
:103A2000D4F8801000293ED0910602D5B20600F1EC
:103A3000BA80D4F8805099684E0603D415F0280552
:103A400000F0B9801A6822F490721A609A6822F025
:103A500001029A60226E012A03D11A6822F0100234
:103A60001A6020210022E1672266996862664D068D
:103A700040F195809A68216F22F040029A600029F7
:103A800000F08D80604B08460B65FDF7CDFE50B110
:103A9000206FBDE87040036D1847910607D5B50645
:103AA00005D5436EF3B970BD58490E428FD1216ED2
:103AB00001291AD015060FD45106F4D57206F2D595
:103AC0001A6820250021204622F040021A60A567CE
:103AD000A166FFF75DFF70BD3006EDD5A36E002B2C
:103AE000E1D02046BDE870401847D006E2D5F10687
:103AF000E0D510221A629A6812F0400261D0206F5D
:103B00000268526892B2002ACDD0B4F8581091429F
:103B1000C9D9C569A4F85A20B5F5807F17D01A68AD
:103B20000021202522F480721A609A6822F0010296
:103B30009A609A6822F040029A60E56721661A68E6
:103B400022F010021A60FDF727FEB4F85810B4F8FE
:103B50005A302046C91A89B2FFF72AFF70BD002DDE
:103B60003FF449AF022150071962D4F8801041F0A8
:103B70000401C4F880107FF53EAF04211962D4F827
:103B8000801041F00201C4F8801034E70821196266
:103B9000D4F8801041F00801C4F8801033E72046C3
:103BA000FFF7F8FE70BD626E002A3FF442AF204678
:103BB000904723683DE72046FFF7ECFEC4F88050AD
:103BC00070BDB4F85A50B4F85810B4F85A00491BF4
:103BD00080B289B200283FF466AF00293FF463AF9A
:103BE0001D682026204625F490751D609D6825F0EF
:103BF00001059D60E66722661D68626625F0100576
:103C00001D60FFF7D5FE70BD993900082001000442
:103C1000436ADA0710B406D50168846A4A6822F458
:103C2000003222434A609C0706D50168C46A4A688C
:103C300022F4803222434A60590706D50168046B9A
:103C40004A6822F4802222434A601A0706D5016896
:103C5000446B4A6822F4004222434A60DC0606D5DF
:103C60000168846B8A6822F4805222438A60990634
:103C700006D50168C46B8A6822F4005222438A6028
:103C80005A060AD50168046C4A68B4F5801F22F40C
:103C9000801242EA04024A600BD01B0606D5026875
:103CA000816C536823F400230B4353605DF8044B8D
:103CB00070474A68446C22F4C00222434A60ECE731
:103CC00000284FD0836F70B50446002B45D0236881
:103CD00024212069A167A26819680243606921F064
:103CE0000101BA4D0243E069196019680243E668B0
:103CF0000D40A1692A43256A1A6041EA0502596804
:103D0000B34D21F44051AB4241EA06015960996834
:103D100021F4306142EA01029A6025D0AD4A934213
:103D200044D0AD4A934200F0E980AC4A934245D07A
:103D3000AB4A934200F0F180AA4A934200F07181AD
:103D4000A94A934200F08081A84A934200F02D8155
:103D500000230120C4E9193370BD80F8743001F0EC
:103D6000A7FDB4E701207047A14BA24AD3F89030D9
:103D700003F00303D35CB0F5004F30D0082BE7D835
:103D800001A252F823F000BFE13E0008193E0008EE
:103D9000173F0008513D0008313F0008513D000821
:103DA000513D0008513D0008373F0008904B924AB2
:103DB000D3F8903003F00C03D35CDCE78C4BD3F8E2
:103DC000903003F0C003402B00F0AF8040F28280BF
:103DD000802B00F09D80C02B00F0B880B8E7082B46
:103DE000B6D801A252F823F0A53F00088F3F000883
:103DF000A13F0008513D00089B3F0008513D0008CD
:103E0000513D0008513D0008533F0008002B9FD151
:103E1000B0F5004F00F0BB80FEF772FC002863D0C5
:103E200063684FF6EF7200EB5300B0FBF3F080B223
:103E3000A0F1100393428BD822680023D060C4E91C
:103E40001933636A002B55D1236800215A6822F484
:103E500090425A609A6822F02A029A601A6842F0E8
:103E600001021A60C4F88010FDF7B4F82368064612
:103E70001A68100708D4002320221846A26784F885
:103E80007430E267236670BDDD6915F40015F2D168
:103E9000FDF7A0F8801B2368B0F1007F80F0B280AE
:103EA0001A685107F0D5DA691205EDD54FF40061B3
:103EB000202203201962196821F4D07119609968D1
:103EC00021F001019960A26784F87450E267C4F898
:103ED000802070BD002B7FF43BAFB0F5004F61D068
:103EE000FEF7FEFB00289BD10023C4E91933636A67
:103EF000002BA9D02046FFF78BFEA5E73C4BD3F85B
:103F0000903003F03003102B0FD0E3D9202B3BD19E
:103F1000B0F5004F44D0394882E7354BD3F89030A4
:103F200003F44073B3F5807F08D1B0F5004F34D06F
:103F3000FEF7A2FB72E74FF4004071E7CAD9B3F570
:103F4000007FE5D0B3F5407F7FF402AFB0F5004FBE
:103F5000F1D14FF4803362684FF6EF7103EB5203F7
:103F6000B3FBF2F39AB2A2F1100088423FF6F0AE32
:103F700023F00F03C2F34202206800219BB21343D7
:103F8000C360C4E919115CE7302BDFD0E0E6FEF72F
:103F9000B7FB0028A8D04300DDE7FEF76DFBF8E78C
:103FA000174BD8E7FEF79CFBF3E7114BD3F89030A3
:103FB00003F44043B3F5804FB7D08BD9B3F5004F2E
:103FC000A6D0B3F5404FC1D0C2E600BFF369FFEF02
:103FD000001001400044004000480040004C0040F8
:103FE000005000400014014000780040007C004078
:103FF00000380240D0E20008D4E200080024F400B7
:104000000048E8011A682021032022F4D0721A60C7
:104010009A6822F001029A60A16784F87450E167FF
:1040200070BD134BD3F8903003F44063B3F5806F49
:104030003FF47BAF7FF6EAAEB3F5006F3FF468AFB5
:10404000B3F5406F82D083E6094BD3F8903003F488
:104050004053B3F5805F3FF468AF7FF63BAFB3F5F5
:10406000005F3FF455AFB3F5405F3FF46FAF6FE6CD
:1040700000380240374B00224FF478412DE9F043DD
:104080001D6B8BB0344C164645F48055DFF8CC9050
:104090002046DFF8CC801D6301271D6B05F4805599
:1040A0000195019D1D6B45F010051D631D6B05F00D
:1040B00010050295029D1D6B45F020051D631D6BCB
:1040C00005F020050395039D1D6B45F040051D631C
:1040D00003251B6B03F040030493049BFDF794FD41
:1040E00048463246FF21FDF78FFD324640464FF4E9
:1040F0007F41FDF789FD4FF47843204605A9CDE9BE
:104100000537CDE90765FDF779FCFF23484605A98A
:1041100008950593CDE90676FDF770FC4FF47F43D3
:1041200005A9404608954FF400550593CDE906765C
:10413000FDF764FC4FF400604FF480514FF40042EF
:104140004FF48043A561A061A161A261A3610BB09E
:10415000BDE8F0830038024000140240001802401D
:1041600000100240C3431149114A1B0470B44FF0C0
:104170007F45C4B203F47F0300F47F408D614FF0AC
:10418000005523430B4C95614FF0004595614FF06E
:104190000065A3614FF400644E694FF4005330434F
:1041A000486195619461936170BC70470010024052
:1041B0000014024000180240C3431149114A1B0475
:1041C00070B44FF07F45C4B203F47F0300F47F4026
:1041D0008D614FF0005523430B4C95614FF4004522
:1041E00095614FF00065A3614FF400644E694FF490
:1041F00000533043486195619461936170BC70478E
:1042000000100240001402400018024099B300EB75
:1042100041014FF0006C2DE9F04F174D4FF07F4AF0
:10422000164C4FF000594FF40048DFF854E04FF4BB
:1042300000674FF4005630F8023BC5F818A0DA4387
:104240005FFA83FBC4F8189003F47F431204C4F8A8
:104250001880884202F47F0242EA0B02CEF818204E
:104260006A6943EA02036B61C4F818C0A761A661DA
:10427000E1D1BDE8F08F7047001002400014024009
:10428000001802402DE9F04F4FF08043BD4C83B041
:104290004FF4FA70A3614FF48046FCF7A1FE4FF093
:1042A00000524FF00063642001924FF0004A0093E7
:1042B0004FF40067A6614FF40056B34DFCF790FE33
:1042C0004FF07F43DFF8D482019A0A20AB614FF4AC
:1042D0000049AE4BA2610192C4F818A0C8F818308A
:1042E000009BD5F814C0DFF8B8B2C5F814C0A361BC
:1042F0000093A761A661FCF773FE019ADFF8A4E2C0
:104300004FF07F434FF07F41DFF89CC2AB616420E8
:10431000A261009BC4F818A0C8F818E0D5F814E012
:10432000C5F814E0A361A761A661A961A261C4F800
:104330001890C8F818C0D5F814C0C5F814C0A36107
:10434000A761A661A961A261C4F81890C8F818B065
:10435000D5F814C0C5F814C0A361A761A661A9610E
:104360008B49A261C4F81890C8F818104FF07F412B
:10437000D5F814C0C5F814C0A361A761A661A961EE
:104380008449A261C4F818A0C8F818104FF07F4102
:10439000D5F814C0C5F814C0A361A761A661A961CE
:1043A000A2610192794AC4F81890C8F81820D5F88B
:1043B00014C0C5F814C0A3610093A761A661FCF7FF
:1043C0000FFE4FF07F43019A4FF07F41AB610A200F
:1043D000704BA261C4F818A0C8F81830009BD5F83B
:1043E00014C0C5F814C0A361A761A661A9616A4998
:1043F000A261DFF8B8C1C4F81890C8F818104FF0DF
:104400007F41D5F814E0C5F814E0A361A761A66167
:10441000A961A261C4F818A0C8F818C0DFF890C15B
:10442000D5F814E0C5F814E0A361A761A661A961FD
:10443000A261C4F81890C8F818C0D5F814C0C5F81F
:1044400014C04FF47F0CA361A761A661A9614FF06E
:104450007F41A261C4F81890C8F818C0D5F814C0FC
:10446000C5F814C0A361A761A661A9614749A2610B
:10447000DFF840C1C4F81890C8F818104FF07F4119
:10448000D5F814E0C5F814E0A361A761A661A9619D
:10449000A261C4F81890C8F818C0D5F814C0C5F8BF
:1044A00014C0A361A761A661A9613849A261DFF8C0
:1044B00008C1C4F81890C8F818104FF07F41D5F81B
:1044C00014E0C5F814E0A361A761A661A961A26127
:1044D000C4F81890C8F818C0D5F814C0C5F814C0AE
:1044E0004FF47F0CA361A761A661A9614FF07F41E2
:1044F000A261C4F81890C8F818C0DFF8C0C0D5F899
:1045000014E0C5F814E0A361A761A661A961A261E6
:10451000C4F818A0C8F818C0D5F814C0C5F814C05D
:10452000A361A761A661A9611B49A261DFF890C0E0
:10453000C4F81890C8F818104FF07F41D5F814E06F
:10454000C5F814E0A361A761A661A961A261C4F8DE
:1045500018A0C8F818C0D5F814E0DFF868C0C5F88E
:1045600014E0A361A761A661A9610849A261C4F82A
:104570001890C8F818104FF07F41D5F814E0C5F82E
:1045800014E021E000140240001002400100FE008F
:104590000400FB00E0001F000300FC0000180240C4
:1045A0000200FD00E2001D001D00E200B0004F000F
:1045B0002000DF00DF0020000F00F000F0000F00FF
:1045C000E600190075008A00A361A761A661A961D0
:1045D000A261C4F81890C8F818C0D5F814E0DFF844
:1045E00044C3C5F814E0A361A761A661A961A261F3
:1045F000C4F81890C8F818C0DFF82CC3D5F814E038
:10460000C5F814E0A361A761A661A961A261C4F81D
:1046100018A0C8F818C0D5F814E0DFF810C3C5F822
:1046200014E0A361A761A661A961A261C4F8189012
:10463000C8F818B0D5F814E0C5F814E0A361A76174
:10464000A661A961A261C4F81890C8F818C0D5F88D
:1046500014E0DFF8DCC2C5F814E04FF47F0EA3616C
:10466000A761A661A9614FF07F41A261C4F81890CB
:10467000C8F818E0D5F814E0C5F814E0A361A76104
:10468000A661A961A261C4F81890C8F818C0D5F84D
:1046900014E0DFF8A0C2C5F814E0A361A761A66129
:1046A000A961A261C4F81890C8F818B0D5F814B080
:1046B000DFF884E2C5F814B04FF47F0BA361A76163
:1046C000A661A9614FF07F41A261C4F81890C8F8B3
:1046D00018B0D5F814B0C5F814B04FF47F0BA3612F
:1046E000A761A661A9614FF07F41A261C4F818904B
:1046F000C8F818B0D5F814B0C5F814B04FF47F0B53
:10470000A361A761A661A9614FF07F41A261C4F8CE
:104710001890C8F818B0D5F814B0C5F814B0A36153
:10472000A761A661A961A261C4F818A0C8F818C061
:10473000D5F814B0DFF804C2C5F814B0A361A761BE
:10474000A661A9617349A261C4F81890C8F818104D
:104750004FF07F41D5F814B0C5F814B0A361A7613C
:10476000A661A961A261C4F81890C8F818E0D5F84C
:1047700014B0DFF8CCE1C5F814B04FF47F0BA3619F
:10478000A761A661A9614FF07F41A261C4F81890AA
:10479000C8F818B0D5F814B0C5F814B0A361A76173
:1047A000A661A961A261C4F81890C8F818C0D5F82C
:1047B00014B0DFF890C1C5F814B0A361A761A66179
:1047C000A961A261C4F81890C8F818E0D5F814E0FF
:1047D000C5F814E04FF47F0EA361A761A661A9613B
:1047E0004FF07F41A261C4F81890C8F818E0D5F8DE
:1047F00014E0C5F814E04FF47F0EA361A761A66131
:10480000A9614FF07F41A261C4F81890C8F818E080
:10481000D5F814E0C5F814E0A361A761A661A96109
:10482000A2610192C4F818A0C8F818C0D5F814C045
:10483000C5F814C0A3610093A761A661FCF7D0FB83
:10484000019A35484FF07F434FF07F41DFF8F8C0C1
:10485000AB61A261C4F818A0C8F818006869009B91
:1048600068612E48A361A761A661A961A261C4F82D
:104870001890C8F81800D5F814E02948C5F814E0D5
:10488000A361A761A661A961A261C4F81890C8F8E4
:1048900018C0D5F814C0C5F814C0A361A761A661FB
:1048A000A9611C49A261C4F81890C8F818104FF00B
:1048B0007F41D5F814C0C5F814C0A361A761A661F3
:1048C000A961A261C4F81890C8F818006869686105
:1048D000A361A761A661A9614FF47F01A261C4F839
:1048E0001890C8F818104FF07F4168696861A3619B
:1048F000A761A661A961A2614FF47F02C4F8189074
:10490000C8F818206A696A61A361A761A66103B04B
:10491000BDE8F08F0100FE00BE0041000400FB0076
:104920004000BF00ED001200B4004B001400EB008B
:104930002C00D300B60049001E00E1000C00F3007B
:104940000600F9002900D600C0003F0084B008B579
:104950000DF1080C8CE80F004C226146034807F06B
:104960009DFFBDE8084004B0704700BF38920120A9
:1049700070B584B040F203234FF44056814D04AC2F
:1049800024F8043D00960223224688212846FDF79C
:1049900045FA0028F6D10A204FF44056FCF720FBD8
:1049A000784D40F20443ADF80C30009602232246C5
:1049B00088212846FDF732FA0028F6D140F20A3362
:1049C0004FF440566F4DADF80C300096022322464E
:1049D00088212846FDF722FA0028F6D144F6200364
:1049E0004FF44056674DADF80C3000960223224636
:1049F00088212846FDF712FA0028F6D102204FF44C
:104A00004056FCF7EDFA5F4D40F22113ADF80C3043
:104A100000960223224688212846FDF7FFF9002848
:104A2000F6D117234FF44056564DADF80C30009692
:104A30000223224688212846FDF7F0F90028F6D106
:104A40004AF241334FF440564E4DADF80C300096CB
:104A50000223224688212846FDF7E0F90028F6D1F6
:104A60004FF4A5734FF44056464DADF80C30009608
:104A70000223224688212846FDF7D0F90028F6D1E6
:104A800040F24B134FF440563E4DADF80C300096BB
:104A90000223224688212846FDF7C0F90028F6D1D6
:104AA0004B234FF44056374DADF80C30009602239F
:104AB000224688212846FDF7B1F90028F6D140F2B8
:104AC00056734FF440562F4DADF80C30009602232C
:104AD000224688212846FDF7A1F90028F6D14FF497
:104AE000AC734FF44056274DADF80C3000960223BE
:104AF000224688212846FDF791F90028F6D14FF487
:104B000041534FF440561F4DADF80C300096022330
:104B1000224688212846FDF781F90028F6D14FF476
:104B200045534FF44056174DADF80C300096022314
:104B3000224688212846FDF771F90028F6D14FF664
:104B40000B734FF440560F4DADF80C300096022316
:104B5000224688212846FDF761F90028F6D140F267
:104B600009134FF44056074DADF80C300096022360
:104B7000224688212846FDF751F90028F6D104B0D5
:104B800070BD00BF3892012008B505484FF4C83108
:104B900005F0A2FD0348BDE8084004F09DBE00BF3B
:104BA000A800002028E30008704700BFF0B50024EB
:104BB000A3B06822234F214608A80794224ECDE9CE
:104BC0000344CDE9054407F08DFE234622461F49E4
:104BD0001F4804F017FE4FF4887205464FF4F07139
:104BE000204603F011F94FF4887220464FF4F0711B
:104BF00003F0F2F803A92846059403F08CF8DFF8D7
:104C00005CC008A92846134B134A1396CDE910C778
:104C100003F09FF840F674722146204600929223DA
:104C20004FF4F07203F0C0FE40F6037221464FF4D9
:104C3000877300924FF48872012003F0B5FE23B011
:104C4000F0BD00BFB94100080D420008B8FE0008E1
:104C50002CFD00081D7700088170000865410008E0
:104C6000012906D108B5FFF70DFBFFF781FE0020F3
:104C700008BD4FF0FF307047024A136801331360DC
:104C8000704700BF849201200268054B9A4206D10A
:104C9000044B0549D3E90020044B08601A607047B3
:104CA0000022014078950120049401207095012094
:104CB00070B50024B4B030220926214607A807F0B9
:104CC00011FE2146842213A806940225CDE9024450
:104CD000CDE9044407F006FEFDF7C4F9224A234B50
:104CE00007A8116C41F0805111644FF48031126CAF
:104CF00002F080520092009A1A6842F440421A6010
:104D000001221B6807964FF4800603F44043089184
:104D10000C92192101934FF4C072019B0823109249
:104D200012930D951195CDE90E61FDF7DFF90F2670
:104D3000FDF7A0F94FF4A0524FF48053062102A8CA
:104D40000296CDE90523CDE90354FDF7C9FB46F2F0
:104D500020024FF4007313A813921F93CDE92B4444
:104D6000FDF7DEFC34B070BD00380240007000403A
:104D700000214FF4F0724FF4887308462DE9F04F8C
:104D800083B04FF0880901F0E5FE584B4FF0FF0863
:104D9000574E186001F0E6FE6FF07F40554D04F06D
:104DA000C3F8554C04F0D0FD002004F0BFF80020FB
:104DB00004F0B8F8052004F023F982234FF48C7036
:104DC0006FF0590249464FF0100B4FF0870AEF275A
:104DD000CDE900201A46484605F036FB082004F0CD
:104DE0000FF9464A40464946C6F80080C5F800908B
:104DF000226004F06DF9424A58465146C5F800A0B9
:104E00002260C6F800B004F063F900224846594613
:104E1000C6F8009022604FF04C09C5F800B004F0CD
:104E200057F9384B41465046C6F800A023604FF072
:104E3000C40AC5F8008004F04BF906204FF02008A2
:104E400004F0DEF8304B3846494623603760C5F839
:104E5000009004F03DF92D4B49464046C5F80090BE
:104E60002360C6F8008004F033F9294B38465146D8
:104E700037602360C5F800A004F02AF9C323254A4F
:104E80004046C6F80080194622602B6004F020F9E5
:104E9000214B41465046C6F800A02360C5F800806B
:104EA00004F016F91D4B50463946C6F800A02360A1
:104EB0002F6004F00DF94B23194A4146C5F80080D4
:104EC00018462260336004F003F9164B4846394611
:104ED000C6F8009023602F6004F0FAF8034B1868BE
:104EE00003B0BDE8F04F01F0B5BE00BFDC92012079
:104EF000AC900120B0900120A8900120DB0FC93FA9
:104F0000E4CB9640DB0F4940920A863F368DA7409E
:104F1000920A0640920A8640920A063F368D274042
:104F2000884EB8407F926A400025DFF8AC83DE4CA3
:104F30004FF0070A4FF000092DE98048ABB0DB4F76
:104F4000FCF730F8DFF894B3FFF7B2FE24952A4659
:104F50004FF40041D648CDE92255CDE92555D8F882
:104F6000303043F00403C8F83030D8F83060D14B0B
:104F700006F004061596159E1E46D8F830C011930B
:104F80004CF0200CC8F830C0D8F830C00CF0200C21
:104F9000CDF858C0DDF858C0D8F830C04CF0800CBF
:104FA000C8F830C0D8F830C00CF0800CCDF85CC028
:104FB000DDF85CC0D8F830C04CF0400CC8F830C008
:104FC000D8F830C00CF0400CCDF860C0DDF860C0FF
:104FD000D8F830C04CF0020CC8F830C0D8F830C057
:104FE0000CF0020CCDF864C0DDF864C0D8F830C015
:104FF0004CF0100CC8F830C0D8F830C00CF0100CD1
:10500000CDF868C0DDF868C0FCF7FEFD2A4608212F
:10501000A948FCF7F9FD4FF40042012322A9A44856
:1050200022922393CDE92455FCF7E8FC01230822C2
:1050300022A9A14825952292CDE92335FCF7DEFC73
:10504000D8F830002A46294640F4800C0B20C8F8D6
:1050500030C0D8F830C00CF4800CCDF84CC0DDF86E
:105060004CC0D8F830C04CF4001CC8F830C0D8F898
:1050700030C04FF000080CF4001CCDF850C0DDF833
:1050800050C0FCF747FA0B20FCF77AFA2A4629466B
:105090001120FCF73FFA1120FCF772FA2A46294644
:1050A0003820FCF737FA3820FCF76AFA834A0123E4
:1050B00083492046A560C4E90335C4E90012C4E968
:1050C0000555C4E90755FCF755FE29462046FCF76F
:1050D00075FF29462046FCF79BFF0123DFF800C23D
:1050E0004FF48031774A38463B61BB6187F83030F6
:1050F0000223BD6087F82050FD62FD607D61BA62C9
:10510000FB61C7E900C1CDE92255CDE92455FBF784
:1051100079FF0622012322A93846CDF890A0CDE9D7
:105120002223FCF723F9022322A93846CDE922A342
:10513000FCF71CF9DFF8ACC119214FF4F0625846B6
:10514000CBF80850CBF81050CBF81850CBF80C2007
:105150001E951B9528952195DFF88CA1CBE900C100
:10516000CDE92255CDE92455CDE92655CDE91F5588
:10517000CDE91C55FDF78AFF4FF480521EA9584611
:105180001E92FEF7FDFA5846FEF71CF81BA958467A
:105190001B951D95FEF79CFB4FF0600C2A4622A93B
:1051A0005846CDF888C02695CDE92355FEF744F939
:1051B000584600F055FB444ADFF830E14FF4E13C3B
:1051C0000C21104615615161C2E900ECC2E902559B
:1051D000C2E90655C2E90855FEF772FD119BDFF8DA
:1051E00010C17F21FF2218465D609D61C3F800C099
:1051F0001E95C3E90212C3E90455CDE92255CDE954
:105200002455CDE92655FDF71FFD119B41F2180CE1
:10521000012222A918468DF88A50ADF888C0CDE940
:105220002689FDF77FFD119BDFF8C8C001221846D3
:105230001EA9CDF878C0FDF75FFE29465846FEF757
:105240005BF8012221493846FBF792FF6D46FEF7D5
:1052500011FF04F1100CDFF8A0B0DFF8A090DFF828
:10526000A0801B4FBCE80F000FC5BCE80F000FC5A6
:10527000BCE80F000FC59CE8070085E8070094E82C
:105280000F00FFF763FBFFF773FB04F097FBFFF7DB
:105290006FFD2E21B4231E241A46084601F05AFC45
:1052A0000C4B18602EE000BF8C920120BC930120B3
:1052B00000180240C8940120000402405D3E3020E6
:1052C000005400400100000FEC940120789501206B
:1052D000E4E20008D8920120003802405C930120EB
:1052E000002201400004004088920120007C004020
:1052F0000028004001010100A8900120AC9001208D
:10530000B090012001F02EFC04F01EFBE24803F0F7
:10531000FFFD022003F0F2FD50228821DF4804F057
:1053200043F922A900223046FDF7B0FD1BA9002257
:105330003046FDF77BFE9DF88A509DF8893039464E
:105340009DF888201EA8009507F0D4FA40F60201C7
:10535000DAF8000000F0ABFC1EA900F0FEFB22A969
:10536000002230469DF88850FDF790FD1BA90022D1
:105370003046FDF75BFE9DF88A009DF8893039467E
:105380009DF8882000901EA807F0B4FA40F60201AC
:10539000DAF8000000F08BFC1EA900F0DEFB9DF89F
:1053A000893022A900225B10304614FB0534FDF73A
:1053B0006DFD1BA900223046FDF738FE9DF88A508E
:1053C0009DF8882039469DF889301EA8009506254D
:1053D00007F090FA40F60201DAF8000000F067FCEE
:1053E0001EA900F0BAFB9DF88A00AD4BA3FB00207C
:1053F00004EB101007EE900AF8EEE77A17EE900A29
:10540000FBF7C2F8A2A3D3E90023FBF73FFAFBF7AF
:10541000D5FBCBF80000FBF7B7F841EC100B41ECE3
:10542000180B07F091FF00229E4B51EC100BFBF77D
:1054300003F900229C4BFAF749FFFBF797FBB0EE0C
:10544000480AF0EE680AC9F8000007F0B5FE00222D
:10545000944B51EC100BFBF7EFF802460B46002083
:105460009149FAF731FFFBF781FBC8F800000020F3
:1054700003F05CFD0A2003F0C3FD8821D8F800305A
:105480000846D9F8002004F071F822A9002230461D
:10549000FDF7FCFC1BA900223046FDF7C7FD9DF877
:1054A0008A409DF8893039469DF888201EA80094CE
:1054B00007F020FA40F60201DAF8000000F0F7FBEE
:1054C0001EA900F04AFB22A9002230469DF889401F
:1054D000FDF7DCFC1BA900223046FDF7A7FD9DF877
:1054E0008A009DF8882039469DF8893000901EA8D2
:1054F00007F000FA40F60201DAF8000000F0D7FBEE
:105500001EA900F02AFB9DF88A00684BA3FB00202F
:10551000C00815FB040007EE900AF8EEE77A17EED4
:10552000900AFBF731F85AA3D3E90023FBF7AEF951
:10553000FBF744FBCBF80000FBF726F841EC100B1F
:1055400041EC180B07F000FF0022594B51EC100BF7
:10555000FBF772F80022544BFAF7B8FEFBF706FB94
:10556000B0EE480AF0EE680AC9F8000007F024FE21
:1055700000224F4B51EC100BFBF75EF802460B4636
:1055800000204949FAF7A0FEFBF7F0FAC8F800003E
:10559000284603F035FD8821D8F800300846D9F8B0
:1055A000002003F0E3FF22A900223046FDF76EFC45
:1055B0001BA900223046FDF739FD9DF88A409DF871
:1055C000893039469DF888201EA8009407F092F98A
:1055D00040F60201DAF8000000F069FB1EA900F0B5
:1055E000BCFA9DF88A0000EB4000400007EE900AEC
:1055F000F8EEE77A17EE900AFAF7C6FF24A3D3E98C
:105600000023FBF743F9FBF7D9FACBF80000FAF7D0
:10561000BBFF41EC100B41EC180B07F095FE00228C
:10562000244B51EC100BFBF707F800221E4BFAF746
:105630004DFEFBF79BFAB0EE480AF0EE680AC9F897
:10564000000007F0B9FD00221A4B51EC100BFAF7DD
:10565000F3FF02460B4600201349FAF735FEFBF72D
:1056600085FAC8F80000FF2003F060FC042003F076
:10567000C7FC8821D8F800300846D9F8002003F08C
:1056800075FF0D4B1C46186801F0E4FA206815E020
:1056900072235D1ADCA54C4094F10008F4E2000886
:1056A000898888880000494000006140CDCCCCCC7E
:1056B0000000544000805640D892012001F0ECF9DF
:1056C000E7E500BF704700BF0A4B82B01A6C42F09A
:1056D00080521A641A6C02F080520092009A5A6C3E
:1056E00042F480425A645B6C03F480430193019B53
:1056F00002B0704700380240274B0268F0B59A426A
:1057000089B04FF00004CDE90344CDE90544079486
:1057100001D009B0F0BD03F58B3306464FF440705D
:1057200003255A6C03A94FF4806742F480625A64DF
:105730005A6C02F480620192019A1A6B42F02002C4
:105740001A631B6B039003F0200314480495029323
:10575000134D029BFCF752F94FF08060DFF844C014
:105760004FF480514FF480424FF48073AC60EC6092
:10577000C5E900C02846C5E90844C5E90471C5E982
:105780000623FBF727FF18B9B563AE6309B0F0BD78
:10579000FFF798FFF8E700BF002201400014024025
:1057A000F49201201064024001680023174A70B58A
:1057B000914288B0CDE90333CDE90533079301D099
:1057C00008B070BD124C12220120C026236B0325A5
:1057D00003A943F002032363236B0492042203F022
:1057E000020305900B480193019B0396CDE90652F5
:1057F000FCF704F9236C43F400132364236C03F4D3
:1058000000130293029B08B070BD00BF005400401B
:1058100000380240000402400268044B9A4204D15E
:10582000034A136F43F40043136770470028004096
:10583000003802400268094B9A4200D0704703F5D5
:105840000D3382B01A6C42F002021A641B6C03F032
:1058500002030193019B02B0704700BF00040040A7
:10586000016800230F4A30B5914287B0CDE901337A
:10587000CDE90333059301D007B030BD0A4B0224B4
:10588000102501A91A6B094822431A631B6B019565
:105890002340029405940093009BFCF7AFF807B0F7
:1058A00030BD00BF00040040003802400004024048
:1058B000364B0268F0B59A4289B04FF00004CDE94A
:1058C0000344CDE90544079401D009B0F0BD03F5C8
:1058D000DE330225064603201A6C03A942F000427B
:1058E0001A641A6C02F000420192019A1A6B42F09B
:1058F00010021A6308221B6B039003F0100306903A
:1059000004950293224D2348029B0792FCF776F8F8
:1059100021494FF020624FF4806328466C622B616E
:10592000C5E90244C5E90544C5E90744C5E90012D3
:10593000FBF750FE18BB194C002319484FF02067A5
:1059400040214FF48062206020463567AE63636279
:10595000C4E90171C4E90332C4E90533C4E907337A
:10596000FBF738FE70B90022F4665320A663114697
:10597000FBF7D0FD5320FBF703FE09B0F0BDFFF7A6
:10598000A1FED8E7FFF79EFEEDE700BF007C0040D8
:105990000894012000100240A06002406894012099
:1059A00010600240704700BFFEE700BFFEE700BF87
:1059B000FEE700BFFEE700BF704700BF704700BFB3
:1059C000704700BF08B5FBF7F9FABDE80840FBF7E0
:1059D000FDBD00BF0148FBF73BBF00BF689401203D
:1059E0000148FBF735BF00BF089401200148FBF7D1
:1059F0002FBF00BFF49201200148FDF7DBBF00BFBD
:105A0000EC9401200C4A08B5136833B11844694678
:105A1000884209D81060184608BD08490B46116035
:105A2000694618448842F5D906F00EFF0C224FF063
:105A3000FF330260184608BDB49001201097012082
:105A4000034AD2F8883043F47003C2F888307047B4
:105A500000ED00E0DFF834D00D480E490E4A002377
:105A600002E0D458C4500433C4188C42F9D30B4A12
:105A70000B4C002301E013600432A242FBD3FFF77A
:105A8000DFFF06F0E7FEFFF74FFA70470000052042
:105A9000000000208C000020880501088C000020F8
:105AA0000C970120FEE72DE9F3410E46804604F0F5
:105AB000EDFD02AC478F456B44F8080D374468464E
:105AC00004F0F2FD2846394603F06EFA0646A0B10E
:105AD00045B904F0DBFD024602A840F8042D15701C
