:020000040800F2
:100000000000052041990008459500084995000821
:100010004D95000851950008559500080000000016
:1000200000000000000000000000000059950008DA
:100030005D950008000000006195000865950008C6
:1000400091990008919900089199000891990008E8
:1000500091990008919900089199000891990008D8
:1000600091990008919900089199000875950008E8
:1000700091990008919900089199000891990008B8
:1000800091990008819500089199000891990008BC
:100090009199000891990008919900089199000898
:1000A0009199000891990008919900089199000888
:1000B0009199000891990008919900089199000878
:1000C0009199000891990008919900089199000868
:1000D0009199000891990008919900089199000858
:1000E0009199000891990008919900089199000848
:1000F0009199000891990008919900089199000838
:100100009199000891990008919900089199000827
:100110009199000891990008919900089199000817
:100120008D9500089199000891990008919900080F
:1001300091990008919900089199000891990008F7
:1001400091990008919900089199000891990008E7
:1001500091990008919900089199000891990008D7
:1001600091990008919900089199000891990008C7
:1001700091990008919900089199000800000000E9
:1001800091990008919900089199000899950008A3
:100190009199000891990008919900089199000897
:1001A0009199000891990008919900089199000887
:1001B0009199000891990008919900089199000877
:0801C0009199000891990008D3
:1001D00010B5054C237833B9044B13B10448AFF381
:1001E00000800123237010BDFC03002000000000EC
:1001F00030B7010808B5034B1BB103490348AFF3FF
:10020000008008BD000000000004002030B7010895
:10021000034613F8012B002AFBD1181A0138704746
:1002200001F0FF01102A2BDB10F0070F08D010F8A7
:10023000013B013A8B422DD010F0070F42B3F6D1AB
:10024000F0B441EA012141EA014122F007047FF0C4
:1002500000070023F0E80256083C85EA010586EA1B
:10026000010685FA47F5A3FA87F586FA47F6A5FA57
:1002700087F68EB9EED1F0BC01F0FF0102F0070263
:1002800032B110F8013B013A83EA010313B1F8D10E
:100290000020704701387047002D06BF35460338EF
:1002A000073815F0010F07D1013015F4807F02BF28
:1002B000013015F4C03F0130F0BC0138704700BF79
:1002C00081F0004102E000BF83F0004330B54FEA07
:1002D00041044FEA430594EA050F08BF90EA020F74
:1002E0001FBF54EA000C55EA020C7FEA645C7FEA07
:1002F000655C00F0E2804FEA5454D4EB5555B8BF2A
:100300006D420CDD2C4480EA020281EA030382EA9A
:10031000000083EA010180EA020281EA0303362D2C
:1003200088BF30BD11F0004F4FEA01314FF4801CFF
:100330004CEA113102D0404261EB410113F0004F11
:100340004FEA03334CEA133302D0524263EB4303C8
:1003500094EA050F00F0A780A4F10104D5F1200E66
:100360000DDB02FA0EFC22FA05F2801841F10001C1
:1003700003FA0EF2801843FA05F359410EE0A5F195
:1003800020050EF1200E012A03FA0EFC28BF4CF0C6
:10039000020C43FA05F3C01851EBE37101F000457C
:1003A00007D54FF0000EDCF1000C7EEB00006EEB89
:1003B0000101B1F5801F1BD3B1F5001F0CD3490813
:1003C0005FEA30004FEA3C0C04F101044FEA44526A
:1003D00012F5800F80F09A80BCF1004F08BF5FEAF1
:1003E000500C50F1000041EB045141EA050130BDD1
:1003F0005FEA4C0C404141EB010111F4801FA4F174
:100400000104E9D191F0000F04BF01460020B1FAC8
:1004100081F308BF2033A3F10B03B3F120020CDA00
:100420000C3208DD02F1140CC2F10C0201FA0CF0DE
:1004300021FA02F10CE002F11402D8BFC2F1200C43
:1004400001FA02F120FA0CFCDCBF41EA0C019040F9
:10045000E41AA2BF01EB0451294330BD6FEA040442
:100460001F3C1CDA0C340EDC04F11404C4F120022D
:1004700020FA04F001FA02F340EA030021FA04F33F
:1004800045EA030130BDC4F10C04C4F1200220FA96
:1004900002F001FA04F340EA0300294630BD21FAD4
:1004A00004F0294630BD94F0000F83F4801306BF9A
:1004B00081F480110134013D4EE77FEA645C18BF8E
:1004C0007FEA655C29D094EA050F08BF90EA020F25
:1004D00005D054EA000C04BF1946104630BD91EA1D
:1004E000030F1EBF0021002030BD5FEA545C05D120
:1004F0004000494128BF41F0004130BD14F580045F
:100500003CBF01F5801130BD01F0004545F0FE41D2
:1005100041F470014FF0000030BD7FEA645C1ABF07
:10052000194610467FEA655C1CBF0B46024650EA3E
:10053000013406BF52EA033591EA030F41F400216A
:1005400030BD00BF90F0000F04BF0021704730B5F0
:100550004FF4806404F132044FF000054FF00001C5
:1005600050E700BF90F0000F04BF0021704730B586
:100570004FF4806404F1320410F0004548BF40425B
:100580004FF000013EE700BF42004FEAE2014FEAB0
:1005900031014FEA02701FBF12F07F4393F07F4F8B
:1005A00081F06051704732F07F4208BF704793F08E
:1005B0007F4F04BF41F40021704730B54FF46074A1
:1005C00001F0004521F000411CE700BF50EA0102A4
:1005D00008BF704730B54FF000050AE050EA01024D
:1005E00008BF704730B511F0004502D5404261EBBD
:1005F00041014FF4806404F132045FEA915C3FF4FE
:10060000D8AE4FF003025FEADC0C18BF03325FEA9A
:10061000DC0C18BF033202EBDC02C2F1200300FA4B
:1006200003FC20FA02F001FA03FE40EA0E0021FA70
:1006300002F11444BDE600BF70B54FF0FF0C4CF45E
:10064000E06C1CEA11541DBF1CEA135594EA0C0F10
:1006500095EA0C0F00F0DEF82C4481EA030621EA4B
:100660004C5123EA4C5350EA013518BF52EA033586
:1006700041F4801143F4801338D0A0FB02CE4FF038
:100680000005E1FB02E506F00042E0FB03E54FF068
:100690000006E1FB03569CF0000F18BF4EF0010E60
:1006A000A4F1FF04B6F5007F64F5407404D25FEA5C
:1006B0004E0E6D4146EB060642EAC62141EA55510F
:1006C0004FEAC52040EA5E504FEACE2EB4F1FD0C51
:1006D00088BFBCF5E06F1ED8BEF1004F08BF5FEACF
:1006E000500E50F1000041EB045170BD06F0004681
:1006F00046EA010140EA020081EA0301B4EB5C042E
:10070000C2BFD4EB0C0541EA045170BD41F4801125
:100710004FF0000E013C00F3AB8014F1360FDEBF4A
:10072000002001F0004170BDC4F10004203C35DA26
:100730000C341BDC04F11404C4F1200500FA05F3A9
:1007400020FA04F001FA05F240EA020001F000424A
:1007500021F0004110EBD37021FA04F642EB0601C0
:100760005EEA430E08BF20EAD37070BDC4F10C04EA
:10077000C4F1200500FA04F320FA05F001FA04F2AE
:1007800040EA020001F0004110EBD37041F100019A
:100790005EEA430E08BF20EAD37070BDC4F12005A5
:1007A00000FA05F24EEA020E20FA04F301FA05F20D
:1007B00043EA020321FA04F001F0004121FA04F2B5
:1007C00020EA020000EBD3705EEA430E08BF20EA85
:1007D000D37070BD94F0000F0FD101F000464000BF
:1007E00041EB010111F4801F08BF013CF7D041EA41
:1007F000060195F0000F18BF704703F00046520045
:1008000043EB030313F4801F08BF013DF7D043EA15
:100810000603704794EA0C0F0CEA135518BF95EACB
:100820000C0F0CD050EA410618BF52EA4306D1D152
:1008300081EA030101F000414FF0000070BD50EA71
:10084000410606BF1046194652EA430619D094EAFB
:100850000C0F02D150EA013613D195EA0C0F05D1E5
:1008600052EA03361CBF104619460AD181EA030139
:1008700001F0004141F0FE4141F470014FF00000F1
:1008800070BD41F0FE4141F4780170BD70B54FF08C
:10089000FF0C4CF4E06C1CEA11541DBF1CEA13550C
:1008A00094EA0C0F95EA0C0F00F0A7F8A4EB0504EE
:1008B00081EA030E52EA03354FEA013100F08880E5
:1008C0004FEA03334FF0805545EA131343EA1263AE
:1008D0004FEA022245EA111545EA10654FEA002663
:1008E0000EF000419D4208BF964244F1FD0404F51C
:1008F000407402D25B084FEA3202B61A65EB030578
:100900005B084FEA32024FF480104FF4002CB6EB34
:10091000020E75EB030E22BFB61A754640EA0C00B4
:100920005B084FEA3202B6EB020E75EB030E22BFF4
:10093000B61A754640EA5C005B084FEA3202B6EB35
:10094000020E75EB030E22BFB61A754640EA9C00F4
:100950005B084FEA3202B6EB020E75EB030E22BFC4
:10096000B61A754640EADC0055EA060E18D04FEA82
:10097000051545EA16754FEA06164FEAC30343EA22
:1009800052734FEAC2025FEA1C1CC0D111F4801FEF
:100990000BD141EA00014FF000004FF0004CB6E7E8
:1009A00011F4801F04BF01430020B4F1FD0C88BF87
:1009B000BCF5E06F3FF6AFAEB5EB030C04BFB6EB92
:1009C000020C5FEA500C50F1000041EB045170BD85
:1009D0000EF0004E4EEA113114EB5C04C2BFD4EBB2
:1009E0000C0541EA045170BD41F480114FF0000E36
:1009F000013C90E645EA060E8DE60CEA135594EAB2
:100A00000C0F08BF95EA0C0F3FF43BAF94EA0C0FB4
:100A10000AD150EA01347FF434AF95EA0C0F7FF429
:100A200025AF104619462CE795EA0C0F06D152EA7D
:100A300003353FF4FDAE1046194622E750EA410661
:100A400018BF52EA43067FF4C5AE50EA41047FF472
:100A50000DAF52EA43057FF4EBAE12E74FEA4102D5
:100A600012F5001215D211D56FF47873B3EB625200
:100A700012D94FEAC12343F0004343EA505311F027
:100A8000004F23FA02F018BF404270474FF00000B9
:100A9000704750EA013005D111F0004008BF6FF0F7
:100AA000004070474FF00000704700BF4FEA41021E
:100AB000B2F1E04324BFB3F5001CDCF1FE5C0DD9BC
:100AC00001F0004C4FEAC0024CEA5070B2F1004F06
:100AD00040EB830008BF20F00100704711F0804F09
:100AE00021D113F13872BCBF01F00040704741F4CE
:100AF00080114FEA5252C2F11802C2F1200C10FAD2
:100B00000CF320FA02F018BF40F001004FEAC123B5
:100B10004FEAD32303FA0CFC40EA0C0023FA02F359
:100B20004FEA4303CCE77FEA625307D150EA01332F
:100B30001EBF4FF0FE4040F44000704701F00040FF
:100B400040F0FE4040F40000704700BF53B94AB97E
:100B5000002908BF00281CBF4FF0FF314FF0FF30C5
:100B600000F072B9ADF1080C6DE904CE00F006F8A2
:100B7000DDF804E0DDE9022304B070472DE9F04719
:100B8000089E04468846002B4BD18A42154667D9F9
:100B9000B2FA82F24AB1C2F1200701FA02F320FA56
:100BA00007F7954047EA030894404FEA154E230C97
:100BB000B8FBFEF71FFA85FC0EFB178843EA0843D3
:100BC00007FB0CF1994209D9EB1807F1FF3080F0CF
:100BD0001B81994240F21881023F2B445B1AA4B258
:100BE000B3FBFEF00EFB103344EA034400FB0CFCA5
:100BF000A44509D92C1900F1FF3380F00781A445E1
:100C000040F2048102382C4440EA0740A4EB0C0473
:100C100000271EB1D4400023C6E900433946BDE891
:100C2000F0878B4209D9002E00F0EB800027C6E93F
:100C3000000138463946BDE8F087B3FA83F7002F44
:100C400047D18B4202D3824200F2FA80841A61EBD0
:100C5000030301209846002EE0D0C6E90048DDE7F6
:100C600002B9FFDEB2FA82F2002A40F08F80491BFF
:100C70004FEA154E1FFA85F80127B1FBFEFC230C45
:100C80000EFB1C1143EA014308FB0CF1994207D902
:100C9000EB180CF1FF3002D2994200F2CD8084466D
:100CA000591AA3B2B1FBFEF00EFB101443EA044440
:100CB00008FB00F8A04507D92C1900F1FF3302D238
:100CC000A04500F2B6801846A4EB080440EA0C40A8
:100CD0009FE7C7F1200CBB4022FA0CFE4EEA030E40
:100CE00001FA07F420FA0CF521FA0CF34FEA1E483A
:100CF0002543B3FBF8F92C0C08FB19331FFA8EFAC5
:100D000044EA034309FB0AF49C4202FA07F200FAA0
:100D100007F10BD91EEB030309F1FF3080F0878048
:100D20009C4240F28480A9F1020973441B1BADB2BE
:100D3000B3FBF8F008FB103345EA034400FB0AFA62
:100D4000A24508D91EEB040400F1FF336BD2A24583
:100D500069D90238744440EA0940A0FB0289A4EB37
:100D60000A044C45C2464B4654D351D0002E69D09C
:100D7000B1EB0A0564EB030404FA0CFCFD40FC40F3
:100D80004CEA0505C6E90054002747E7C2F12003F5
:100D900020FA03F7954001FA02F021FA03F34FEA33
:100DA000154E3843010CB3FBFEF71FFA85F80EFB16
:100DB000173341EA034107FB08F38B4204FA02F4BC
:100DC00007D9691807F1FF3C2FD28B422DD9023F7A
:100DD0002944CB1A81B2B3FBFEF00EFB103341EA7B
:100DE000034100FB08F38B4207D9691800F1FF3C6F
:100DF00017D28B4215D902382944C91A40EA07474D
:100E00003BE73746304609E70746E7E61846FBE684
:100E10004145ABD2B8EB020A69EB0E02013813462A
:100E2000A4E76046E9E7184695E76746D1E78146BB
:100E30007CE702382C4447E7ACF1020C2B442FE747
:100E4000384608E73746E9E6704700BF0E4A4FF4D8
:100E50007A730E491278B3FBF2F310B504460868B2
:100E6000B0FBF3F000F012FB08B90F2C01D9012000
:100E700010BD002221464FF0FF3000F0C3FA044BB2
:100E800000201C6010BD00BF0000002038000020C2
:100E90000400002008B5032000F0A0FA0020FFF7AE
:100EA000D5FF08F0B9F9002008BD00BF034A044B84
:100EB00011681B780B441360704700BF50970120E6
:100EC00000000020014B1868704700BF50970120B8
:100ED00038B50446FFF7F6FF0546631C02D0044B05
:100EE0001B781C44FFF7EEFF401BA042FAD338BD2D
:100EF00000000020002800F09280F8B5056C044640
:100F0000002D00F08280236CDB0604D50023012035
:100F100084F83C30F8BD236C4E4A4F491A40236890
:100F20004E4D42F0020222644A6822F440324A6086
:100F30004A68606802434A605A68216922F48072F4
:100F4000D4F808C0E7685A605868A66A40EA0120E9
:100F5000AE425860586820F040705860596841EAC5
:100F60000C015960996821F4006199609A6842EA1D
:100F700007029A6055D09968E06A21F07061996023
:100F80009A6816439E60996821F0405199609A686A
:100F900002439A609968A56921F0020194F8200043
:100FA00099609A6842EA45029A60002842D15A68DC
:100FB00022F400625A60D86A0026E56920F47000C5
:100FC00094F830C06A1E6769D8623046DD6A45EA27
:100FD0000255DD629D6825F400759D60996841EABF
:100FE0004C219960996821F4806199609A6842EA7D
:100FF00087229A606664236C23F0030343F00103A5
:101000002364002384F83C30F8BD08F01DF96564C2
:10101000236C84F83C50DB063FF578AF7BE701207A
:1010200070479A6822F070629A609A6822F0405283
:101030009A60AFE75868626A40F40060511E5860D9
:101040005A6822F460425A605A6842EA41325A6051
:10105000B1E700BFFDEEFFFF002301400100000FDC
:10106000F0B5044683B0002094F83C300190012B89
:1010700000F0898025680120AB6884F83C00DE0719
:1010800014D4474B474E1868AB68A6FB006043F08A
:101090000103800CAB6000EB40000190019B2BB181
:1010A00001980138019001980028F9D1A868236CB3
:1010B00010F0010044D03C48184040F48070206497
:1010C0006B68580505D5236C23F4405343F48053D3
:1010D0002364236C13F4805347D0636C23F006031E
:1010E0006364A76B1346DFF8D8E00A466FF0220C62
:1010F0002E482F49002684F83C60F96405F14C0124
:10110000C7E90FE0C5F800C038466F6847F0806750
:101110006F60AF6847F48077AF6000F06FFA254BDF
:101120002268586810F01F0013D1936813F04053E1
:101130000DD19168184641F08041916003B0F0BD37
:1011400043F010032364636C43F00103636403B052
:10115000F0BD19498A420AD05B68DB0602D4174900
:101160008A4213D0002003B0F0BD6364B9E79368EE
:1011700013F0405F03D1936843F0804393600D4BBD
:1011800000205B68E3E7022003B0F0BD886810F040
:101190004050E7D18B6843F080438B60D7E700BFB6
:1011A0003800002083DE1B43FEF8FFFFC911000852
:1011B000D911000800230140002001400022014015
:1011C000F1110008704700BF08B5806BFFF7FAFF08
:1011D00008BD00BF704700BF08B54022836B1A648A
:1011E00018465A6C42F004025A64FFF7F3FF08BD38
:1011F000836B1A6C12F0500F1A6C10B523D142F4A5
:10120000007219681A648A6812F0405F17D19A69EF
:10121000AAB9CA6A12F4700F02D08A6850050ED4B7
:101220004A6822F020024A601A6C22F480721A6422
:101230001A6CD10403D41A6C42F001021A641846E5
:1012400007F0D0FC10BDD20604D49B6BBDE8104063
:10125000DB6C18471846FFF7BDFF10BD90F83C3017
:101260000022F0B5012B83B0019200F09D800E6842
:1012700001220368B7B2092E80F83C2007EB47052E
:101280008A682FD9B6F1004F2CD01E3D4FF0070CC5
:10129000DC680CFA05FCDFF838E124EA0C0476453A
:1012A000DC6000F0848002FA05F5DA681543DD6041
:1012B0004968062901EB810226D8053A1F24596B9B
:1012C000944007FA02F221EA04015963596B0A4378
:1012D0005A633E4A934229D0002380F83C30184696
:1012E00003B0F0BD4FF0070C1C69AA4049680CFA26
:1012F00005F5062924EA05051D611D6945EA020573
:1013000001EB81021D61D8D90C2938D8A2F1230440
:101310001F25196BA54007FA04F221EA050119639C
:101320001C6B1443294A93421C63D5D1B6F1004F7C
:1013300033D0122E40D0264B9E4243D1254A244919
:1013400053688E4243F400035360C5D102F14672E4
:10135000214B02F52E321B6802F28332A2FB0323DB
:101360009B0C03EB83035B000193019B002BB3D029
:10137000019B013B0193019B002BF9D1ACE7A2F14A
:1013800041011F25DC6A8D4007FA01F224EA0504B9
:10139000DC62D96A0A43DA629BE7D2F8043323F4A9
:1013A0004003C2F8043397E7022003B0F0BDDD68C4
:1013B00045EA0265DD607BE7064A536843F4800333
:1013C000536089E7112EB9D086E700BF00200140A5
:1013D00012000010002301403800002007490002DD
:1013E000074BCA6800F4E06010B44FF6FF042240D7
:1013F0005DF8044B13431843C860704700ED00E0EC
:101400000000FA05174BDB68C3F3022330B4C3F1C5
:1014100007051C1D042D28BF0425062C18D9033BE5
:101420004FF0FF349C4022EA04044FF0FF320028C2
:1014300002FA05F221EA020101FA03F242EA040289
:101440004FEA0212D2B206DB074B1A5430BC704787
:1014500000242346E9E700F00F00044B1A5430BC87
:10146000704700BF00ED00E000E400E014ED00E094
:10147000002807DB00F01F0101234009024A8B40CE
:1014800042F82030704700BF00E100E00138B0F1C1
:10149000807F0DD2074B0022072130B4F025064C87
:1014A0005860104684F823509A60196030BC704729
:1014B0000120704710E000E000ED00E008B507F003
:1014C00089FB08BDF8B50446FFF7FCFC002C53D09F
:1014D000022223680021054684F835201A6884F822
:1014E000341022F001021A6005E0FFF7EBFC401B0C
:1014F00005283AD823681A68D107F6D4D4E9012020
:10150000E16802431F68D4E904050A430243206AE4
:10151000D4E906612A43354D32433D400A43616AAE
:101520000243042942EA050228D01A605A6922F0CF
:1015300007021143DAB22E4D5961103A2D492E4857
:10154000A5FB02521940012513090022C05C032BA0
:101550004FF03F0388BF0431E06583401046A1652A
:101560008B60626584F83550F8BD0323202218464D
:10157000626584F83530F8BD0120F8BDD4E90B511F
:10158000A76A45EA010047F0040102431A605A695C
:1015900022F007021143002DCCD07EB1B6F5005FDA
:1015A00016D0022F03D9032FC4D1EA01C2D50123DB
:1015B00040221846626584F83530F8BD012F03D00B
:1015C000F3D3022FB6D1F0E7B5F1C07FB2D1EEE789
:1015D000032FAFD801A252F827F000BFAF150008C3
:1015E000AB150008AF150008C91500083F8010F0C2
:1015F000ABAAAAAA00FCFFFFA0B70108F0B490F8BC
:101600003440012C38D0012590F83540866DAC422D
:1016100080F8345029D104680227002580F83570FD
:10162000456587682568402F25F48025256063601F
:1016300026D0A160E260C16D3F23026C8B40B36095
:10164000236843F016032360636943F080036361FA
:101650001AB1236843F0080323602268002342F094
:10166000010218462260F0BC70470022022380F875
:1016700034201846F0BC70470223F0BC184670476F
:10168000A260E160D7E700BF70B50446866DFFF742
:1016900019FC94F83530022B06D08022002301205B
:1016A000626584F8343070BD23680546216C1A6881
:1016B00022F016021A605A6922F080025A6139B388
:1016C0001A6822F008021A601A6822F001021A60F1
:1016D00005E0FFF7F7FB401B05280FD823681B68C0
:1016E00013F00103F5D1E16D3F2218468A40012134
:1016F000B26084F8343084F8351070BD03232021A3
:1017000000226165184684F8342084F8353070BDB5
:10171000A26C002AD4D1D7E790F835200346022ADC
:1017200003D0802201205A657047026805210020FD
:1017300083F83510136823F001031360704700BF6E
:10174000F0B5044683B000200822664901900E6877
:10175000D4E916739A403D682A4203D0216808688C
:10176000400759D401229A402A4203D0216849698E
:10177000080674D404229A402A4203D021680968DA
:10178000890766D410229A402A4203D0216808684B
:1017900000074BD420229A402A4214D021680868BE
:1017A000C00610D5BA6094F83520052A63D00B68BE
:1017B00013F4802F0B687ED0190340F18980E36B0E
:1017C0000BB120469847636D23B3636DDA071AD5D2
:1017D00022680521444B84F83510A3FB06361368B4
:1017E00023F00103B60A136002E01368DB0704D597
:1017F000019B0133B3420193F7D90022012384F8FE
:10180000342084F83530E36C23B1204603B0BDE8C2
:10181000F040184703B0F0BD086820F004000860ED
:10182000BA60626D42F0010262659BE7BA600A68C5
:1018300012F4802F0A6818D1D20503D40A6822F066
:1018400008020A60226C002AA4D020469047E36D6B
:10185000A0E7BA60626D42F00402626592E7BA6086
:10186000626D42F00202626584E71103EAD5A26C60
:10187000002AEAD18EE70A68206C22F016020A607C
:101880004A6922F080024A6138B30A6822F00802ED
:101890000A603F220020012102FA03F3226DBB609F
:1018A00084F8340084F83510002AB3D0204603B001
:1018B000BDE8F040104713F4807380D10A6801201E
:1018C00022F010020A6084F8343084F8350076E79C
:1018D000636C002B7FF475AF75E7A26C002AD4D13E
:1018E000D7E700BF38000020B5814E1B2DE9F04F2F
:1018F000884683B00024D1F80090DFF8F8E103E0D7
:101900000134102C00F0B6800123A34009EA030241
:101910009342F5D1D8F804506700032125F0100C4C
:10192000B9400CF1FF33C943012B10D88668C5F3C9
:10193000001306EA010AD8F80C60A340BE4046EA4C
:101940000A068660466826EA020633434360C36897
:10195000BCF1020FD8F8086003EA010306FA07F6A3
:1019600046EA0306C66015D1E30804F0070C4FF001
:101970000F0BD8F8106000EB83034FEA8C0CD3F800
:1019800020A00BFA0CFB06FA0CF62AEA0B0A46EA30
:101990000A061E62066805F003033140BB40EF00F3
:1019A00043EA01030360ABD5484B24F003064FF034
:1019B0000F0C5F6C194606F1804604F0030347F4F0
:1019C000804706F59C369B004F644F6C0CFA03F180
:1019D00007F480470197019FB76827EA01013C4F50
:1019E000B84220D007F58067B84246D0394FB84298
:1019F00048D0394FB8424AD0384FB8424CD0384F0F
:101A0000B84253D0374FB84255D0374FB84248D07C
:101A1000364FB84254D0364FB8420CBF09270A2778
:101A200007FA03F31943B160D143DEF80030EE0347
:101A300004F1010454BF0B401343AF03CEF8003050
:101A4000DEF8043054BF0B401343EE02CEF80430EE
:101A5000DEF8083054BF0B401343AD02CEF8083017
:101A6000DEF80C3054BF0B401343102CCEF80C3072
:101A70007FF44AAF03B0BDE8F08F012707FA03F304
:101A80001943D0E7022707FA03F31943CBE70327EB
:101A900007FA03F31943C6E7042707FA03F31943C8
:101AA000C1E7072707FA03F31943BCE7052707FA3D
:101AB00003F31943B7E7062707FA03F31943B2E71D
:101AC000082707FA03F31943ADE700BF00380240C7
:101AD0000000024000080240000C024000100240DA
:101AE0000014024000180240001C02400020024086
:101AF00000240240003C014002B9090481617047A2
:101B000070B504460D4616466A1C23682CD19A69A6
:101B1000900727D49A69D106F9D59A699106FCD520
:101B200020221021D961DA619A69900701D500223B
:101B30009A629A69D10703D49A6942F001029A61C4
:101B40005A6800211B4E2025012032405A60636CE8
:101B500084F8401043F00403636484F8415084F82F
:101B6000421070BD002070BD9A699207FAD49A693C
:101B7000D0061BD4FFF7A6F9801BA84201D8002D80
:101B8000C2D1636C2021002201200B4384F8402045
:101B9000636484F8411084F8422070BDFFF792F925
:101BA000801B8542EDD3002DEBD023689A69920605
:101BB000F4D5B5E700E800FE70B504460D461646BC
:101BC00023689A69920649D49A69D20626D5681C78
:101BD00038D19A699106FCD520221021D961DA61A9
:101BE0009A69900701D500229A629A69D10703D4B5
:101BF0009A6942F001029A615A680021184E202524
:101C0000012032405A60636C84F8401043F00403B2
:101C1000636484F8415084F8421070BDFFF752F9B4
:101C2000801BA84201D8002DCAD1636C202100225C
:101C300001200B4384F84020636484F8411084F849
:101C4000422070BD9A699206C6D4FFF73BF9801B0B
:101C50008542EAD3002DE8D02368B8E7002070BDA4
:101C600000E800FE00284DD0F8B590F84130044659
:101C700003F0FF02002B40D02421E568D4E90032B4
:101C800084F84110012D186822F07061A26820F0DC
:101C9000010018601961996821F40041996028D009
:101CA00042F40442022D9A6002D14FF400625A605D
:101CB0005A68002114482027A6691043D4E9042556
:101CC00058602A43D868E56942EA0622266A20F469
:101CD00000403543D8600846DA601D601A6842F05B
:101CE00001021A60616484F84170216384F8421033
:101CF000F8BD42F400429A60DAE780F8402007F02D
:101D0000FBFAB9E701207047008000022DE9F84393
:101D100090F84140089E202C6FD190F84040012C53
:101D20006BD09846012391460F4680F84030044618
:101D3000FFF7C8F8054604E0FFF7C4F8401B192870
:101D400075D82368986910F40040F5D1102221213C
:101D5000C4F82490C7F3090784F8411084F842209E
:101D60006064A4F82A80628D6063FF2A48D8618D80
:101D7000484A89B258683A43DFF824E15FFA81FCA7
:101D8000218500EA0E0142EA0C420A435A60DFF85C
:101D90001481DFF8149147EA0808638D2A4631461A
:101DA00020469BB2002B62D0FFF7AAFE00285BD131
:101DB000606A216810F8012B238D8A62628D013BD5
:101DC0006062013A9BB292B223856285628D92B2C3
:101DD000002AE2D0002BE0D1701C1DD18B691A06BD
:101DE000FCD5638DFF2B30D94B68FF2203EA090332
:101DF000228543EA08034B60CFE70220BDE8F88361
:101E00005A68FF20DFF898C0234902EA0C022085B7
:101E100039430A435A60BAE78B691B06E1D4FFF7DE
:101E200051F8401B864202D30EB12168D4E7636C9F
:101E30002021002201200B4384F84020636484F8B1
:101E4000411084F84220BDE8F883628D47F00073AA
:101E5000486892B200EA09005FFA82FC228543EAF0
:101E60000C4303434B6098E70120BDE8F883FFF77C
:101E7000A3FE0028F8D123682021084DD9615A68B3
:101E80002A405A6084F8411084F8400084F84200E7
:101E9000B4E700BF002000820020FF8100E800FEC0
:101EA000009800FC0000FF01009C00FC2DE9F843B5
:101EB00090F84140089D202C7FD190F84040012CA3
:101EC0007BD09846012391460F4680F84030044667
:101ED000FEF7F8FF064604E0FEF7F4FF801B192822
:101EE00078D82368986910F40040F5D11022222197
:101EF000C4F82490C7F3090784F8411084F84220FD
:101F00006064A4F82A80628D6063FF2A6FD8618DB7
:101F10007C4A89B258683A43DFF8F4E15FFA81FC01
:101F2000218500EA0E0142EA0C420A435A60DFF8BA
:101F3000E481DFF8E49147EA0808638D9BB26BB94E
:101F400099E09A69900600F1B680FEF7BBFF801B0E
:101F50008542C0F0A580002D00F0A28023689A6918
:101F600052075CD49A69D006EBD5691C4BD19A69AB
:101F70009206FCD520221021D961DA619A69960770
:101F800001D500229A629A69D50703D49A6942F072
:101F900001029A615A6800215B4E202501203240DF
:101FA0005A60636C84F8401043F00403636484F85F
:101FB000415084F84210BDE8F8830220BDE8F88360
:101FC00093691B0647D4FEF77DFF801B854201D332
:101FD000002D3AD1636C2021002201200B4384F8AC
:101FE0004020636484F8411084F84220E6E75A6890
:101FF000FF20DFF81CC1454902EA0C022085394365
:102000000A435A6093E79A699706B3D4FEF75AFFDA
:10201000801B8542DED3002DDCD02368A5E75A6AF9
:10202000636A1A70618D238D0139626A013B89B23E
:1020300001329BB26185618D238589B26262002B7A
:102040007FF47BAF00293FF478AF681C2268B7D1DA
:1020500093691906FCD5638DFF2B42D95368FF2184
:1020600003EA0903218543EA08035360638D9BB2A9
:10207000002B7FF473AF324629462046FFF79CFDC4
:1020800000283DD1236820211F4DD9615A682A407C
:102090005A6084F8411084F8400084F842008DE7CB
:1020A000636C202200210120134384F840106364F4
:1020B00084F8412082E79A69510702D5228D002ACF
:1020C000ADD12025104E00220120DD61596831403C
:1020D0005960626484F8402084F8415084F84220BA
:1020E0006CE7618D47F00073506889B200EA09001F
:1020F0005FFA81FC218543EA0C43034353601CE7EC
:1021000001205BE70024008200E800FE0024FF813C
:10211000009800FC0000FF01009C00FC90F841309A
:10212000DBB2202B70B41FD190F84020012A1BD0C5
:1021300002682424002680F841401568344625F0C2
:1021400001051560156825F480551560156829434B
:102150001160116841F00101116080F8406080F861
:102160004130204670BC70470224204670BC704746
:1021700090F84130DBB2202B70B41ED190F8402093
:10218000012A1AD002682424002680F841401468ED
:10219000354624F001041460146824F4706444EAA1
:1021A00001211160116841F00101116080F8406067
:1021B00080F84130284670BC70470225284670BC24
:1021C000704700BF024A136843F48073136070477E
:1021D000007000401B4A1C4B116C41F0805130B51F
:1021E000116483B0126C1C4602F080520192019A75
:1021F0001A6842F480321A60FEF764FE054605E074
:10220000FEF760FE401BB0F57A7F17D86368DA03EB
:10221000F6D523680C4D43F400332360FEF752FEDD
:10222000044605E0FEF74EFE001BB0F57A7F05D8A8
:102230006B689B03F6D5002003B030BD032003B0CC
:1022400030BD00BF0038024000700040002800F0A0
:102250004C8103682DE9F041DD0782B0044635D595
:10226000AC498A6802F00C02042A00F0FF808A68F8
:1022700002F00C02082A00F0F5806368B3F5803F95
:1022800010D0002B00F01A81B3F5A02FA14B1A68D3
:1022900000F0648122F480321A601A6822F48022ED
:1022A0001A6004E09B4A136843F480331360FEF71E
:1022B00009FE984D064605E0FEF704FE801B6428E3
:1022C00000F2EF802B689A03F6D523689F0742D46B
:1022D0001A0717D56369002B00F0B1808D4B5A6F38
:1022E0001D4642F001025A67FEF7ECFD064605E086
:1022F000FEF7E8FD801B022800F2D3806B6F9B077E
:10230000F6D523685D076BD5824B1A6CD00000F1BF
:10231000EE801A6C012542F080521A641B6C03F0A7
:1023200080530193019B7C4B1A68D10540F1A88032
:10233000A368012B39D0002B00F0DB80052B754BF7
:102340001A6F00F0138122F001021A671A6F22F04F
:1023500004021A672EE06F4A916811F00C0F63D0E7
:10236000916801F00C0108295BD0E368002B00F0B4
:10237000E180684B1A681D4642F001021A60FEF7C0
:10238000A1FD064605E0FEF79DFD801B022800F238
:1023900088802B689807F6D52B68226923F0F8030C
:1023A00043EAC2032B60236892E75A4A136F43F053
:1023B00001031367FEF786FD564E804641F28837CB
:1023C00005E0FEF77FFDA0EB0800B84269D8336F47
:1023D0009B07F6D525B14F4A136C23F08053136445
:1023E000A069D0B14B4B9A6802F00C02082A00F0A9
:1023F000C58002281A6800F0EB8022F080721C462B
:102400001A60FEF75FFD054604E0FEF75BFD401B2A
:10241000022846D823689B01F7D4002002B0BDE80B
:10242000F08152685602A0D43A4A126895073CD50A
:10243000E268012A39D0012002B0BDE8F081354BB5
:102440005A6F1D4622F001025A67FEF73BFD064611
:1024500004E0FEF737FD801B022822D86B6F9F0730
:10246000F7D44EE74A6850027FF507AF294A126851
:1024700091037FF52BAF6268002A7FF427AFDAE77C
:102480001A681E4642F480721A60FEF71BFD07466A
:102490003368DA053FF54CAFFEF714FDC01B642826
:1024A000F6D9032002B0BDE8F0811A4920690A6814
:1024B00022F0F80242EAC0020A6009E7154B1A68E6
:1024C0001D4622F480321A601A6822F480221A60B3
:1024D000FEF7F8FC064604E0FEF7F4FC801B6428D7
:1024E000DFD82B689B03F7D4EFE601207047002567
:1024F00019E7084B41F288381A6F1E4622F0010294
:102500001A671A6F22F004021A67FEF7DBFC07460F
:1025100009E000BF0038024000700040FEF7D2FC26
:10252000C01B4045BDD8336F9807F7D4002D3FF44A
:1025300057AF50E7414B1A681D4622F001021A605E
:10254000FEF7C0FC064604E0FEF7BCFC801B022838
:10255000A7D82B689907F7D42368B9E642F48022FC
:102560001A601A6842F480321A60A0E642F004024F
:102570001A671A6F42F001021A671BE701285A68AE
:102580003FF45AAF02F48003E1698B427FF453AF0A
:1025900002F03F03216A8B427FF44DAF47F6C073D0
:1025A000616A1340B3EB811F7FF445AFA36A02F465
:1025B00040315B08013BB1EB034F7FF43CAFE36A72
:1025C00002F07062B2EB036F14BF0120002033E70A
:1025D00022F080721D461A60FEF774FC064605E084
:1025E000FEF770FC801B02283FF65BAF2B68990159
:1025F000F6D4D4E90732606A1343D4E90A2143F0E0
:1026000000530E4C520843EA8013013A43EA016337
:1026100043EA02436B602B6843F080732B60FEF744
:1026200051FC054605E0FEF74DFC401B02283FF635
:1026300038AF23689A01F6D5EFE600BF00380240B4
:1026400078B15E4A136803F00F038B420BD2136814
:1026500023F00F030B431360136803F00F038B4247
:1026600001D00120704703682DE9F0419D0714D582
:102670005C0704D5524CA26842F4E052A2601A07EB
:1026800004D54F4CA26842F46042A2604C4C85686D
:10269000A26822F0F0022A43A260DF0704460D463A
:1026A00021D54268464B012A1B6863D0022A79D0A3
:1026B000990728D5424941F288388B680E4623F0A5
:1026C000030313438B60FEF7FDFB074604E0FEF7B0
:1026D000F9FBC01B404563D8B368626803F00C0384
:1026E000B3EB820FF3D1354A136803F00F03AB420B
:1026F0000CD9136823F00F032B431360136803F006
:102700000F03AB4202D00120BDE8F08123685A07D5
:1027100006D52B49E0688A6822F4E05202438A60B9
:102720001B0707D5264A2169936823F4604343EACF
:10273000C103936022498B6803F00C03042B1CD067
:10274000082B2BD14A684B6802F03F02496813F40A
:1027500080032AD11B48C1F38811A1FB0001FEF7B9
:10276000F5F9174B5B68C3F3014301335B00B0FB22
:10277000F3F303E09E039DD4C5E7134B104A134CBB
:1027800092681348C2F3031212490068A25CD34056
:102790000B60FEF75BFB0020BDE8F081094BEDE725
:1027A0000320B1E7980185D4ADE70748C1F388114C
:1027B0000023A1FB0001FEF7C9F9D2E7003C02406B
:1027C000003802400024F40040787D01D8B70108A9
:1027D0000400002038000020164908B58B6803F07B
:1027E0000C03042B1BD0082B17D14A684B6802F04E
:1027F0003F02496813F4800313D10F48C1F38811D5
:10280000A1FB0001FEF7A2F90A4B5B68C3F3014389
:1028100001335B00B0FBF3F008BD074808BD074873
:1028200008BD0648C1F388110023A1FB0001FEF793
:102830008DF9E9E7003802400024F40040787D017A
:10284000044B054A9B680549C3F382230868D35C9F
:10285000D840704700380240E8B70108380000202F
:10286000044B054A9B680549C3F342330868D35CAF
:10287000D840704700380240E8B70108380000200F
:1028800003682DE9F04313F0010683B004460BD032
:10289000B64A916821F400019160466B916831431A
:1028A000B6FA86F67609916013F4002510D0AF4988
:1028B000E56BD1F88C20B5F5801F22F4401242EA76
:1028C0000502C1F88C2000F01A82B5FA85F56D0971
:1028D000D90210D5A548216CD0F88C20B1F5800F15
:1028E00022F4400242EA0102C0F88C2000F00A8281
:1028F000002908BF012513F0807F18BF01269A0622
:1029000000F1B781D9060CD5984AD2F88C1021F085
:102910008071C2F88C10D2F88C10A06B0143C2F801
:102920008C105A0408D59149606ED1F8902022F499
:1029300040320243C1F890201F0408D58B49A06E95
:10294000D1F8902022F440220243C1F89020D8030D
:1029500008D58649E06ED1F8902022F44012024357
:10296000C1F89020990308D58049206FD1F89020B4
:1029700022F440020243C1F890205A0608D57B4950
:10298000606CD1F8902022F003020243C1F890203D
:102990001F0608D57549A06CD1F8902022F00C02D2
:1029A0000243C1F89020D80508D57049E06CD1F8F1
:1029B000902022F030020243C1F89020990508D5FA
:1029C0006A49206DD1F8902022F0C0020243C1F87C
:1029D00090205A0508D56549606DD1F8902022F401
:1029E00040720243C1F890201F0508D55F49A06DD1
:1029F000D1F8902022F440620243C1F89020D8041C
:102A000008D55A49E06DD1F8902022F44052024393
:102A1000C1F89020990408D55449206ED1F890202F
:102A200022F440420243C1F890205A0208D54F498F
:102A3000A06FD1F8902022F080620243C1F890206C
:102A40009F020CD54949E06FD1F89020B0F1006F9A
:102A500022F0006208BF01250243C1F8902013F064
:102A6000080F18BF0125580308D54049606FD1F8F9
:102A7000902022F040720243C1F89020190200F128
:102A8000ED80012E01D09A0160D5384B1A681E46A0
:102A900022F080621A60FEF715FA074605E0FEF79D
:102AA00011FAC01B642800F2D58033681B01F6D4EC
:102AB0002368DF0712D5626B82B9D6F88420D6F876
:102AC000847002F44032606807F07067A1683A438E
:102AD00042EA801242EA0172C6F884201E0304D53D
:102AE000E26BB2F5801F00F01E81D80204D5226C83
:102AF000B2F5800F00F01781D90111D51B4E606827
:102B0000D6F88420D6F8847002F07062216907F04C
:102B1000E0473A4342EA801242EA0142C6F8842082
:102B20009A0100F1F180114B1A681E4642F0806252
:102B30001A60FEF7C7F9074605E0FEF7C3F9C01BA8
:102B4000642800F2878033681B01F6D5012D03D07D
:102B5000002003B0BDE8F083044B1A681D4622F044
:102B600080521A60FEF7AEF9064606E000380240D1
:102B7000FEF7A8F9801B64286CD82B689F00F7D457
:102B800023681D0301D5E26B1AB1D8021DD5226C52
:102B9000DAB982496569D1F88820D1F8886002F4F1
:102BA0004032A06906F0E046324342EA851242EA2A
:102BB0000062C1F88820D1F88C20A06A22F4F85273
:102BC000013842EA0022C1F88C20990215D5E26F43
:102BD000B2F1006F11D171496569D1F88820D1F83F
:102BE000886002F07062206A06F0E046324342EAF2
:102BF000851242EA0042C1F888201A0719D5674AAF
:102C00006569D2F88810D2F8883001F07061E06907
:102C100003F440330B4343EA851343EA0073C2F8DD
:102C20008830D2F88C30E16A23F440330B43C2F889
:102C30008C305A4B1A681C4642F080521A60FEF7DC
:102C400041F9054623689B0082D4FEF73BF9401BFF
:102C50006428F7D9032003B0BDE8F0834F49D4F8C6
:102C60008000D1F8902022F080520243C1F89020D9
:102C700007E74A4A4A4B116C1F4641F080511164E4
:102C8000126C02F080520192019A1A6842F480722A
:102C90001A60FEF717F9804605E0FEF713F9A0EB7E
:102CA00008006428D6D83B68DB05F6D53B4A236B81
:102CB000116F03F4407011F4407110D081420ED0B6
:102CC000116F176F21F4407147F480371767176F42
:102CD00027F4803717671167116FCF0748D4B0F515
:102CE000407F3CD02D498A6822F4F8128A602B4A32
:102CF000C3F30B03116F0B431367236802E6002530
:102D00000126E5E50126F6E5236962681B04D4E99E
:102D1000021043EA8213214A43EA006343EA017343
:102D2000C2F88430FFE61D4E6068D6F88420D6F8DD
:102D3000847002F44032E16807F0E0473A4342EA27
:102D4000801242EA0162C6F88420D6F88C10626ACA
:102D500021F01F01013A0A43C6F88C20CCE60F4847
:102D600010498268194022F4F8120A438260BEE7D3
:102D7000174641F28838FEF7A5F8814606E0FEF7CF
:102D8000A1F8A0EB090040453FF664AF3B6F980700
:102D9000F5D5236B03F44070A1E700BF0038024073
:102DA00000700040FFFCFF0F002866D0F8B5437F9D
:102DB000044603F0FF02002B43D023685322022075
:102DC000CA21607759625A62DA68550627D5986831
:102DD000256962682A492A43014060699960024373
:102DE0009D68D4E902102A439A6018611A6942EA80
:102DF00001421A61DA6822F08002DA609A6891066C
:102E000023D5D96CFF26A769012521F008010020F0
:102E1000D964DA6C3A43DA645E626577F8BD4FF0E4
:102E2000FF32DA60FEF74EF8054605E0FEF74AF895
:102E3000401BB0F57A7F19D82368DA685006F5D5BB
:102E4000C5E7027706F0B8FAB7E7DA6822F0A00221
:102E5000DA60FEF737F805462368DA689206D0D4C0
:102E6000FEF730F8401BB0F57A7FF5D92268FF21D4
:102E70000423012051626377F8BD0120704700BF31
:102E8000BFFF8FFF2DE9F843037F012B00F08C80FB
:102E90000D46022301210668437704460177B7688F
:102EA000002A30D017F040077AD02F7B3F04687893
:102EB0002A780002AB7840EA024018430743CA224E
:102EC000532372627362F3685A064DD5464A2B69E2
:102ED0003A40696932600B43B26822F48022B260E2
:102EE000B2681343B360F36823F08003F360B36800
:102EF0009B065CD50023FF21012218467162627790
:102F00002377BDE8F88317F040074BD02F7B3F04B1
:102F10002B780021092B06D90A3B0131DBB2092BA2
:102F2000FAD80901C9B219436B780020092B4FEA7E
:102F3000014106D90A3B0130DBB2092BFAD8000166
:102F4000C0B20343A87809284FEA032349D90A38B5
:102F50000132C0B20928FAD81201D2B20F4310438D
:102F60003B4343EA0007AAE74FF0FF33F360FDF766
:102F7000A9FF81462668F36813F04008A6D1FDF743
:102F8000A1FFA0EB0900B0F57A7FF3D92268FF21F9
:102F900004230120516284F81C806377BDE8F88324
:102FA0002F7384E72F73B3E70220BDE8F883F3683B
:102FB00023F0A003F360FDF785FF07462668F56858
:102FC00015F0200596D1FDF77DFFC01BB0F57A7F87
:102FD000F4D92268FF210423012051622577637709
:102FE0008FE70022BAE700BF7F7F7F00F8B5037F3D
:102FF000012B74D00546022301206B7728770E78C9
:10300000CB78760348788C788ABBC70604D520F045
:1030100010000A30C0B24870092B4FF0000106D9E9
:103020000A3B0131DBB2092BFAD80901C9B20B43C3
:1030300009284FF000014FEA034306D90A3801314D
:10304000C0B20928FAD80901C9B20843092C4FEACD
:10305000002160D90A3C0132E4B2092CFAD81201ED
:10306000D0B21E43044346EA0100044304E046EAAA
:1030700003431C4344EA00242B68CA2153225962AB
:103080005A62DA68510611D5244A22405A60DA6839
:1030900022F08002DA609A68920622D50022FF2090
:1030A00001215862104669772A77F8BD4FF0FF3248
:1030B000DA60FDF707FF06462B68DF6817F0400768
:1030C000E2D1FDF7FFFE801BB0F57A7FF4D92A68C4
:1030D000FF210423012051622F776B77F8BD022076
:1030E000F8BDDA6822F0A002DA60FDF7EBFE0646D2
:1030F0002B68DC6814F02004D0D1FDF7E3FE801BC0
:10310000B0F57A7FF4D92A68FF21042301205162A7
:103110002C776B77F8BD0020A3E700BF3FFFFF00CF
:1031200000287BD0F8B590F83D30044603F0FF024C
:10313000002B3BD022680220414E424FB2F1804F1B
:10314000A2EB060684F83D00A2EB07071368B6FA67
:1031500086F6B7FA87F74FEA56164FEA57172AD07E
:103160004EBB39498A425BD001F580618A4257D013
:1031700001F580618A4258D0002F56D133498A42E6
:103180001ED001F580618A421AD001F580618A4221
:1031900016D0A1F598318A4212D001F580618A4299
:1031A0000ED001F580618A420ED109E080F83C2002
:1031B00006F010F9BEE723F07005A06845EA0003A9
:1031C00023F4407320690343A16923F08003E0687E
:1031D0000B4361681360D0629162E6B9DFB90123E5
:1031E0000020536184F8483084F83E3084F83F3042
:1031F00084F8403084F8413084F8423084F8433019
:1032000084F8443084F8453084F8463084F84730F8
:1032100084F83D30F8BD63691363E0E7012070472F
:1032200023F07003A1680B43CAE7094923F0700338
:10323000A0688A4243EA0003C2D0002FC0D19DE7B4
:103240000000014000040140000400400040014033
:10325000000C0040704700BF00287BD0F8B590F804
:103260003D30044603F0FF02002B3BD022680220D1
:10327000414E424FB2F1804FA2EB060684F83D006A
:10328000A2EB07071368B6FA86F6B7FA87F74FEA94
:1032900056164FEA57172AD04EBB39498A425BD09F
:1032A00001F580618A4257D001F580618A4258D089
:1032B000002F56D133498A421ED001F580618A42DF
:1032C0001AD001F580618A4216D0A1F598318A4260
:1032D00012D001F580618A420ED001F580618A42E8
:1032E0000ED109E080F83C20FFF7B4FFBEE723F0E1
:1032F0007005A06845EA000323F440732069034386
:10330000A16923F08003E0680B4361681360D06219
:103310009162E6B9DFB901230020536184F8483097
:1033200084F83E3084F83F3084F8403084F84130EF
:1033300084F8423084F8433084F8443084F84530CF
:1033400084F8463084F8473084F83D30F8BD63692E
:103350001363E0E70120704723F07003A1680B437B
:10336000CAE7094923F07003A0688A4243EA0003D0
:10337000C2D0002FC0D19DE70000014000040140F1
:103380000004004000400140000C004000294BD1E7
:1033900090F83E30012B5BD1022380F83E30036869
:1033A000012201F01F01186A02FA01F120EA01006E
:1033B00010B418623E4C1A6AA34241EA0201196233
:1033C00048D03C4A934245D03B4A3C4C934218BFBC
:1033D000B3F1804F3A483B490CBF01220022A3427F
:1033E00008BF42F00102834208BF42F001028B4253
:1033F00008BF42F001023AB900F54060181AB0FA6D
:1034000080F04009002846D099682F4A0A40062AD1
:1034100029D0B2F5803F26D01A68002042F0010280
:103420001A605DF8044B7047042920D0082926D083
:103430000C2909D0102933D090F84330012B07D143
:10344000022380F84330AAE790F84130012B1ED0C8
:10345000012070475A6C42F400425A641A4A996833
:103460000A40062AD5D100205DF8044B704790F839
:103470003F30012BECD1022380F83F308FE790F8EA
:103480004030012BE4D1022380F8403087E702234B
:1034900080F8413083E71A6842F001021A60C0E701
:1034A00090F84230012BD3D1022380F8423076E7E6
:1034B00000000140000401400004004000080040FA
:1034C000000C0040004001400700010090F83C3033
:1034D000012B00F053810123F0B480F83C30142A12
:1034E00043D8DFE812F015004200420042007D00A0
:1034F000420042004200E600420042004200B100A9
:1035000042004200420019014200420042004800CD
:103510000368D1F808C01D6A0F6825F00105B04C9A
:103520001D621A6A5E689D6922F002022C40AD4D50
:1035300042EA0C02AB4244EA070400F02D8105F593
:103540008065AB4200F028814D685E609C615D63E0
:103550001A629C690D6944F008049C61996921F024
:10356000040199619A692A439A610023F0BC80F8AA
:103570003C301846704703688E681D6A0F6825F452
:103580008015994C1D621A6A5D6822F40012D3F806
:1035900054C042EA0652934E0CEA0404B34244EA91
:1035A000072400F0ED8006F58066B34200F0E88065
:1035B0004E685D605C65DE651A625C6D0D6944F4A1
:1035C00000645C65596D21F4806159655A6D42EA69
:1035D00005225A650023F0BC80F83C30184670473D
:1035E0000368D1F808C01D6A0F6825F010057F4CEC
:1035F0001D621A6A5E689D6922F020022C40794D96
:1036000042EA0C12AB4244EA072400F0D98005F5E7
:103610008065AB4200F0D4804D685E609C619D6324
:103620001A629C690D6944F400649C61996921F4F3
:10363000806199619A6942EA05229A610023F0BC8F
:1036400080F83C301846704703688E681D6A0F6822
:1036500025F48055654C1D621A6A5D6822F400529B
:10366000D3F81CC042EA06325E4E0CEA0404B342B0
:1036700044EA072400F09E8006F58066B34200F01D
:1036800099804E685D60DC611E641A62DC690D69B8
:1036900044F40064DC61D96921F48061D961DA699C
:1036A00042EA0522DA610023F0BC80F83C3018467B
:1036B00070470368D1F808C01D6A0F6825F480754B
:1036C000474C1D621A6A5E68DD6922F400722C4064
:1036D000444D42EA0C22AB4244EA070400F08A80DF
:1036E00005F58065AB4200F085804D685E60DC6169
:1036F000DD631A62DC690D6944F00804DC61D96994
:1037000021F00401D961DA692A43DA610023F0BCAF
:1037100080F83C301846704703688E681D6A0F6851
:1037200025F48035324C1D621A6A5D6822F400323D
:10373000D3F854C042EA06422A4E0CEA0404B342CB
:1037400044EA070422D006F58066B3421ED04E68D4
:103750005D605C659E651A625C6D0D6944F00804ED
:103760005C65596D21F0040159655A6D2A435A650B
:103770000023F0BC80F83C301846704702207047A8
:1037800025F480254E6945EA862511E725F4803524
:103790004E6945EA0625DAE726F4407C22F0080265
:1037A0008E69CF684D693A43354322F0040245EAF9
:1037B0000C06C9E625F480454E6945EA861560E7A2
:1037C00026F4406C22F080028E69CF684D6942EA8F
:1037D0000712354322F040024CEA85061CE700BF81
:1037E0008CFFFEFF00000140FF8FFFFEFF8CFFFEFD
:1037F0008FFFFEFF26F4405C22F400628E69CF68E2
:103800004D6942EA0722354322F480624CEA0516EC
:103810006BE700BF90F83C30012B5BD002460220E2
:10382000136870B482F83D00012598684C4C82F80A
:103830003C500440086840289C6076D04CD96028F1
:103840002FD058D970281BD0B0F5005F0FD1CC68AD
:10385000D1E9015040EA0501986841EA042120F4C9
:103860007F4001439960996841F480419960002349
:103870000121184682F83D1082F83C3070BC704738
:10388000D1E90150CC6840EA0501986841EA042179
:1038900020F47F4001439960996841F07701996075
:1038A000E5E71C6A4D6824F01004CE681C62986934
:1038B000196A20F4704021F0A00140EA063041EA84
:1038C000051198611962996821F0700141F0670152
:1038D0009960CCE702207047102804D03DD92028F9
:1038E00001D03028C3D1996840F0070021F0700161
:1038F00008439860BBE75028B9D11D6A1C6A486824
:1039000025F00A0524F00104CE6828431C62996959
:1039100021F0F00141EA061199611862996821F0DD
:10392000700141F057019960A1E71D6A1C6A48685F
:1039300025F00A0524F00104CE6828431C62996929
:1039400021F0F00141EA061199611862996821F0AD
:10395000700141F04701996089E70028C3D086E7EC
:103960008800FEFF90F83C30012B4BD00368274ABB
:10397000F0B4274E02250124934218BFB34280F8C9
:103980003D5080F83C4008BF01265C6818BF002607
:103990009D6803D124F470044A6814431D4A24F03E
:1039A00070040F68934218BFB3F1804FDFF870C006
:1039B00044EA0704184F0CBF012200225C606345F3
:1039C00008BF42F00102154CBB4208BF42F00102A1
:1039D00007F59A37BB4208BF42F00102A34208BF75
:1039E00042F0010202B926B18A6825F0800515432C
:1039F0009D600023012280F83C3080F83D2018466D
:103A0000F0BC704702221046704700BF000401401E
:103A10000000014000040040000C0040001800407D
:103A200000080040704700BF704700BF08B5002283
:103A3000836BA3F85A201846A3F85220FFF7F4FF2F
:103A400008BD00BF704700BF036840F60F01DA6988
:103A50000A4270B51E6804469D6868D015F00105DD
:103A60006CD0D10709D5F00507D501211962D4F82A
:103A7000801041F00101C4F88010910700F1B98075
:103A8000510702D5002D40F0C280100705D5B106C0
:103A900000F1C680002D40F0C38015050AD57001E5
:103AA00008D54FF400611962D4F8801041F020016C
:103AB000C4F88010D4F8801000293ED0910602D5B9
:103AC000B20600F1BA80D4F8805099684E0603D44B
:103AD00015F0280500F0B9801A6822F490721A6077
:103AE0009A6822F001029A60226E012A03D11A68B4
:103AF00022F010021A6020210022E16722669968F4
:103B000062664D0640F195809A68216F22F040026E
:103B10009A60002900F08D80604B08460B65FDF728
:103B2000FBFD50B1206FBDE87040036D1847910652
:103B300007D5B50605D5436EF3B970BD58490E4299
:103B40008FD1216E01291AD015060FD45106F4D554
:103B50007206F2D51A6820250021204622F0400284
:103B60001A60A567A166FFF75DFF70BD3006EDD551
:103B7000A36E002BE1D02046BDE870401847D00668
:103B8000E2D5F106E0D510221A629A6812F04002DE
:103B900061D0206F0268526892B2002ACDD0B4F88A
:103BA00058109142C9D9C569A4F85A20B5F5807F4B
:103BB00017D01A680021202522F480721A609A68B2
:103BC00022F001029A609A6822F040029A60E5674A
:103BD00021661A6822F010021A60FDF755FDB4F84C
:103BE0005810B4F85A302046C91A89B2FFF72AFF94
:103BF00070BD002D3FF449AF022150071962D4F87F
:103C0000801041F00401C4F880107FF53EAF04211C
:103C10001962D4F8801041F00201C4F8801034E732
:103C200008211962D4F8801041F00801C4F880100E
:103C300033E72046FFF7F8FE70BD626E002A3FF4BE
:103C400042AF2046904723683DE72046FFF7ECFE51
:103C5000C4F8805070BDB4F85A50B4F85810B4F895
:103C60005A00491B80B289B200283FF466AF002990
:103C70003FF463AF1D682026204625F490751D6033
:103C80009D6825F001059D60E66722661D686266F5
:103C900025F010051D60FFF7D5FE70BD2D3A000818
:103CA00020010004436ADA0710B406D50168846A6B
:103CB0004A6822F4003222434A609C0706D5016814
:103CC000C46A4A6822F4803222434A60590706D502
:103CD0000168046B4A6822F4802222434A601A0772
:103CE00006D50168446B4A6822F4004222434A60C8
:103CF000DC0606D50168846B8A6822F48052224370
:103D00008A60990606D50168C46B8A6822F400525D
:103D100022438A605A060AD50168046C4A68B4F5E1
:103D2000801F22F4801242EA04024A600BD01B0674
:103D300006D50268816C536823F400230B4353605B
:103D40005DF8044B70474A68446C22F4C002224379
:103D50004A60ECE700284FD0836F70B50446002B13
:103D600045D0236824212069A167A268196802430D
:103D7000606921F00101BA4D0243E06919601968D8
:103D80000243E6680D40A1692A43256A1A6041EAA8
:103D900005025968B34D21F44051AB4241EA060196
:103DA0005960996821F4306142EA01029A6025D095
:103DB000AD4A934244D0AD4A934200F0E980AC4A08
:103DC000934245D0AB4A934200F0F180AA4A934215
:103DD00000F07181A94A934200F08081A84A934281
:103DE00000F02D8100230120C4E9193370BD80F853
:103DF000743005F02DFBB4E701207047A14BA24AB7
:103E0000D3F8903003F00303D35CB0F5004F30D00B
:103E1000082BE7D801A252F823F000BF753F000835
:103E2000AD3E0008AB3F0008E53D0008C53F000877
:103E3000E53D0008E53D0008E53D0008CB3F0008F2
:103E4000904B924AD3F8903003F00C03D35CDCE73C
:103E50008C4BD3F8903003F0C003402B00F0AF80C0
:103E600040F28280802B00F09D80C02B00F0B88053
:103E7000B8E7082BB6D801A252F823F03940000861
:103E80002340000835400008E53D00082F400008A9
:103E9000E53D0008E53D0008E53D0008E73F000876
:103EA000002B9FD1B0F5004F00F0BB80FEF7D8FC8F
:103EB000002863D063684FF6EF7200EB5300B0FB4D
:103EC000F3F080B2A0F1100393428BD82268002354
:103ED000D060C4E91933636A002B55D123680021EF
:103EE0005A6822F490425A609A6822F02A029A6034
:103EF0001A6842F001021A60C4F88010FCF7E2FF71
:103F0000236806461A68100708D4002320221846A2
:103F1000A26784F87430E267236670BDDD6915F42A
:103F20000015F2D1FCF7CEFF801B2368B0F1007FB3
:103F300080F0B2801A685107F0D5DA691205EDD524
:103F40004FF40061202203201962196821F4D07116
:103F50001960996821F001019960A26784F8745092
:103F6000E267C4F8802070BD002B7FF43BAFB0F552
:103F7000004F61D0FEF764FC00289BD10023C4E908
:103F80001933636A002BA9D02046FFF78BFEA5E703
:103F90003C4BD3F8903003F03003102B0FD0E3D913
:103FA000202B3BD1B0F5004F44D0394882E7354B48
:103FB000D3F8903003F44073B3F5807F08D1B0F5A7
:103FC000004F34D0FEF708FC72E74FF4004071E771
:103FD000CAD9B3F5007FE5D0B3F5407F7FF402AFD7
:103FE000B0F5004FF1D14FF4803362684FF6EF71B6
:103FF00003EB5203B3FBF2F39AB2A2F11000884232
:104000003FF6F0AE23F00F03C2F342022068002116
:104010009BB21343C360C4E919115CE7302BDFD0B6
:10402000E0E6FEF71DFC0028A8D04300DDE7FEF720
:10403000D3FBF8E7174BD8E7FEF702FCF3E7114B89
:10404000D3F8903003F44043B3F5804FB7D08BD909
:10405000B3F5004FA6D0B3F5404FC1D0C2E600BFC4
:10406000F369FFEF001001400044004000480040A9
:10407000004C004000500040001401400078004017
:10408000007C004000380240A8B70108ACB7010826
:104090000024F4000048E8011A682021032022F4DB
:1040A000D0721A609A6822F001029A60A16784F8BF
:1040B0007450E16770BD134BD3F8903003F4406344
:1040C000B3F5806F3FF47BAF7FF6EAAEB3F5006FD8
:1040D0003FF468AFB3F5406F82D083E6094BD3F865
:1040E000903003F44053B3F5805F3FF468AF7FF640
:1040F0003BAFB3F5005F3FF455AFB3F5405F3FF41E
:104100006FAF6FE600380240374B00224FF4784122
:104110002DE9F0431D6B8BB0344C164645F48055A9
:10412000DFF8CC902046DFF8CC801D6301271D6BA3
:1041300005F480550195019D1D6B45F010051D632B
:104140001D6B05F010050295029D1D6B45F02005C5
:104150001D631D6B05F020050395039D1D6B45F048
:1041600040051D6303251B6B03F040030493049B70
:10417000FDF7C2FC48463246FF21FDF7BDFC324642
:1041800040464FF47F41FDF7B7FC4FF4784320469B
:1041900005A9CDE90537CDE90765FDF7A7FBFF23A5
:1041A000484605A908950593CDE90676FDF79EFBDF
:1041B0004FF47F4305A9404608954FF400550593F9
:1041C000CDE90676FDF792FB4FF400604FF4805185
:1041D0004FF400424FF48043A561A061A161A26148
:1041E000A3610BB0BDE8F083003802400014024028
:1041F0000018024000100240C3431149114A1B0439
:1042000070B44FF07F45C4B203F47F0300F47F40E5
:104210008D614FF0005523430B4C95614FF00045E5
:1042200095614FF00065A3614FF400644E694FF44F
:1042300000533043486195619461936170BC70474D
:10424000001002400014024000180240C34311490C
:10425000114A1B0470B44FF07F45C4B203F47F03CE
:1042600000F47F408D614FF0005523430B4C956166
:104270004FF4004595614FF00065A3614FF4006471
:104280004E694FF4005330434861956194619361E6
:1042900070BC704700100240001402400018024039
:1042A00099B300EB41014FF0006C2DE9F04F174D31
:1042B0004FF07F4A164C4FF000594FF40048DFF89A
:1042C00054E04FF400674FF4005630F8023BC5F855
:1042D00018A0DA435FFA83FBC4F8189003F47F4315
:1042E0001204C4F81880884202F47F0242EA0B02EA
:1042F000CEF818206A6943EA02036B61C4F818C05B
:10430000A761A661E1D1BDE8F08F704700100240BF
:1043100000140240001802402DE9F04F4FF0804396
:10432000BD4C83B04FF4FA70A3614FF48046FCF7A4
:10433000CFFD4FF000524FF00063642001924FF028
:10434000004A00934FF40067A6614FF40056B34D46
:10435000FCF7BEFD4FF07F43DFF8D482019A0A20BC
:10436000AB614FF40049AE4BA2610192C4F818A0B2
:10437000C8F81830009BD5F814C0DFF8B8B2C5F8FB
:1043800014C0A3610093A761A661FCF7A1FD019A87
:10439000DFF8A4E24FF07F434FF07F41DFF89CC28B
:1043A000AB616420A261009BC4F818A0C8F818E0B3
:1043B000D5F814E0C5F814E0A361A761A661A9616E
:1043C000A261C4F81890C8F818C0D5F814C0C5F890
:1043D00014C0A361A761A661A961A261C4F8189085
:1043E000C8F818B0D5F814C0C5F814C0A361A76107
:1043F000A661A9618B49A261C4F81890C8F8181089
:104400004FF07F41D5F814C0C5F814C0A361A7616F
:10441000A661A9618449A261C4F818A0C8F818105F
:104420004FF07F41D5F814C0C5F814C0A361A7614F
:10443000A661A961A2610192794AC4F81890C8F8EE
:104440001820D5F814C0C5F814C0A3610093A76163
:10445000A661FCF73DFD4FF07F43019A4FF07F418D
:10446000AB610A20704BA261C4F818A0C8F81830DC
:10447000009BD5F814C0C5F814C0A361A761A6615C
:10448000A9616A49A261DFF8B8C1C4F81890C8F8F8
:1044900018104FF07F41D5F814E0C5F814E0A3617F
:1044A000A761A661A961A261C4F818A0C8F818C0E4
:1044B000DFF890C1D5F814E0C5F814E0A361A76156
:1044C000A661A961A261C4F81890C8F818C0D5F80F
:1044D00014C0C5F814C04FF47F0CA361A761A66196
:1044E000A9614FF07F41A261C4F81890C8F818C0C4
:1044F000D5F814C0C5F814C0A361A761A661A9616D
:104500004749A261DFF840C1C4F81890C8F81810F4
:104510004FF07F41D5F814E0C5F814E0A361A7611E
:10452000A661A961A261C4F81890C8F818C0D5F8AE
:1045300014C0C5F814C0A361A761A661A961384978
:10454000A261DFF808C1C4F81890C8F818104FF03D
:104550007F41D5F814E0C5F814E0A361A761A66116
:10456000A961A261C4F81890C8F818C0D5F814C0A1
:10457000C5F814C04FF47F0CA361A761A661A961BF
:104580004FF07F41A261C4F81890C8F818C0DFF856
:10459000C0C0D5F814E0C5F814E0A361A761A66116
:1045A000A961A261C4F818A0C8F818C0D5F814C051
:1045B000C5F814C0A361A761A661A9611B49A261E6
:1045C000DFF890C0C4F81890C8F818104FF07F4179
:1045D000D5F814E0C5F814E0A361A761A661A9614C
:1045E000A261C4F818A0C8F818C0D5F814E0DFF824
:1045F00068C0C5F814E0A361A761A661A961084974
:10460000A261C4F81890C8F818104FF07F41D5F88F
:1046100014E0C5F814E021E000140240001002404C
:104620000100FE000400FB00E0001F000300FC008E
:10463000001802400200FD00E2001D001D00E20023
:10464000B0004F002000DF00DF0020000F00F0006E
:10465000F0000F00E600190075008A00A361A76151
:10466000A661A961A261C4F81890C8F818C0D5F86D
:1046700014E0DFF844C3C5F814E0A361A761A661A4
:10468000A961A261C4F81890C8F818C0DFF82CC35B
:10469000D5F814E0C5F814E0A361A761A661A9618B
:1046A000A261C4F818A0C8F818C0D5F814E0DFF863
:1046B00010C3C5F814E0A361A761A661A961A26156
:1046C000C4F81890C8F818B0D5F814E0C5F814E08C
:1046D000A361A761A661A961A261C4F81890C8F896
:1046E00018C0D5F814E0DFF8DCC2C5F814E04FF4C8
:1046F0007F0EA361A761A661A9614FF07F41A2610E
:10470000C4F81890C8F818E0D5F814E0C5F814E01B
:10471000A361A761A661A961A261C4F81890C8F855
:1047200018C0D5F814E0DFF8A0C2C5F814E0A36102
:10473000A761A661A961A261C4F81890C8F818B071
:10474000D5F814B0DFF884E2C5F814B04FF47F0B4D
:10475000A361A761A661A9614FF07F41A261C4F87E
:104760001890C8F818B0D5F814B0C5F814B04FF4C4
:104770007F0BA361A761A661A9614FF07F41A26190
:10478000C4F81890C8F818B0D5F814B0C5F814B02B
:104790004FF47F0BA361A761A661A9614FF07F4130
:1047A000A261C4F81890C8F818B0D5F814B0C5F8CC
:1047B00014B0A361A761A661A961A261C4F818A0A1
:1047C000C8F818C0D5F814B0DFF804C2C5F814B0A2
:1047D000A361A761A661A9617349A261C4F8189099
:1047E000C8F818104FF07F41D5F814B0C5F814B0D0
:1047F000A361A761A661A961A261C4F81890C8F875
:1048000018E0D5F814B0DFF8CCE1C5F814B04FF4D7
:104810007F0BA361A761A661A9614FF07F41A261EF
:10482000C4F81890C8F818B0D5F814B0C5F814B08A
:10483000A361A761A661A961A261C4F81890C8F834
:1048400018C0D5F814B0DFF890C1C5F814B0A36152
:10485000A761A661A961A261C4F81890C8F818E020
:10486000D5F814E0C5F814E04FF47F0EA361A761FA
:10487000A661A9614FF07F41A261C4F81890C8F801
:1048800018E0D5F814E0C5F814E04FF47F0EA361EA
:10489000A761A661A9614FF07F41A261C4F8189099
:1048A000C8F818E0D5F814E0C5F814E0A361A761D2
:1048B000A661A961A2610192C4F818A0C8F818C045
:1048C000D5F814C0C5F814C0A3610093A761A66110
:1048D000FCF7FEFA019A35484FF07F434FF07F41D5
:1048E000DFF8F8C0AB61A261C4F818A0C8F81800DE
:1048F0006869009B68612E48A361A761A661A961F0
:10490000A261C4F81890C8F81800D5F814E0294836
:10491000C5F814E0A361A761A661A961A261C4F80A
:104920001890C8F818C0D5F814C0C5F814C0A36111
:10493000A761A661A9611C49A261C4F81890C8F8D2
:1049400018104FF07F41D5F814C0C5F814C0A3610A
:10495000A761A661A961A261C4F81890C8F81800FF
:1049600068696861A361A761A661A9614FF47F01CD
:10497000A261C4F81890C8F818104FF07F41686918
:104980006861A361A761A661A961A2614FF47F027A
:10499000C4F81890C8F818206A696A61A361A76111
:1049A000A66103B0BDE8F08F0100FE00BE0041002B
:1049B0000400FB004000BF00ED001200B4004B00FB
:1049C0001400EB002C00D300B60049001E00E100EB
:1049D0000C00F3000600F9002900D600C0003F00DB
:1049E00084B008B50DF1080C8CE80F004C2261462C
:1049F000034816F070FABDE8084004B0704700BFE5
:104A00005497012070B584B040F203234FF4405610
:104A1000814D04AC24F8043D0096022322468821EF
:104A20002846FDF773F90028F6D10A204FF44056C6
:104A3000FCF74EFA784D40F20443ADF80C30009686
:104A40000223224688212846FDF760F90028F6D186
:104A500040F20A334FF440566F4DADF80C300096DB
:104A60000223224688212846FDF750F90028F6D176
:104A700044F620034FF44056674DADF80C300096D5
:104A80000223224688212846FDF740F90028F6D166
:104A900002204FF44056FCF71BFA5F4D40F2211301
:104AA000ADF80C3000960223224688212846FDF7F7
:104AB0002DF90028F6D117234FF44056564DADF886
:104AC0000C3000960223224688212846FDF71EF965
:104AD0000028F6D14AF241334FF440564E4DADF81E
:104AE0000C3000960223224688212846FDF70EF955
:104AF0000028F6D14FF4A5734FF44056464DADF85B
:104B00000C3000960223224688212846FDF7FEF845
:104B10000028F6D140F24B134FF440563E4DADF80D
:104B20000C3000960223224688212846FDF7EEF835
:104B30000028F6D14B234FF44056374DADF80C30DA
:104B400000960223224688212846FDF7DFF8002838
:104B5000F6D140F256734FF440562F4DADF80C305D
:104B600000960223224688212846FDF7CFF8002828
:104B7000F6D14FF4AC734FF44056274DADF80C30DE
:104B800000960223224688212846FDF7BFF8002818
:104B9000F6D14FF441534FF440561F4DADF80C3051
:104BA00000960223224688212846FDF7AFF8002808
:104BB000F6D14FF445534FF44056174DADF80C3035
:104BC00000960223224688212846FDF79FF80028F8
:104BD000F6D14FF60B734FF440560F4DADF80C3035
:104BE00000960223224688212846FDF78FF80028E8
:104BF000F6D140F209134FF44056074DADF80C3092
:104C000000960223224688212846FDF77FF80028D7
:104C1000F6D104B070BD00BF5497012070B54B228F
:104C200086B000234FF44055804C8DF80D208DF850
:104C30001430009501230DF10D0288212046FDF767
:104C400065F80028F5D14FF44055784C00950123C4
:104C500005AA88212046FDF729F90028F6D19DF8FC
:104C6000143013F020033CD04FF60B734FF4405533
:104C70006E4CADF814300095022305AA8821204619
:104C8000FDF744F80028F6D140234FF44055674C17
:104C90008DF810008DF814300095012305AA8821A5
:104CA0002046FDF733F80028F6D104AC4FF4405607
:104CB0005E4D00960123224688212846FDF7F6F82E
:104CC0000028F6D19DF91030002BC0F2AB80584C73
:104CD00001235849584A208008801080184606B0A1
:104CE00070BD4D2204AC42F21076504DADF8143038
:104CF0008DF8102000960123224688212846FDF7D2
:104D000005F80028F6D142F21075484C00950223B0
:104D100005AA88212046FDF7C9F80028F6D19DF89C
:104D200014204F219DF8153042F210753F4C43EA94
:104D300002233F4AADF814008DF80F101380009540
:104D400001230DF10F0288212046FCF7DFFF002828
:104D5000F5D142F21075354C0095022305AA882141
:104D60002046FDF7A3F80028F6D19DF81420512124
:104D70009DF815304FF440552C4C43EA02232D4A40
:104D80008DF814008DF80E101380009501230DF19D
:104D90000E0288212046FCF7B9FF0028F5D14FF418
:104DA0004055224C0095012305AA88212046FDF795
:104DB0007DF80028F6D19DF8141040F24B131E4ADE
:104DC0004FF44055194C1180ADF814300095022372
:104DD00005AA88212046FCF799FF0028F6D14B232D
:104DE0004FF44055114CADF814300095022305AA3C
:104DF00088212046FCF78AFF0028F6D14FF60B7376
:104E00004FF44055094CADF814300095022305AA23
:104E100088212046FCF77AFF0028F6D101231846A6
:104E200006B070BD0346184606B070BD5497012009
:104E3000180400201A0400201C04002000000000B8
:104E400008B5134B9FED137A1B8807EE903AF8EEE6
:104E5000677A77EEC77A17EE900AFBF795FB002288
:104E60000D4BFBF7E9FB08A3D3E90023FBF70EFD8D
:104E7000FBF71CFE07EE900AFCEEE77A17EE903A7D
:104E800098B208BDAFF300800000000000C4AD4040
:104E9000180400200000124300007E4000000000C3
:104EA00008B5134B9FED137A1B8807EE903AF8EE86
:104EB000677A77EEC77A17EE900AFBF765FB002258
:104EC0000D4BFBF7B9FB08A3D3E90023FBF7DEFC8E
:104ED000FBF7ECFD07EE900AFCEEE77A17EE903A4E
:104EE00098B208BDAFF300800000000000EAAB40BC
:104EF0001A0400200000874300007140014B18880D
:104F0000704700BF18040020014B1888704700BF8D
:104F10001A04002070B50022C0B08521054603F0B8
:104F2000D1FC044610B1204640B070BD284602F0C6
:104F3000EFFD2A4BDB6A013B022B02D8284A52F8CC
:104F400023402848282606236A46009040F27641EE
:104F500028468DF805408DF8046003F05BFC04469C
:104F60000028E0D1204842F6071406236A46009044
:104F700040F296412846ADF8044003F04BFC04464D
:104F80000028D0D14FF4E06602236A4640F2724115
:104F90002846ADF8006003F03DFC04460028C2D16D
:104FA0006A46022340F274412846ADF8006003F0DF
:104FB00031FC04460028B6D101224FF48E61284608
:104FC00003F080FC04460028ADD12846012285214B
:104FD00003F078FC0446204640B070BD0800002075
:104FE000BCB7010829C90E40036D036F70B50121DC
:104FF000044600F0B5FB0646A0B90125D4F8881395
:105000002046C1F38F3184F8785300F0ABFED4F81A
:105010008C1384F884532046C1F34F2100F0ACFE7A
:1050200084F88553304670BD4FF4FA7103F0C2BB6B
:105030004A1E00232DE9F043022A8DB090F87C83AC
:105040000793CDE9053375D80D4608A9044600F04D
:1050500043FD10B10DB0BDE8F08305AB06AA07A96A
:105060002046676900F0D8FC03460028F2D1B8F169
:10507000030FADF812000B90CDE909001DD0B8F177
:10508000080F1AD0012D4FF020091AD0022D0BBFA6
:1050900025232623062608260CBF01220322B8F169
:1050A000040F45D0B8F1080F0FD0B8F1030F0DD0A1
:1050B0006FF007000DB0BDE8F083012D4FF04009FF
:1050C000E4D1242307260222E9E71E460BA90AA8F9
:1050D00009AB0DF11202019131460090204600F01B
:1050E0000DFD0028B6D131460297099B2046BDF838
:1050F0001220DDE90A67CDE9006700F053FD0028C2
:10510000A8D184F80290204684F87C8384F87D53EB
:105110000799DDE9053200F065FC00289AD1059B6E
:1051200008A92046236100F0C5FC0DB0BDE8F0835E
:105130001646CBE76FF003008CE700BF474A002319
:1051400070B5914286B08DF806308DF80730049323
:10515000CDE9023303D96FF0030006B070BD0D46F0
:105160000DF106020521044600F08CFC0028F4D164
:105170000DF107020621204600F084FC0028ECD146
:1051800002AB03AA04A9204600F046FC0028E4D1A3
:1051900094F87C33042B40D0082B2AD0032B05D065
:1051A000002DD8D06FF0070006B070BD9DF8063016
:1051B000012B4AD09DF80730012B46D045F26043C1
:1051C0009D42C8D9264B0226264A2B449342C2D878
:1051D000039A20460499B3FBF6F63346029600F094
:1051E00001FC0028B9D1029BC4F88053236106B0AA
:1051F00070BD05AA48F23601204601F01BF9059A58
:10520000002A27DDF52303FB02F303F6D1639D4259
:10521000A1D9EB1A134A0226D8E79DF80630012BD4
:105220000BD09DF80730012B07D0B5F57A7F92D9C6
:10523000A5F57A730C4A0126C8E741F288339D42EE
:1052400089D9EB1A084A0126C0E746F2E8739D4265
:1052500081D9DEE740F6D163D9E700BF8096980098
:10526000A0ABFFFFE0C810007064080003222023F9
:1052700030B589B080F878238370044602F07CFD55
:1052800007AA06AB002520462621ADF81250079547
:10529000CDE9003205AB0DF11202CDE9055500F064
:1052A0002DFC20B1082384F87C3309B030BD4FF4C5
:1052B0007A750798059B26210295069D0190204648
:1052C000BDF81220009500F06DFC0028EAD14022C4
:1052D00008234AF228012046A27084F87C33FFF7A5
:1052E0002DFF0028DED14FF48561204600F05EFBE3
:1052F000082384F87C3309B030BD00BF8B01034A1A
:10530000A2FB032301EB931100F050BBD34D6210BD
:10531000F0B5857887B00446402D37D190F87833C2
:10532000052B2CD8042B3BD2022B39D900230DF1AD
:10533000060205218DF806308DF807300493CDE97B
:10534000023300F09FFB70B3042605AF39462046B8
:1053500000F03AFB059B47499A01A1FB0212A3EB1F
:105360009213B342C0F0838029460622204600F003
:1053700007FD48B9042384F8783307B0F0BD623BD9
:10538000012B0DD96FF0020007B0F0BDFFF7C2FD91
:1053900094F87833052BF2D8042B01D2022BE3D8F2
:1053A0006FF00D00F0E70DF107020621204600F036
:1053B00069FB0028C8D103AB02AA04A9204600F06B
:1053C0002BFB0028C0D194F87C33042B30D0082B61
:1053D00015D0032BB8D19DF80630039A012B39D094
:1053E0009DF80730012B35D042F630231344214974
:1053F00005AF5E00A1FB0636B6090436A6E705AF89
:1054000048F236012046F5263A4601F013F8059B8E
:10541000002B02DD06FB03F6F536039A154B06EB6F
:10542000420606F6DC56A3FB0636B60904368DE7BF
:105430009DF80620039B012A0FD09DF80720012A22
:105440000BD003F57A760B4B05AFA3FB0636B609F6
:1054500004367BE743F2F433C8E741F28832054E65
:1054600005AF1A44A6FB0236B60904366EE76FF0A4
:10547000030089E7D34D621070B5044600F068FE62
:105480000546A378402B05D115B9032384F878335A
:10549000284670BD00228521204603F013FA0646F7
:1054A0000028F1D1204602F039FB32464FF48E61DC
:1054B000204603F007FA0028E6D101228521204684
:1054C00003F000FAE0E700BF4FF4FA6103F092B98D
:1054D000F0B54FF0FF330C46A3B002212360054620
:1054E00001AA6360A360E36023616361A36100F0CC
:1054F00053FE08B123B0F0BD9DF846609DF806202C
:1055000006F01F06039B2271072E23609DF80720DB
:10551000BDF94400BDF840701DD0B0F5967F7CDB2E
:1055200041F69A1310FB03FC4FEA5C0E544B5549AD
:1055300003FB07E3B3FBFCF31B048B420BD8CB1A32
:105540001B0C322B5FFA83FC05D9BCF1640F28BF1A
:105550004FF0640C01E04FF0320CBDF834307F02A4
:10556000BDF83810013A5B022083490200206761D0
:1055700084F805C0A076C4E90231BDF81810218274
:10558000102A4FD8DFE802F04646464E4E4E4E4EA9
:105590004E4E4E4E094E4E4E46000D22E276C5F856
:1055A00094332846C5F890730DF1020100F0D4FB46
:1055B000A6F10603B3FA83F35B09002842D1BDF8D4
:1055C00002209103002A4CD00122C5F8881385F8E7
:1055D0008423A6F1040685F886330DF102012846DE
:1055E000B6FA86F600F0C2FB760918BBBDF80230A9
:1055F0005A0293B30123C5F88C2385F8853385F8C7
:105600008763E37EB4F918200BB9002A2DDB002054
:1056100023B0F0BD0522E276C1E74FF4702E4FF4BF
:10562000F01C83E7321FD2B20F2A13D816498A5CC6
:10563000E276B4E795F88533012B14BF002606F017
:105640000106DCE795F88423012A14BF002303F048
:105650000103BEE7FF22E276A1E785F8852316461F
:10566000CDE785F884130B46B3E7084B5B689A4295
:1056700002DB002020833DE70E230020E37639E79C
:10568000CDCC300033B37500C8B701080800002046
:1056900070B500F5AC7182B0044602F011FC05460D
:1056A000A0B1B4F85E31B3F5805F31D3B4F8A23065
:1056B0004BB994F89E2094F89F3012011B0184F896
:1056C000A22084F8A330284602B070BD04F1420144
:1056D000204602F081FC05460028E2D104F5FD7663
:1056E0002046314602F0E8FF05460028D9D1304671
:1056F00004F1F00102F046F904F52D72DE21204696
:1057000003F0FCF8B4F85E310546B3F5805F03D2D0
:105710004BF6CC43A4F85E31002DC7D10DF1060243
:105720000DF1070194F82A028DF806508DF8075004
:1057300002F084FB9DF806202B469DF8071062F3CB
:10574000070394F82B2261F30F2302F00F011209D3
:1057500061F3174362F31F63C4F89E30A6E700BFEE
:105760002DE9F04F0D468BB06221044602F044F85B
:105770004FF0012301204FF47A714FF4FA62236055
:1057800043F2C8232071A16064204FF42061E260DD
:105790002361002240F2DB7360612183204684F89C
:1057A0002120A4F89C3002F01DF815B12046FFF727
:1057B0006FFF04F5887004F1A40500F09FFF04F565
:1057C000907000F0AFFF04F5967104F1420004F50B
:1057D000B27B00F0B3FF04F5A27000F0D1FF2846C1
:1057E00000F0E2FF94F860310321A26894F8018090
:1057F00020460B400792E26804F5C276803BB4F87D
:105800001890089204F5CE7784F8603104F5DA73C5
:1058100004F5E47A0593236909936369069301F01B
:10582000EBFF08F1FF3204F53971059B252A00F2E0
:10583000B780DFE802F0454E576069727B84B5B5EA
:10584000B5B5B5B5B5B58D96B5B5B5B5B5B5B5B54F
:10585000B5B5B5B5B5B5B5B5B59FAA13CDE9015187
:105860005846CDF800A03A46314601F0EDFD054618
:10587000FDB9B4F85E31A4F86491A4F81890002B37
:1058800000F09180089A0798E2601146099AA0609A
:105890002261CDE9006702F0A1F9054648B9B4F8E4
:1058A000B432002B7FD0069A02FB03F36261C4F886
:1058B000AC31204602F060FA28460BB0BDE8F08F0C
:1058C000CDE900A558463A46314600F0B7FF0546F7
:1058D000CEE7CDE900A558463A46314601F042F8F8
:1058E0000546C5E7CDE900A558463A46314601F0E0
:1058F000CDF80546BCE7CDE900A558463A46314605
:1059000001F058F90546B3E7CDE900A558463A46F7
:10591000314601F0E5F90546AAE7CDE900A558466C
:105920003A46314601F072FA0546A1E7CDE900A5F5
:1059300058463A46314601F007FB054698E7CDE95F
:1059400000A558463A46314601F09EFB05468FE7D2
:10595000CDE900A558463A46314601F0AFFE05466E
:1059600086E7CDE900A558463A46314601F00AFEE1
:1059700005467DE7CDE901515846CDF800A03A46ED
:10598000314601F0C1FC054672E7CDE901515846A8
:10599000CDF800A03A46314601F012FC054667E713
:1059A0006FF0030585E76FF00E0582E7B0F8B432BB
:1059B000024633B101FB03F300205161C2F8AC3160
:1059C00070476FF00E007047B0F8B42232B1D0F8D3
:1059D000AC310020B3FBF2F30B6070476FF00E00A8
:1059E000704700BFF0B51D46B0F85E3183B0044685
:1059F0007BB1084604F5CE7704F5C27611462561E1
:105A0000C4E902022A46CDE9006702F0E7F803B0D4
:105A1000F0BD6FF00E00FAE72DE9F0410446B0F852
:105A20005E0160B30F4694F8A21116461D4602F0BF
:105A30007BF88046014694F88B0102F0B5F8386097
:105A400094F89C31414694F89D0100EB032080B20C
:105A500002F0B4F8306094F8A031414694F8A10106
:105A600000EB032080B202F0A9F828603B68002018
:105A7000A3603368E3602B682361BDE8F0816FF0B9
:105A80000E00FAE7072912D890F8C53151B100206D
:105A900010B401248C4023405DF8044B43FA01F11B
:105AA0001170704703F001030846137070476FF0E0
:105AB0000300704738B50C46054600F2C31209785A
:105AC000607802F03FF9A07805F5E272E17802F023
:105AD0004FF9002038BD00BF38B50C4605460A46D0
