:020000040800F2
:10000000000005209D770008A5730008A97300086B
:10001000AD730008B1730008B5730008000000005C
:10002000000000000000000000000000B97300089C
:10003000BD73000800000000C1730008C57300080C
:10004000ED770008ED770008ED770008ED77000800
:10005000ED770008ED770008ED770008ED770008F0
:10006000ED770008ED770008ED770008ED770008E0
:10007000ED770008ED770008ED770008ED770008D0
:10008000ED770008ED770008ED770008ED770008C0
:10009000ED770008ED770008ED770008ED770008B0
:1000A000ED770008ED770008ED770008ED770008A0
:1000B000ED770008ED770008ED770008ED77000890
:1000C000ED770008ED770008ED770008ED77000880
:1000D000ED770008ED770008ED770008ED77000870
:1000E000ED770008ED770008ED770008ED77000860
:1000F000ED770008ED770008ED770008ED77000850
:10010000ED770008ED770008ED770008ED7700083F
:10011000ED770008ED770008ED770008ED7700082F
:10012000ED770008ED770008ED770008ED7700081F
:10013000ED770008ED770008ED770008ED7700080F
:10014000ED770008ED770008ED770008ED770008FF
:10015000ED770008ED770008ED770008ED770008EF
:10016000ED770008ED770008ED770008ED770008DF
:10017000ED770008ED770008ED770008000000003B
:10018000ED770008ED770008ED770008ED770008BF
:10019000ED770008ED770008ED770008ED770008AF
:1001A000ED770008ED770008ED770008ED7700089F
:1001B000ED770008ED770008ED770008ED7700088F
:0801C000ED770008ED7700085F
:1001D00010B5054C237833B9044B13B10448AFF381
:1001E00000800123237010BDFC03002000000000EC
:1001F0008C95010808B5034B1BB103490348AFF3C5
:10020000008008BD00000000000400208C9501085B
:10021000034613F8012B002AFBD1181A0138704746
:1002200001F0FF01102A2BDB10F0070F08D010F8A7
:10023000013B013A8B422DD010F0070F42B3F6D1AB
:10024000F0B441EA012141EA014122F007047FF0C4
:1002500000070023F0E80256083C85EA010586EA1B
:10026000010685FA47F5A3FA87F586FA47F6A5FA57
:1002700087F68EB9EED1F0BC01F0FF0102F0070263
:1002800032B110F8013B013A83EA010313B1F8D10E
:100290000020704701387047002D06BF35460338EF
:1002A000073815F0010F07D1013015F4807F02BF28
:1002B000013015F4C03F0130F0BC0138704700BF79
:1002C00081F0004102E000BF83F0004330B54FEA07
:1002D00041044FEA430594EA050F08BF90EA020F74
:1002E0001FBF54EA000C55EA020C7FEA645C7FEA07
:1002F000655C00F0E2804FEA5454D4EB5555B8BF2A
:100300006D420CDD2C4480EA020281EA030382EA9A
:10031000000083EA010180EA020281EA0303362D2C
:1003200088BF30BD11F0004F4FEA01314FF4801CFF
:100330004CEA113102D0404261EB410113F0004F11
:100340004FEA03334CEA133302D0524263EB4303C8
:1003500094EA050F00F0A780A4F10104D5F1200E66
:100360000DDB02FA0EFC22FA05F2801841F10001C1
:1003700003FA0EF2801843FA05F359410EE0A5F195
:1003800020050EF1200E012A03FA0EFC28BF4CF0C6
:10039000020C43FA05F3C01851EBE37101F000457C
:1003A00007D54FF0000EDCF1000C7EEB00006EEB89
:1003B0000101B1F5801F1BD3B1F5001F0CD3490813
:1003C0005FEA30004FEA3C0C04F101044FEA44526A
:1003D00012F5800F80F09A80BCF1004F08BF5FEAF1
:1003E000500C50F1000041EB045141EA050130BDD1
:1003F0005FEA4C0C404141EB010111F4801FA4F174
:100400000104E9D191F0000F04BF01460020B1FAC8
:1004100081F308BF2033A3F10B03B3F120020CDA00
:100420000C3208DD02F1140CC2F10C0201FA0CF0DE
:1004300021FA02F10CE002F11402D8BFC2F1200C43
:1004400001FA02F120FA0CFCDCBF41EA0C019040F9
:10045000E41AA2BF01EB0451294330BD6FEA040442
:100460001F3C1CDA0C340EDC04F11404C4F120022D
:1004700020FA04F001FA02F340EA030021FA04F33F
:1004800045EA030130BDC4F10C04C4F1200220FA96
:1004900002F001FA04F340EA0300294630BD21FAD4
:1004A00004F0294630BD94F0000F83F4801306BF9A
:1004B00081F480110134013D4EE77FEA645C18BF8E
:1004C0007FEA655C29D094EA050F08BF90EA020F25
:1004D00005D054EA000C04BF1946104630BD91EA1D
:1004E000030F1EBF0021002030BD5FEA545C05D120
:1004F0004000494128BF41F0004130BD14F580045F
:100500003CBF01F5801130BD01F0004545F0FE41D2
:1005100041F470014FF0000030BD7FEA645C1ABF07
:10052000194610467FEA655C1CBF0B46024650EA3E
:10053000013406BF52EA033591EA030F41F400216A
:1005400030BD00BF90F0000F04BF0021704730B5F0
:100550004FF4806404F132044FF000054FF00001C5
:1005600050E700BF90F0000F04BF0021704730B586
:100570004FF4806404F1320410F0004548BF40425B
:100580004FF000013EE700BF42004FEAE2014FEAB0
:1005900031014FEA02701FBF12F07F4393F07F4F8B
:1005A00081F06051704732F07F4208BF704793F08E
:1005B0007F4F04BF41F40021704730B54FF46074A1
:1005C00001F0004521F000411CE700BF50EA0102A4
:1005D00008BF704730B54FF000050AE050EA01024D
:1005E00008BF704730B511F0004502D5404261EBBD
:1005F00041014FF4806404F132045FEA915C3FF4FE
:10060000D8AE4FF003025FEADC0C18BF03325FEA9A
:10061000DC0C18BF033202EBDC02C2F1200300FA4B
:1006200003FC20FA02F001FA03FE40EA0E0021FA70
:1006300002F11444BDE600BF70B54FF0FF0C4CF45E
:10064000E06C1CEA11541DBF1CEA135594EA0C0F10
:1006500095EA0C0F00F0DEF82C4481EA030621EA4B
:100660004C5123EA4C5350EA013518BF52EA033586
:1006700041F4801143F4801338D0A0FB02CE4FF038
:100680000005E1FB02E506F00042E0FB03E54FF068
:100690000006E1FB03569CF0000F18BF4EF0010E60
:1006A000A4F1FF04B6F5007F64F5407404D25FEA5C
:1006B0004E0E6D4146EB060642EAC62141EA55510F
:1006C0004FEAC52040EA5E504FEACE2EB4F1FD0C51
:1006D00088BFBCF5E06F1ED8BEF1004F08BF5FEACF
:1006E000500E50F1000041EB045170BD06F0004681
:1006F00046EA010140EA020081EA0301B4EB5C042E
:10070000C2BFD4EB0C0541EA045170BD41F4801125
:100710004FF0000E013C00F3AB8014F1360FDEBF4A
:10072000002001F0004170BDC4F10004203C35DA26
:100730000C341BDC04F11404C4F1200500FA05F3A9
:1007400020FA04F001FA05F240EA020001F000424A
:1007500021F0004110EBD37021FA04F642EB0601C0
:100760005EEA430E08BF20EAD37070BDC4F10C04EA
:10077000C4F1200500FA04F320FA05F001FA04F2AE
:1007800040EA020001F0004110EBD37041F100019A
:100790005EEA430E08BF20EAD37070BDC4F12005A5
:1007A00000FA05F24EEA020E20FA04F301FA05F20D
:1007B00043EA020321FA04F001F0004121FA04F2B5
:1007C00020EA020000EBD3705EEA430E08BF20EA85
:1007D000D37070BD94F0000F0FD101F000464000BF
:1007E00041EB010111F4801F08BF013CF7D041EA41
:1007F000060195F0000F18BF704703F00046520045
:1008000043EB030313F4801F08BF013DF7D043EA15
:100810000603704794EA0C0F0CEA135518BF95EACB
:100820000C0F0CD050EA410618BF52EA4306D1D152
:1008300081EA030101F000414FF0000070BD50EA71
:10084000410606BF1046194652EA430619D094EAFB
:100850000C0F02D150EA013613D195EA0C0F05D1E5
:1008600052EA03361CBF104619460AD181EA030139
:1008700001F0004141F0FE4141F470014FF00000F1
:1008800070BD41F0FE4141F4780170BD70B54FF08C
:10089000FF0C4CF4E06C1CEA11541DBF1CEA13550C
:1008A00094EA0C0F95EA0C0F00F0A7F8A4EB0504EE
:1008B00081EA030E52EA03354FEA013100F08880E5
:1008C0004FEA03334FF0805545EA131343EA1263AE
:1008D0004FEA022245EA111545EA10654FEA002663
:1008E0000EF000419D4208BF964244F1FD0404F51C
:1008F000407402D25B084FEA3202B61A65EB030578
:100900005B084FEA32024FF480104FF4002CB6EB34
:10091000020E75EB030E22BFB61A754640EA0C00B4
:100920005B084FEA3202B6EB020E75EB030E22BFF4
:10093000B61A754640EA5C005B084FEA3202B6EB35
:10094000020E75EB030E22BFB61A754640EA9C00F4
:100950005B084FEA3202B6EB020E75EB030E22BFC4
:10096000B61A754640EADC0055EA060E18D04FEA82
:10097000051545EA16754FEA06164FEAC30343EA22
:1009800052734FEAC2025FEA1C1CC0D111F4801FEF
:100990000BD141EA00014FF000004FF0004CB6E7E8
:1009A00011F4801F04BF01430020B4F1FD0C88BF87
:1009B000BCF5E06F3FF6AFAEB5EB030C04BFB6EB92
:1009C000020C5FEA500C50F1000041EB045170BD85
:1009D0000EF0004E4EEA113114EB5C04C2BFD4EBB2
:1009E0000C0541EA045170BD41F480114FF0000E36
:1009F000013C90E645EA060E8DE60CEA135594EAB2
:100A00000C0F08BF95EA0C0F3FF43BAF94EA0C0FB4
:100A10000AD150EA01347FF434AF95EA0C0F7FF429
:100A200025AF104619462CE795EA0C0F06D152EA7D
:100A300003353FF4FDAE1046194622E750EA410661
:100A400018BF52EA43067FF4C5AE50EA41047FF472
:100A50000DAF52EA43057FF4EBAE12E74FEA4102D5
:100A600012F5001215D211D56FF47873B3EB625200
:100A700012D94FEAC12343F0004343EA505311F027
:100A8000004F23FA02F018BF404270474FF00000B9
:100A9000704750EA013005D111F0004008BF6FF0F7
:100AA000004070474FF00000704700BF4FEA41021E
:100AB000B2F1E04324BFB3F5001CDCF1FE5C0DD9BC
:100AC00001F0004C4FEAC0024CEA5070B2F1004F06
:100AD00040EB830008BF20F00100704711F0804F09
:100AE00021D113F13872BCBF01F00040704741F4CE
:100AF00080114FEA5252C2F11802C2F1200C10FAD2
:100B00000CF320FA02F018BF40F001004FEAC123B5
:100B10004FEAD32303FA0CFC40EA0C0023FA02F359
:100B20004FEA4303CCE77FEA625307D150EA01332F
:100B30001EBF4FF0FE4040F44000704701F00040FF
:100B400040F0FE4040F40000704700BF53B94AB97E
:100B5000002908BF00281CBF4FF0FF314FF0FF30C5
:100B600000F072B9ADF1080C6DE904CE00F006F8A2
:100B7000DDF804E0DDE9022304B070472DE9F04719
:100B8000089E04468846002B4BD18A42154667D9F9
:100B9000B2FA82F24AB1C2F1200701FA02F320FA56
:100BA00007F7954047EA030894404FEA154E230C97
:100BB000B8FBFEF71FFA85FC0EFB178843EA0843D3
:100BC00007FB0CF1994209D9EB1807F1FF3080F0CF
:100BD0001B81994240F21881023F2B445B1AA4B258
:100BE000B3FBFEF00EFB103344EA034400FB0CFCA5
:100BF000A44509D92C1900F1FF3380F00781A445E1
:100C000040F2048102382C4440EA0740A4EB0C0473
:100C100000271EB1D4400023C6E900433946BDE891
:100C2000F0878B4209D9002E00F0EB800027C6E93F
:100C3000000138463946BDE8F087B3FA83F7002F44
:100C400047D18B4202D3824200F2FA80841A61EBD0
:100C5000030301209846002EE0D0C6E90048DDE7F6
:100C600002B9FFDEB2FA82F2002A40F08F80491BFF
:100C70004FEA154E1FFA85F80127B1FBFEFC230C45
:100C80000EFB1C1143EA014308FB0CF1994207D902
:100C9000EB180CF1FF3002D2994200F2CD8084466D
:100CA000591AA3B2B1FBFEF00EFB101443EA044440
:100CB00008FB00F8A04507D92C1900F1FF3302D238
:100CC000A04500F2B6801846A4EB080440EA0C40A8
:100CD0009FE7C7F1200CBB4022FA0CFE4EEA030E40
:100CE00001FA07F420FA0CF521FA0CF34FEA1E483A
:100CF0002543B3FBF8F92C0C08FB19331FFA8EFAC5
:100D000044EA034309FB0AF49C4202FA07F200FAA0
:100D100007F10BD91EEB030309F1FF3080F0878048
:100D20009C4240F28480A9F1020973441B1BADB2BE
:100D3000B3FBF8F008FB103345EA034400FB0AFA62
:100D4000A24508D91EEB040400F1FF336BD2A24583
:100D500069D90238744440EA0940A0FB0289A4EB37
:100D60000A044C45C2464B4654D351D0002E69D09C
:100D7000B1EB0A0564EB030404FA0CFCFD40FC40F3
:100D80004CEA0505C6E90054002747E7C2F12003F5
:100D900020FA03F7954001FA02F021FA03F34FEA33
:100DA000154E3843010CB3FBFEF71FFA85F80EFB16
:100DB000173341EA034107FB08F38B4204FA02F4BC
:100DC00007D9691807F1FF3C2FD28B422DD9023F7A
:100DD0002944CB1A81B2B3FBFEF00EFB103341EA7B
:100DE000034100FB08F38B4207D9691800F1FF3C6F
:100DF00017D28B4215D902382944C91A40EA07474D
:100E00003BE73746304609E70746E7E61846FBE684
:100E10004145ABD2B8EB020A69EB0E02013813462A
:100E2000A4E76046E9E7184695E76746D1E78146BB
:100E30007CE702382C4447E7ACF1020C2B442FE747
:100E4000384608E73746E9E6704700BF0E4A4FF4D8
:100E50007A730E491278B3FBF2F310B504460868B2
:100E6000B0FBF3F000F090F808B90F2C01D9012085
:100E700010BD002221464FF0FF3000F04FF8044B28
:100E800000201C6010BD00BF0000002038000020C2
:100E90000400002008B5032000F02CF80020FFF724
:100EA000D5FF06F007FA002008BD00BF034A044B37
:100EB00011681B780B441360704700BF50970120E6
:100EC00000000020014B1868704700BF50970120B8
:100ED00038B50446FFF7F6FF0546631C02D0044B05
:100EE0001B781C44FFF7EEFF401BA042FAD338BD2D
:100EF0000000002007490002074BCA6800F4E060C8
:100F000010B44FF6FF0422405DF8044B134318431E
:100F1000C860704700ED00E00000FA05174BDB6881
:100F2000C3F3022330B4C3F107051C1D042D28BFF1
:100F30000425062C18D9033B4FF0FF349C4022EACD
:100F400004044FF0FF32002802FA05F221EA020100
:100F500001FA03F242EA04024FEA0212D2B206DBBD
:100F6000074B1A5430BC704700242346E9E700F0D1
:100F70000F00044B1A5430BC704700BF00ED00E076
:100F800000E400E014ED00E00138B0F1807F0DD204
:100F9000074B0022072130B4F025064C586010465C
:100FA00084F823509A60196030BC70470120704764
:100FB00010E000E000ED00E008B505F06FFF08BDAF
:100FC0002DE9F04F884683B00024D1F80090DFF877
:100FD000F8E103E00134102C00F0B6800123A340B7
:100FE00009EA03029342F5D1D8F8045067000321BF
:100FF00025F0100CB9400CF1FF33C943012B10D878
:101000008668C5F3001306EA010AD8F80C60A3400D
:10101000BE4046EA0A068660466826EA0206334370
:101020004360C368BCF1020FD8F8086003EA01030B
:1010300006FA07F646EA0306C66015D1E30804F08F
:10104000070C4FF00F0BD8F8106000EB83034FEA4A
:101050008C0CD3F820A00BFA0CFB06FA0CF62AEA4B
:101060000B0A46EA0A061E62066805F003033140D1
:10107000BB40EF0043EA01030360ABD5484B24F0CB
:1010800003064FF00F0C5F6C194606F1804604F022
:10109000030347F4804706F59C369B004F644F6C72
:1010A0000CFA03F107F480470197019FB76827EA1C
:1010B00001013C4FB84220D007F58067B84246D0C6
:1010C000394FB84248D0394FB8424AD0384FB84269
:1010D0004CD0384FB84253D0374FB84255D0374F25
:1010E000B84248D0364FB84254D0364FB8420CBF01
:1010F00009270A2707FA03F31943B160D143DEF841
:101100000030EE0304F1010454BF0B401343AF035E
:10111000CEF80030DEF8043054BF0B401343EE022B
:10112000CEF80430DEF8083054BF0B401343AD0254
:10113000CEF80830DEF80C3054BF0B401343102CAF
:10114000CEF80C307FF44AAF03B0BDE8F08F012732
:1011500007FA03F31943D0E7022707FA03F3194309
:10116000CBE7032707FA03F31943C6E7042707FA77
:1011700003F31943C1E7072707FA03F31943BCE751
:10118000052707FA03F31943B7E7062707FA03F31E
:101190001943B2E7082707FA03F31943ADE700BF85
:1011A000003802400000024000080240000C0240EB
:1011B000001002400014024000180240001C0240CF
:1011C0000020024000240240003C014002B9090412
:1011D0008161704770B504460D4616466A1C236847
:1011E0002CD19A69900727D49A69D106F9D59A69C2
:1011F0009106FCD520221021D961DA619A69900705
:1012000001D500229A629A69D10703D49A6942F003
:1012100001029A615A6800211B4E202501203240AC
:101220005A60636C84F8401043F00403636484F8EC
:10123000415084F8421070BD002070BD9A69920739
:10124000FAD49A69D0061BD4FFF73CFE801BA84253
:1012500001D8002DC2D1636C2021002201200B4354
:1012600084F84020636484F8411084F8422070BD03
:10127000FFF728FE801B8542EDD3002DEBD02368BD
:101280009A699206F4D5B5E700E800FE70B5044609
:101290000D46164623689A69920649D49A69D20681
:1012A00026D5681C38D19A699106FCD520221021D8
:1012B000D961DA619A69900701D500229A629A6928
:1012C000D10703D49A6942F001029A615A68002159
:1012D000184E2025012032405A60636C84F840107B
:1012E00043F00403636484F8415084F8421070BDF5
:1012F000FFF7E8FD801BA84201D8002DCAD1636C1E
:101300002021002201200B4384F84020636484F8EC
:10131000411084F8422070BD9A699206C6D4FFF746
:10132000D1FD801B8542EAD3002DE8D02368B8E7C1
:10133000002070BD00E800FE00284DD0F8B590F800
:101340004130044603F0FF02002B40D02421E56821
:10135000D4E9003284F84110012D186822F0706140
:10136000A26820F0010018601961996821F4004119
:10137000996028D042F40442022D9A6002D14FF4C1
:1013800000625A605A68002114482027A669104359
:10139000D4E9042558602A43D868E56942EA062260
:1013A000266A20F400403543D8600846DA601D60A4
:1013B0001A6842F001021A60616484F84170216386
:1013C00084F84210F8BD42F400429A60DAE780F8EF
:1013D000402005F087FFB9E7012070470080000238
:1013E0002DE9F84390F84140089E202C6FD190F8E9
:1013F0004040012C6BD09846012391460F4680F85F
:1014000040300446FFF75EFD054604E0FFF75AFD55
:10141000401B192875D82368986910F40040F5D14D
:1014200010222121C4F82490C7F3090784F8411041
:1014300084F842206064A4F82A80628D6063FF2AE9
:1014400048D8618D484A89B258683A43DFF824E1A8
:101450005FFA81FC218500EA0E0142EA0C420A4350
:101460005A60DFF81481DFF8149147EA0808638DA9
:101470002A46314620469BB2002B62D0FFF7AAFED7
:1014800000285BD1606A216810F8012B238D8A62E5
:10149000628D013B6062013A9BB292B22385628504
:1014A000628D92B2002AE2D0002BE0D1701C1DD1D7
:1014B0008B691A06FCD5638DFF2B30D94B68FF2250
:1014C00003EA0903228543EA08034B60CFE70220C1
:1014D000BDE8F8835A68FF20DFF898C0234902EA84
:1014E0000C02208539430A435A60BAE78B691B0610
:1014F000E1D4FFF7E7FC401B864202D30EB121681E
:10150000D4E7636C2021002201200B4384F84020A3
:10151000636484F8411084F84220BDE8F883628D4A
:1015200047F00073486892B200EA09005FFA82FC53
:10153000228543EA0C4303434B6098E70120BDE852
:10154000F883FFF7A3FE0028F8D123682021084D77
:10155000D9615A682A405A6084F8411084F84000E2
:1015600084F84200B4E700BF002000820020FF8121
:1015700000E800FE009800FC0000FF01009C00FC59
:101580002DE9F84390F84140089D202C7FD190F838
:101590004040012C7BD09846012391460F4680F8AD
:1015A00040300446FFF78EFC064604E0FFF78AFC55
:1015B000801B192878D82368986910F40040F5D169
:1015C00010222221C4F82490C7F3090784F841109F
:1015D00084F842206064A4F82A80628D6063FF2A48
:1015E0006FD8618D7C4A89B258683A43DFF8F4E1DC
:1015F0005FFA81FC218500EA0E0142EA0C420A43AF
:101600005A60DFF8E481DFF8E49147EA0808638D67
:101610009BB26BB999E09A69900600F1B680FFF72A
:1016200051FC801B8542C0F0A580002D00F0A280F7
:1016300023689A6952075CD49A69D006EBD5691C75
:101640004BD19A699206FCD520221021D961DA612A
:101650009A69960701D500229A629A69D50703D440
:101660009A6942F001029A615A6800215B4E202576
:10167000012032405A60636C84F8401043F0040348
:10168000636484F8415084F84210BDE8F883022076
:10169000BDE8F88393691B0647D4FFF713FC801B52
:1016A000854201D3002D3AD1636C20210022012014
:1016B0000B4384F84020636484F8411084F842208E
:1016C000E6E75A68FF20DFF81CC1454902EA0C0230
:1016D000208539430A435A6093E79A699706B3D441
:1016E000FFF7F0FB801B8542DED3002DDCD02368A2
:1016F000A5E75A6A636A1A70618D238D0139626A9F
:10170000013B89B201329BB26185618D238589B22B
:101710006262002B7FF47BAF00293FF478AF681C36
:101720002268B7D193691906FCD5638DFF2B42D986
:101730005368FF2103EA0903218543EA0803536044
:10174000638D9BB2002B7FF473AF3246294620464F
:10175000FFF79CFD00283DD1236820211F4DD96152
:101760005A682A405A6084F8411084F8400084F88E
:1017700042008DE7636C202200210120134384F88E
:101780004010636484F8412082E79A69510702D5CA
:10179000228D002AADD12025104E00220120DD61CE
:1017A000596831405960626484F8402084F841509F
:1017B00084F842206CE7618D47F00073506889B26D
:1017C00000EA09005FFA81FC218543EA0C430343E8
:1017D00053601CE701205BE70024008200E800FE64
:1017E0000024FF81009800FC0000FF01009C00FC29
:1017F00090F84130DBB2202B70B41FD190F840201C
:10180000012A1BD002682424002680F84140156874
:10181000344625F001051560156825F480551560DE
:10182000156829431160116841F00101116080F8C9
:10183000406080F84130204670BC7047022420464A
:1018400070BC704790F84130DBB2202B70B41ED1D1
:1018500090F84020012A1AD002682424002680F83B
:1018600041401468354624F001041460146824F4DF
:10187000706444EA01211160116841F001011160B6
:1018800080F8406080F84130284670BC70470225DF
:10189000284670BC704700BF024A136843F4807347
:1018A00013607047007000401B4A1C4B116C41F0E4
:1018B000805130B5116483B0126C1C4602F0805226
:1018C0000192019A1A6842F480321A60FFF7FAFA1C
:1018D000054605E0FFF7F6FA401BB0F57A7F17D80A
:1018E0006368DA03F6D523680C4D43F400332360B4
:1018F000FFF7E8FA044605E0FFF7E4FA001BB0F54D
:101900007A7F05D86B689B03F6D5002003B030BD05
:10191000032003B030BD00BF00380240007000401B
:10192000002800F04C8103682DE9F041DD0782B00A
:10193000044635D5AC498A6802F00C02042A00F04E
:10194000FF808A6802F00C02082A00F0F5806368C4
:10195000B3F5803F10D0002B00F01A81B3F5A02F13
:10196000A14B1A6800F0648122F480321A601A6870
:1019700022F480221A6004E09B4A136843F4803307
:101980001360FFF79FFA984D064605E0FFF79AFAB5
:10199000801B642800F2EF802B689A03F6D5236839
:1019A0009F0742D41A0717D56369002B00F0B18056
:1019B0008D4B5A6F1D4642F001025A67FFF782FABB
:1019C000064605E0FFF77EFA801B022800F2D3806E
:1019D0006B6F9B07F6D523685D076BD5824B1A6C3E
:1019E000D00000F1EE801A6C012542F080521A649A
:1019F0001B6C03F080530193019B7C4B1A68D1054B
:101A000040F1A880A368012B39D0002B00F0DB80C7
:101A1000052B754B1A6F00F0138122F001021A6733
:101A20001A6F22F004021A672EE06F4A916811F0D3
:101A30000C0F63D0916801F00C0108295BD0E368BA
:101A4000002B00F0E180684B1A681D4642F001024D
:101A50001A60FFF737FA064605E0FFF733FA801BF6
:101A6000022800F288802B689807F6D52B68226937
:101A700023F0F80343EAC2032B60236892E75A4A33
:101A8000136F43F001031367FFF71CFA564E8046AD
:101A900041F2883705E0FFF715FAA0EB0800B842DD
:101AA00069D8336F9B07F6D525B14F4A136C23F0E5
:101AB00080531364A069D0B14B4B9A6802F00C02BA
:101AC000082A00F0C58002281A6800F0EB8022F096
:101AD00080721C461A60FFF7F5F9054604E0FFF72F
:101AE000F1F9401B022846D823689B01F7D4002057
:101AF00002B0BDE8F08152685602A0D43A4A12689A
:101B000095073CD5E268012A39D0012002B0BDE832
:101B1000F081354B5A6F1D4622F001025A67FFF7DC
:101B2000D1F9064604E0FFF7CDF9801B022822D840
:101B30006B6F9F07F7D44EE74A6850027FF507AFF7
:101B4000294A126891037FF52BAF6268002A7FF45F
:101B500027AFDAE71A681E4642F480721A60FFF770
:101B6000B1F907463368DA053FF54CAFFFF7AAF93C
:101B7000C01B6428F6D9032002B0BDE8F0811A49E1
:101B800020690A6822F0F80242EAC0020A6009E706
:101B9000154B1A681D4622F480321A601A6822F426
:101BA00080221A60FFF78EF9064604E0FFF78AF9F3
:101BB000801B6428DFD82B689B03F7D4EFE6012055
:101BC0007047002519E7084B41F288381A6F1E4606
:101BD00022F001021A671A6F22F004021A67FFF757
:101BE00071F9074609E000BF00380240007000406C
:101BF000FFF768F9C01B4045BDD8336F9807F7D48D
:101C0000002D3FF457AF50E7414B1A681D4622F0B4
:101C100001021A60FFF756F9064604E0FFF752F991
:101C2000801B0228A7D82B689907F7D42368B9E648
:101C300042F480221A601A6842F480321A60A0E6E8
:101C400042F004021A671A6F42F001021A671BE79A
:101C500001285A683FF45AAF02F48003E1698B42CD
:101C60007FF453AF02F03F03216A8B427FF44DAF04
:101C700047F6C073616A1340B3EB811F7FF445AF31
:101C8000A36A02F440315B08013BB1EB034F7FF4E0
:101C90003CAFE36A02F07062B2EB036F14BF012045
:101CA000002033E722F080721D461A60FFF70AF920
:101CB000064605E0FFF706F9801B02283FF65BAFFA
:101CC0002B689901F6D4D4E90732606A1343D4E94A
:101CD0000A2143F000530E4C520843EA8013013AA4
:101CE00043EA016343EA02436B602B6843F080736D
:101CF0002B60FFF7E7F8054605E0FFF7E3F8401B28
:101D000002283FF638AF23689A01F6D5EFE600BF08
:101D10000038024078B15E4A136803F00F038B422B
:101D20000BD2136823F00F030B431360136803F007
:101D30000F038B4201D00120704703682DE9F04169
:101D40009D0714D55C0704D5524CA26842F4E052BA
:101D5000A2601A0704D54F4CA26842F46042A26008
:101D60004C4C8568A26822F0F0022A43A260DF078B
:101D700004460D4621D54268464B012A1B6863D0B4
:101D8000022A79D0990728D5424941F288388B68D0
:101D90000E4623F0030313438B60FFF793F80746C7
:101DA00004E0FFF78FF8C01B404563D8B368626852
:101DB00003F00C03B3EB820FF3D1354A136803F041
:101DC0000F03AB420CD9136823F00F032B431360AE
:101DD000136803F00F03AB4202D00120BDE8F0818D
:101DE00023685A0706D52B49E0688A6822F4E05236
:101DF00002438A601B0707D5264A2169936823F4AA
:101E0000604343EAC103936022498B6803F00C03EB
:101E1000042B1CD0082B2BD14A684B6802F03F02E0
:101E2000496813F480032AD11B48C1F38811A1FB30
:101E30000001FEF78BFE174B5B68C3F301430133D0
:101E40005B00B0FBF3F303E09E039DD4C5E7134BA7
:101E5000104A134C92681348C2F3031212490068E7
:101E6000A25CD3400B60FEF7F1FF0020BDE8F081DB
:101E7000094BEDE70320B1E7980185D4ADE70748AA
:101E8000C1F388110023A1FB0001FEF75FFED2E73A
:101E9000003C0240003802400024F40040787D01FC
:101EA00018960108040000203800002003682DE97E
:101EB000F04313F0010683B004460BD0B64A916894
:101EC00021F400019160466B91683143B6FA86F6C1
:101ED0007609916013F4002510D0AF49E56BD1F875
:101EE0008C20B5F5801F22F4401242EA0502C1F8A9
:101EF0008C2000F01A82B5FA85F56D09D90210D54B
:101F0000A548216CD0F88C20B1F5800F22F4400256
:101F100042EA0102C0F88C2000F00A82002908BFC2
:101F2000012513F0807F18BF01269A0600F1B781C2
:101F3000D9060CD5984AD2F88C1021F08071C2F8DD
:101F40008C10D2F88C10A06B0143C2F88C105A048C
:101F500008D59149606ED1F8902022F440320243B6
:101F6000C1F890201F0408D58B49A06ED1F89020AD
:101F700022F440220243C1F89020D80308D58649B4
:101F8000E06ED1F8902022F440120243C1F8902074
:101F9000990308D58049206FD1F8902022F440029F
:101FA0000243C1F890205A0608D57B49606CD1F8ED
:101FB000902022F003020243C1F890201F0608D5AA
:101FC0007549A06CD1F8902022F00C020243C1F8B0
:101FD0009020D80508D57049E06CD1F8902022F007
:101FE00030020243C1F89020990508D56A49206D56
:101FF000D1F8902022F0C0020243C1F890205A0587
:1020000008D56549606DD1F8902022F440720243F2
:10201000C1F890201F0508D55F49A06DD1F8902028
:1020200022F440620243C1F89020D80408D55A49EE
:10203000E06DD1F8902022F440520243C1F8902084
:10204000990408D55449206ED1F8902022F44042DA
:102050000243C1F890205A0208D54F49A06FD1F829
:10206000902022F080620243C1F890209F020CD59C
:102070004949E06FD1F89020B0F1006F22F0006282
:1020800008BF01250243C1F8902013F0080F18BFC4
:102090000125580308D54049606FD1F8902022F0FF
:1020A00040720243C1F89020190200F1ED80012E28
:1020B00001D09A0160D5384B1A681E4622F0806222
:1020C0001A60FEF7FFFE074605E0FEF7FBFEC01BA9
:1020D000642800F2D58033681B01F6D42368DF073B
:1020E00012D5626B82B9D6F88420D6F8847002F4D7
:1020F0004032606807F07067A1683A4342EA801294
:1021000042EA0172C6F884201E0304D5E26BB2F5E0
:10211000801F00F01E81D80204D5226CB2F5800F1A
:1021200000F01781D90111D51B4E6068D6F88420C4
:10213000D6F8847002F07062216907F0E0473A43F4
:1021400042EA801242EA0142C6F884209A0100F174
:10215000F180114B1A681E4642F080621A60FEF749
:10216000B1FE074605E0FEF7ADFEC01B642800F295
:10217000878033681B01F6D5012D03D0002003B002
:10218000BDE8F083044B1A681D4622F080521A60A5
:10219000FEF798FE064606E000380240FEF792FE83
:1021A000801B64286CD82B689F00F7D423681D031C
:1021B00001D5E26B1AB1D8021DD5226CDAB9824979
:1021C0006569D1F88820D1F8886002F44032A069AE
:1021D00006F0E046324342EA851242EA0062C1F864
:1021E0008820D1F88C20A06A22F4F852013842EA03
:1021F0000022C1F88C20990215D5E26FB2F1006F70
:1022000011D171496569D1F88820D1F8886002F050
:102210007062206A06F0E046324342EA851242EAE2
:102220000042C1F888201A0719D5674A6569D2F8B3
:102230008810D2F8883001F07061E06903F440330F
:102240000B4343EA851343EA0073C2F88830D2F89F
:102250008C30E16A23F440330B43C2F88C305A4B84
:102260001A681C4642F080521A60FEF72BFE0546A3
:1022700023689B0082D4FEF725FE401B6428F7D913
:10228000032003B0BDE8F0834F49D4F88000D1F8B3
:10229000902022F080520243C1F8902007E74A4A7A
:1022A0004A4B116C1F4641F080511164126C02F0D0
:1022B00080520192019A1A6842F480721A60FEF705
:1022C00001FE804605E0FEF7FDFDA0EB0800642856
:1022D000D6D83B68DB05F6D53B4A236B116F03F478
:1022E000407011F4407110D081420ED0116F176F01
:1022F00021F4407147F480371767176F27F4803750
:1023000017671167116FCF0748D4B0F5407F3CD0F5
:102310002D498A6822F4F8128A602B4AC3F30B0312
:10232000116F0B431367236802E600250126E5E5DC
:102330000126F6E5236962681B04D4E9021043EA2A
:102340008213214A43EA006343EA0173C2F88430EE
:10235000FFE61D4E6068D6F88420D6F8847002F43B
:102360004032E16807F0E0473A4342EA801242EA2D
:102370000162C6F88420D6F88C10626A21F01F0131
:10238000013A0A43C6F88C20CCE60F48104982680F
:10239000194022F4F8120A438260BEE7174641F260
:1023A0008838FEF78FFD814606E0FEF78BFDA0EB37
:1023B000090040453FF664AF3B6F9807F5D5236BA6
:1023C00003F44070A1E700BF0038024000700040F5
:1023D000FFFCFF0F374B00224FF478412DE9F0430B
:1023E0001D6B8BB0344C164645F48055DFF8CC900D
:1023F0002046DFF8CC801D6301271D6B05F4805556
:102400000195019D1D6B45F010051D631D6B05F0C9
:1024100010050295029D1D6B45F020051D631D6B87
:1024200005F020050395039D1D6B45F040051D63D8
:1024300003251B6B03F040030493049BFEF7C6FEC9
:1024400048463246FF21FEF7C1FE324640464FF471
:102450007F41FEF7BBFE4FF47843204605A9CDE946
:102460000537CDE90765FEF7ABFDFF23484605A913
:1024700008950593CDE90676FEF7A2FD4FF47F435C
:1024800005A9404608954FF400550593CDE9067619
:10249000FEF796FD4FF400604FF480514FF4004278
:1024A0004FF48043A561A061A161A261A3610BB05B
:1024B000BDE8F083003802400014024000180240DA
:1024C00000100240C3431149114A1B0470B44FF07D
:1024D0007F45C4B203F47F0300F47F408D614FF069
:1024E000005523430B4C95614FF0004595614FF02B
:1024F0000065A3614FF400644E694FF4005330430C
:10250000486195619461936170BC7047001002400E
:102510000014024000180240C3431149114A1B0431
:1025200070B44FF07F45C4B203F47F0300F47F40E2
:102530008D614FF0005523430B4C95614FF40045DE
:1025400095614FF00065A3614FF400644E694FF44C
:1025500000533043486195619461936170BC70474A
:1025600000100240001402400018024099B300EB32
:1025700041014FF0006C2DE9F04F174D4FF07F4AAD
:10258000164C4FF000594FF40048DFF854E04FF478
:1025900000674FF4005630F8023BC5F818A0DA4344
:1025A0005FFA83FBC4F8189003F47F431204C4F865
:1025B0001880884202F47F0242EA0B02CEF818200B
:1025C0006A6943EA02036B61C4F818C0A761A66197
:1025D000E1D1BDE8F08F70470010024000140240C6
:1025E000001802402DE9F04F4FF08043BD4C83B0FE
:1025F0004FF4FA70A3614FF48046FEF769FC4FF088
:1026000000524FF00063642001924FF0004A0093A3
:102610004FF40067A6614FF40056B34DFEF758FC27
:102620004FF07F43DFF8D482019A0A20AB614FF468
:102630000049AE4BA2610192C4F818A0C8F8183046
:10264000009BD5F814C0DFF8B8B2C5F814C0A36178
:102650000093A761A661FEF73BFC019ADFF8A4E2B4
:102660004FF07F434FF07F41DFF89CC2AB616420A5
:10267000A261009BC4F818A0C8F818E0D5F814E0CF
:10268000C5F814E0A361A761A661A961A261C4F8BD
:102690001890C8F818C0D5F814C0C5F814C0A361C4
:1026A000A761A661A961A261C4F81890C8F818B022
:1026B000D5F814C0C5F814C0A361A761A661A961CB
:1026C0008B49A261C4F81890C8F818104FF07F41E8
:1026D000D5F814C0C5F814C0A361A761A661A961AB
:1026E0008449A261C4F818A0C8F818104FF07F41BF
:1026F000D5F814C0C5F814C0A361A761A661A9618B
:10270000A2610192794AC4F81890C8F81820D5F847
:1027100014C0C5F814C0A3610093A761A661FEF7B9
:10272000D7FB4FF07F43019A4FF07F41AB610A2006
:10273000704BA261C4F818A0C8F81830009BD5F8F7
:1027400014C0C5F814C0A361A761A661A9616A4954
:10275000A261DFF8B8C1C4F81890C8F818104FF09B
:102760007F41D5F814E0C5F814E0A361A761A66124
:10277000A961A261C4F818A0C8F818C0DFF890C118
:10278000D5F814E0C5F814E0A361A761A661A961BA
:10279000A261C4F81890C8F818C0D5F814C0C5F8DC
:1027A00014C04FF47F0CA361A761A661A9614FF02B
:1027B0007F41A261C4F81890C8F818C0D5F814C0B9
:1027C000C5F814C0A361A761A661A9614749A261C8
:1027D000DFF840C1C4F81890C8F818104FF07F41D6
:1027E000D5F814E0C5F814E0A361A761A661A9615A
:1027F000A261C4F81890C8F818C0D5F814C0C5F87C
:1028000014C0A361A761A661A9613849A261DFF87C
:1028100008C1C4F81890C8F818104FF07F41D5F8D7
:1028200014E0C5F814E0A361A761A661A961A261E3
:10283000C4F81890C8F818C0D5F814C0C5F814C06A
:102840004FF47F0CA361A761A661A9614FF07F419E
:10285000A261C4F81890C8F818C0DFF8C0C0D5F855
:1028600014E0C5F814E0A361A761A661A961A261A3
:10287000C4F818A0C8F818C0D5F814C0C5F814C01A
:10288000A361A761A661A9611B49A261DFF890C09D
:10289000C4F81890C8F818104FF07F41D5F814E02C
:1028A000C5F814E0A361A761A661A961A261C4F89B
:1028B00018A0C8F818C0D5F814E0DFF868C0C5F84B
:1028C00014E0A361A761A661A9610849A261C4F8E7
:1028D0001890C8F818104FF07F41D5F814E0C5F8EB
:1028E00014E021E000140240001002400100FE004C
:1028F0000400FB00E0001F000300FC000018024081
:102900000200FD00E2001D001D00E200B0004F00CB
:102910002000DF00DF0020000F00F000F0000F00BB
:10292000E600190075008A00A361A761A661A9618C
:10293000A261C4F81890C8F818C0D5F814E0DFF800
:1029400044C3C5F814E0A361A761A661A961A261AF
:10295000C4F81890C8F818C0DFF82CC3D5F814E0F4
:10296000C5F814E0A361A761A661A961A261C4F8DA
:1029700018A0C8F818C0D5F814E0DFF810C3C5F8DF
:1029800014E0A361A761A661A961A261C4F81890CF
:10299000C8F818B0D5F814E0C5F814E0A361A76131
:1029A000A661A961A261C4F81890C8F818C0D5F84A
:1029B00014E0DFF8DCC2C5F814E04FF47F0EA36129
:1029C000A761A661A9614FF07F41A261C4F8189088
:1029D000C8F818E0D5F814E0C5F814E0A361A761C1
:1029E000A661A961A261C4F81890C8F818C0D5F80A
:1029F00014E0DFF8A0C2C5F814E0A361A761A661E6
:102A0000A961A261C4F81890C8F818B0D5F814B03C
:102A1000DFF884E2C5F814B04FF47F0BA361A7611F
:102A2000A661A9614FF07F41A261C4F81890C8F86F
:102A300018B0D5F814B0C5F814B04FF47F0BA361EB
:102A4000A761A661A9614FF07F41A261C4F8189007
:102A5000C8F818B0D5F814B0C5F814B04FF47F0B0F
:102A6000A361A761A661A9614FF07F41A261C4F88B
:102A70001890C8F818B0D5F814B0C5F814B0A36110
:102A8000A761A661A961A261C4F818A0C8F818C01E
:102A9000D5F814B0DFF804C2C5F814B0A361A7617B
:102AA000A661A9617349A261C4F81890C8F818100A
:102AB0004FF07F41D5F814B0C5F814B0A361A761F9
:102AC000A661A961A261C4F81890C8F818E0D5F809
:102AD00014B0DFF8CCE1C5F814B04FF47F0BA3615C
:102AE000A761A661A9614FF07F41A261C4F8189067
:102AF000C8F818B0D5F814B0C5F814B0A361A76130
:102B0000A661A961A261C4F81890C8F818C0D5F8E8
:102B100014B0DFF890C1C5F814B0A361A761A66135
:102B2000A961A261C4F81890C8F818E0D5F814E0BB
:102B3000C5F814E04FF47F0EA361A761A661A961F7
:102B40004FF07F41A261C4F81890C8F818E0D5F89A
:102B500014E0C5F814E04FF47F0EA361A761A661ED
:102B6000A9614FF07F41A261C4F81890C8F818E03D
:102B7000D5F814E0C5F814E0A361A761A661A961C6
:102B8000A2610192C4F818A0C8F818C0D5F814C002
:102B9000C5F814C0A3610093A761A661FEF798F978
:102BA000019A35484FF07F434FF07F41DFF8F8C07E
:102BB000AB61A261C4F818A0C8F818006869009B4E
:102BC00068612E48A361A761A661A961A261C4F8EA
:102BD0001890C8F81800D5F814E02948C5F814E092
:102BE000A361A761A661A961A261C4F81890C8F8A1
:102BF00018C0D5F814C0C5F814C0A361A761A661B8
:102C0000A9611C49A261C4F81890C8F818104FF0C7
:102C10007F41D5F814C0C5F814C0A361A761A661AF
:102C2000A961A261C4F81890C8F8180068696861C1
:102C3000A361A761A661A9614FF47F01A261C4F8F5
:102C40001890C8F818104FF07F4168696861A36157
:102C5000A761A661A961A2614FF47F02C4F8189030
:102C6000C8F818206A696A61A361A761A66103B008
:102C7000BDE8F08F0100FE00BE0041000400FB0033
:102C80004000BF00ED001200B4004B001400EB0048
:102C90002C00D300B60049001E00E1000C00F30038
:102CA0000600F9002900D600C0003F0084B008B536
:102CB0000DF1080C8CE80F004C226146034816F019
:102CC00038F8BDE8084004B0704700BF54970120B1
:102CD00070B584B040F203234FF44056814D04ACEC
:102CE00024F8043D00960223224688212846FEF758
:102CF00077FB0028F6D10A204FF44056FEF7E8F89B
:102D0000784D40F20443ADF80C3000960223224681
:102D100088212846FEF764FB0028F6D140F20A33EA
:102D20004FF440566F4DADF80C300096022322460A
:102D300088212846FEF754FB0028F6D144F62003EC
:102D40004FF44056674DADF80C30009602232246F2
:102D500088212846FEF744FB0028F6D102204FF4D4
:102D60004056FEF7B5F85F4D40F22113ADF80C3038
:102D700000960223224688212846FEF731FB0028D0
:102D8000F6D117234FF44056564DADF80C3000964F
:102D90000223224688212846FEF722FB0028F6D18E
:102DA0004AF241334FF440564E4DADF80C30009688
:102DB0000223224688212846FEF712FB0028F6D17E
:102DC0004FF4A5734FF44056464DADF80C300096C5
:102DD0000223224688212846FEF702FB0028F6D16E
:102DE00040F24B134FF440563E4DADF80C30009678
:102DF0000223224688212846FEF7F2FA0028F6D15F
:102E00004B234FF44056374DADF80C30009602235B
:102E1000224688212846FEF7E3FA0028F6D140F240
:102E200056734FF440562F4DADF80C3000960223E8
:102E3000224688212846FEF7D3FA0028F6D14FF41F
:102E4000AC734FF44056274DADF80C30009602237A
:102E5000224688212846FEF7C3FA0028F6D14FF40F
:102E600041534FF440561F4DADF80C3000960223ED
:102E7000224688212846FEF7B3FA0028F6D14FF4FF
:102E800045534FF44056174DADF80C3000960223D1
:102E9000224688212846FEF7A3FA0028F6D14FF6ED
:102EA0000B734FF440560F4DADF80C3000960223D3
:102EB000224688212846FEF793FA0028F6D140F2F0
:102EC00009134FF44056074DADF80C30009602231D
:102ED000224688212846FEF783FA0028F6D104B05E
:102EE00070BD00BF5497012070B54B2286B00023FF
:102EF0004FF44055804C8DF80D208DF8143000951E
:102F000001230DF10D0288212046FEF769FA002801
:102F1000F5D14FF44055784C0095012305AA88213E
:102F20002046FEF72DFB0028F6D19DF8143013F053
:102F300020033CD04FF60B734FF440556E4CADF868
:102F400014300095022305AA88212046FEF748FA8E
:102F50000028F6D140234FF44055674C8DF81000FF
:102F60008DF814300095012305AA88212046FEF72C
:102F700037FA0028F6D104AC4FF440565E4D009667
:102F80000123224688212846FEF7FAFA0028F6D1C6
:102F90009DF91030002BC0F2AB80584C01235849EA
:102FA000584A208008801080184606B070BD4D2217
:102FB00004AC42F21076504DADF814308DF810206C
:102FC00000960123224688212846FEF709FA0028A8
:102FD000F6D142F21075484C0095022305AA8821CB
:102FE0002046FEF7CDFA0028F6D19DF814204F2197
:102FF0009DF8153042F210753F4C43EA02233F4AD8
:10300000ADF814008DF80F101380009501230DF119
:103010000F0288212046FEF7E3F90028F5D142F29D
:103020001075354C0095022305AA88212046FEF72D
:10303000A7FA0028F6D19DF8142051219DF81530EB
:103040004FF440552C4C43EA02232D4A8DF81400CE
:103050008DF80E101380009501230DF10E028821CA
:103060002046FEF7BDF90028F5D14FF44055224C1B
:103070000095012305AA88212046FEF781FA002841
:10308000F6D19DF8141040F24B131E4A4FF44055F0
:10309000194C1180ADF814300095022305AA88213F
:1030A0002046FEF79DF90028F6D14B234FF44055FA
:1030B000114CADF814300095022305AA8821204652
:1030C000FEF78EF90028F6D14FF60B734FF44055FA
:1030D000094CADF814300095022305AA882120463A
:1030E000FEF77EF90028F6D10123184606B070BD20
:1030F0000346184606B070BD5497012018040020FE
:103100001A0400201C04002008B5134B9FED137A0D
:103110001B8807EE903AF8EE677A77EEC77A17EEDB
:10312000900AFDF731FA00220D4BFDF785FA08A34E
:10313000D3E90023FDF7AAFBFDF7B8FC07EE900AE0
:10314000FCEEE77A17EE903A98B208BDAFF3008034
:103150000000000000C4AD4018040020000012432D
:1031600000007E400000000008B5134B9FED137A6D
:103170001B8807EE903AF8EE677A77EEC77A17EE7B
:10318000900AFDF701FA00220D4BFDF755FA08A34E
:10319000D3E90023FDF77AFBFDF788FC07EE900AE0
:1031A000FCEEE77A17EE903A98B208BDAFF30080D4
:1031B0000000000000EAAB401A0400200000874332
:1031C00000007140014B1888704700BF18040020B0
:1031D000014B1888704700BF1A04002070B5002208
:1031E000C0B08521054603F0D1FC044610B120464D
:1031F00040B070BD284602F0EFFD2A4BDB6A013B70
:10320000022B02D8284A52F82340284828260623B1
:103210006A46009040F2764128468DF805408DF8C8
:10322000046003F05BFC04460028E0D1204842F62D
:10323000071406236A46009040F296412846ADF8EE
:10324000044003F04BFC04460028D0D14FF4E06664
:1032500002236A4640F272412846ADF8006003F04E
:103260003DFC04460028C2D16A46022340F2744164
:103270002846ADF8006003F031FC04460028B6D1C2
:1032800001224FF48E61284603F080FC044600289A
:10329000ADD128460122852103F078FC0446204662
:1032A00040B070BD08000020FC95010829C90E40FF
:1032B000036D036F70B50121044600F0B5FB0646AF
:1032C000A0B90125D4F888132046C1F38F3184F8C2
:1032D000785300F0ABFED4F88C1384F88453204666
:1032E000C1F34F2100F0ACFE84F88553304670BD29
:1032F0004FF4FA7103F0C2BB4A1E00232DE9F043DC
:10330000022A8DB090F87C830793CDE9053375D8F8
:103310000D4608A9044600F043FD10B10DB0BDE80C
:10332000F08305AB06AA07A92046676900F0D8FC20
:1033300003460028F2D1B8F1030FADF812000B904C
:10334000CDE909001DD0B8F1080F1AD0012D4FF0BA
:1033500020091AD0022D0BBF252326230626082676
:103360000CBF01220322B8F1040F45D0B8F1080FB9
:103370000FD0B8F1030F0DD06FF007000DB0BDE80E
:10338000F083012D4FF04009E4D1242307260222C7
:10339000E9E71E460BA90AA809AB0DF1120201913B
:1033A00031460090204600F00DFD0028B6D1314690
:1033B0000297099B2046BDF81220DDE90A67CDE996
:1033C000006700F053FD0028A8D184F80290204641
:1033D00084F87C8384F87D530799DDE9053200F099
:1033E00065FC00289AD1059B08A92046236100F0BE
:1033F000C5FC0DB0BDE8F0831646CBE76FF00300C7
:103400008CE700BF474A002370B5914286B08DF823
:1034100006308DF807300493CDE9023303D96FF0FD
:10342000030006B070BD0D460DF1060205210446ED
:1034300000F08CFC0028F4D10DF107020621204693
:1034400000F084FC0028ECD102AB03AA04A92046BA
:1034500000F046FC0028E4D194F87C33042B40D0E3
:10346000082B2AD0032B05D0002DD8D06FF00700F1
:1034700006B070BD9DF80630012B4AD09DF807308C
:10348000012B46D045F260439D42C8D9264B022607
:10349000264A2B449342C2D8039A20460499B3FB90
:1034A000F6F63346029600F001FC0028B9D1029BE3
:1034B000C4F88053236106B070BD05AA48F23601F6
:1034C000204601F01BF9059A002A27DDF52303FBAE
:1034D00002F303F6D1639D42A1D9EB1A134A0226E7
:1034E000D8E79DF80630012B0BD09DF80730012B53
:1034F00007D0B5F57A7F92D9A5F57A730C4A0126E3
:10350000C8E741F288339D4289D9EB1A084A01265F
:10351000C0E746F2E8739D4281D9DEE740F6D16309
:10352000D9E700BF80969800A0ABFFFFE0C810006D
:10353000706408000322202330B589B080F8782316
:103540008370044602F07CFD07AA06AB00252046E6
:103550002621ADF812500795CDE9003205AB0DF1EB
:103560001202CDE9055500F02DFC20B1082384F8A6
:103570007C3309B030BD4FF47A750798059B26213E
:103580000295069D01902046BDF81220009500F09E
:103590006DFC0028EAD1402208234AF22801204687
:1035A000A27084F87C33FFF72DFF0028DED14FF4A2
:1035B0008561204600F05EFB082384F87C3309B067
:1035C00030BD00BF8B01034AA2FB032301EB931123
:1035D00000F050BBD34D6210F0B5857887B004463B
:1035E000402D37D190F87833052B2CD8042B3BD2C3
:1035F000022B39D900230DF1060205218DF8063082
:103600008DF807300493CDE9023300F09FFB70B3CF
:10361000042605AF3946204600F03AFB059B474992
:103620009A01A1FB0212A3EB9213B342C0F0838074
:1036300029460622204600F007FD48B9042384F8F5
:10364000783307B0F0BD623B012B0DD96FF002005B
:1036500007B0F0BDFFF7C2FD94F87833052BF2D820
:10366000042B01D2022BE3D86FF00D00F0E70DF12F
:1036700007020621204600F069FB0028C8D103ABF1
:1036800002AA04A9204600F02BFB0028C0D194F820
:103690007C33042B30D0082B15D0032BB8D19DF8E8
:1036A0000630039A012B39D09DF80730012B35D015
:1036B00042F630231344214905AF5E00A1FB0636D4
:1036C000B6090436A6E705AF48F236012046F526CE
:1036D0003A4601F013F8059B002B02DD06FB03F6CA
:1036E000F536039A154B06EB420606F6DC56A3FBAD
:1036F0000636B60904368DE79DF80620039B012A9D
:103700000FD09DF80720012A0BD003F57A760B4BDA
:1037100005AFA3FB0636B60904367BE743F2F43364
:10372000C8E741F28832054E05AF1A44A6FB0236BF
:10373000B60904366EE76FF0030089E7D34D6210D7
:1037400070B5044600F068FE0546A378402B05D10D
:1037500015B9032384F87833284670BD00228521EB
:10376000204603F013FA06460028F1D1204602F065
:1037700039FB32464FF48E61204603F007FA0028E9
:10378000E6D101228521204603F000FAE0E700BFE0
:103790004FF4FA6103F092B9F0B54FF0FF330C46E5
:1037A000A3B002212360054601AA6360A360E36021
:1037B00023616361A36100F053FE08B123B0F0BD43
:1037C0009DF846609DF8062006F01F06039B2271B7
:1037D000072E23609DF80720BDF94400BDF8407016
:1037E0001DD0B0F5967F7CDB41F69A1310FB03FCED
:1037F0004FEA5C0E544B554903FB07E3B3FBFCF364
:103800001B048B420BD8CB1A1B0C322B5FFA83FCA8
:1038100005D9BCF1640F28BF4FF0640C01E04FF0F4
:10382000320CBDF834307F02BDF83810013A5B022B
:10383000208349020020676184F805C0A076C4E9AE
:103840000231BDF818102182102A4FD8DFE802F0AB
:103850004646464E4E4E4E4E4E4E4E4E094E4E4EE5
:1038600046000D22E276C5F894332846C5F89073D9
:103870000DF1020100F0D4FBA6F10603B3FA83F3C5
:103880005B09002842D1BDF802209103002A4CD0E8
:103890000122C5F8881385F88423A6F1040685F86B
:1038A00086330DF102012846B6FA86F600F0C2FB17
:1038B000760918BBBDF802305A0293B30123C5F84C
:1038C0008C2385F8853385F88763E37EB4F9182067
:1038D0000BB9002A2DDB002023B0F0BD0522E276D3
:1038E000C1E74FF4702E4FF4F01C83E7321FD2B2C1
:1038F0000F2A13D816498A5CE276B4E795F8853327
:10390000012B14BF002606F00106DCE795F884239E
:10391000012A14BF002303F00103BEE7FF22E27671
:10392000A1E785F885231646CDE785F884130B4675
:10393000B3E7084B5B689A4202DB002020833DE737
:103940000E230020E37639E7CDCC300033B3750089
:10395000089601080800002070B500F5AC7182B02F
:10396000044602F011FC0546A0B1B4F85E31B3F58F
:10397000805F31D3B4F8A2304BB994F89E2094F80C
:103980009F3012011B0184F8A22084F8A33028463E
:1039900002B070BD04F14201204602F081FC0546F0
:1039A0000028E2D104F5FD762046314602F0E8FF1A
:1039B00005460028D9D1304604F1F00102F046F95D
:1039C00004F52D72DE21204603F0FCF8B4F85E31D8
:1039D0000546B3F5805F03D24BF6CC43A4F85E31C5
:1039E000002DC7D10DF106020DF1070194F82A024E
:1039F0008DF806508DF8075002F084FB9DF80620E4
:103A00002B469DF8071062F3070394F82B2261F30D
:103A10000F2302F00F01120961F3174362F31F63D2
:103A2000C4F89E30A6E700BF2DE9F04F0D468BB0DD
:103A30006221044602F044F84FF0012301204FF4C4
:103A40007A714FF4FA62236043F2C8232071A160B7
:103A500064204FF42061E2602361002240F2DB73B6
:103A600060612183204684F82120A4F89C3002F074
:103A70001DF815B12046FFF76FFF04F5887004F1BB
:103A8000A40500F09FFF04F5907000F0AFFF04F56F
:103A9000967104F1420004F5B27B00F0B3FF04F527
:103AA000A27000F0D1FF284600F0E2FF94F86031E8
:103AB0000321A26894F8018020460B400792E26837
:103AC00004F5C276803BB4F81890089204F5CE77DE
:103AD00084F8603104F5DA7304F5E47A0593236918
:103AE00009936369069301F0EBFF08F1FF3204F5D7
:103AF0003971059B252A00F2B780DFE802F0454EB8
:103B0000576069727B84B5B5B5B5B5B5B5B58D9659
:103B1000B5B5B5B5B5B5B5B5B5B5B5B5B5B5B5B555
:103B2000B59FAA13CDE901515846CDF800A03A46F9
:103B3000314601F0EDFD0546FDB9B4F85E31A4F85B
:103B40006491A4F81890002B00F09180089A0798CF
:103B5000E2601146099AA0602261CDE9006702F097
:103B6000A1F9054648B9B4F8B432002B7FD0069AC3
:103B700002FB03F36261C4F8AC31204602F060FA44
:103B800028460BB0BDE8F08FCDE900A558463A466F
:103B9000314600F0B7FF0546CEE7CDE900A558460F
:103BA0003A46314601F042F80546C5E7CDE900A5A1
:103BB00058463A46314601F0CDF80546BCE7CDE916
:103BC00000A558463A46314601F058F90546B3E794
:103BD000CDE900A558463A46314601F0E5F90546DB
:103BE000AAE7CDE900A558463A46314601F072FAF7
:103BF0000546A1E7CDE900A558463A46314601F011
:103C000007FB054698E7CDE900A558463A463146F8
:103C100001F09EFB05468FE7CDE900A558463A46E0
:103C2000314601F0AFFE054686E7CDE900A55846CE
:103C30003A46314601F00AFE05467DE7CDE90151DD
:103C40005846CDF800A03A46314601F0C1FC054681
:103C500072E7CDE901515846CDF800A03A46314609
:103C600001F012FC054667E76FF0030585E76FF08A
:103C70000E0582E7B0F8B432024633B101FB03F31C
:103C800000205161C2F8AC3170476FF00E007047F0
:103C9000B0F8B42232B1D0F8AC310020B3FBF2F36B
:103CA0000B6070476FF00E00704700BFF0B51D4607
:103CB000B0F85E3183B004467BB1084604F5CE7798
:103CC00004F5C27611462561C4E902022A46CDE90F
:103CD000006702F0E7F803B0F0BD6FF00E00FAE7FE
:103CE0002DE9F0410446B0F85E0160B30F4694F848
:103CF000A21116461D4602F07BF88046014694F854
:103D00008B0102F0B5F8386094F89C31414694F884
:103D10009D0100EB032080B202F0B4F8306094F80B
:103D2000A031414694F8A10100EB032080B202F0DB
:103D3000A9F828603B680020A3603368E3602B6823
:103D40002361BDE8F0816FF00E00FAE7072912D871
:103D500090F8C53151B1002010B401248C402340AB
:103D60005DF8044B43FA01F11170704703F0010351
:103D70000846137070476FF00300704738B50C4663
:103D8000054600F2C3120978607802F03FF9A07886
:103D900005F5E272E17802F04FF9002038BD00BF6E
:103DA00038B50C4605460A4690F8C301013102F0C9
:103DB000A9F995F8C401E21CA11C02F037F9002012
:103DC00038BD00BF013930B425294AD8DFE801F0F9
:103DD0003737373737252525494949494949494919
:103DE0003725494949494949494949494949494979
:103DF000494949131313B0F8CC500021D0F8D440EE
:103E000015801C60029AD0F8E0301360039AD0F855
:103E1000EC300846136030BC7047B0F8CC5000213D
:103E2000D0F8D44015801C60029AD0F8DC301360C2
:103E3000039AD0F8E8300846136030BC7047B0F8F9
:103E4000CA500021D0F8D04015801C60029AD0F8EA
:103E5000D8301360039AD0F8E4300846136030BCC1
:103E600070476FF0030130BC084670472DE9F04FF2
:103E700085B099460D4604460E9B03214570013DD1
:103E8000C36092460F9B00F5B27B00F5C27700F548
:103E9000CE78036100F5DA76109B436101F010FEE5
:103EA00004F5E47204F1A40104F53970252D00F243
:103EB000B180DFE805F0414A535C656E7780AFAFB3
:103EC000AFAFAFAFAFAF8992AFAFAFAFAFAFAFAF45
:103ED000AFAFAFAFAFAFAFAFAF9BA513029033465D
:103EE0000191584600923946424601F011FC00BB50
:103EF000B4F85E31A4F864A1A4F818A0002B00F077
:103F00008C800E9A4846C4F80890E26011460F9AD9
:103F10002261CDF80480009701F0C4FF48B9B4F8DD
:103F2000B432002B79D0109A02FB03F36261C4F81B
:103F3000AC3105B0BDE8F08F019133460092584690
:103F40004246394600F0DEFDD1E70191334600924A
:103F500058464246394600F069FEC8E701913346AB
:103F6000009258464246394600F0F4FEBFE7019100
:103F70003346009258464246394600F07FFFB6E786
:103F800001913346009258464246394601F00CF8FA
:103F9000ADE701913346009258464246394601F05A
:103FA00099F8A4E7019133460092584642463946B3
:103FB00001F02EF99BE701913346009258464246A4
:103FC000394601F0C5F992E701913346009258460F
:103FD0004246394601F0D6FC89E70191334600920A
:103FE00058464246394601F031FC80E7029033469C
:103FF0000191584600923946424601F0E9FA76E7C7
:10400000029033460191584600923946424601F0EB
:104010003BFA6CE76FF003008BE76FF00E0088E768
:10402000B0F8A63100200B80704700BFA0F8A611A1
:1040300000207047B0F8A83100200B80704700BF07
:10404000A0F8A811002070472DE9F04F044690F821
:10405000CC311646B0F8420103F00F0394F8E62283
:10406000A170C9B01943FF2AA4F87C0184F8CC11CF
:1040700002D1002384F8E632D4F8E422BF4B134087
:10408000B3F5807F0ED0BE4A93423ED0731E052BFF
:1040900000F27881DFE813F0090126014101F00008
:1040A000A8015A0194F8C531202294F8861113F022
:1040B000600F84F8862184F8E71200F0D88000228F
:1040C000D4F8E402042EAD4BA4F8542003EA000314
:1040D000D9D8AB4A93421AD04D2337204FF6F47605
:1040E0000125079317234FF0640B009506930023D7
:1040F000A946AA46A8467B27CDE904307623CDE918
:1041000002630D23052601931AE094F8E712592360
:104110004FF0230E012584F88611079343230021D5
:104120004FF0700BA946AA46A84687270626009599
:104130000195CDE9053E0C2304938223CDE90213BA
:104140007A1E002108A892B2013214F016FE052E44
:104150007AD801220020B8F1000F4AD1BAF1000F3D
:104160000CD05AB1069B08AA202104F5B270134462
:104170001A4602F0E7F8B0FA80F25209B9F1000FDE
:104180000CD05AB1059B08AA162104F5C27013443D
:104190001A4602F045F9B0FA80F25209009B63B169
:1041A0005AB1079B08AA172104F5CE7013441A468A
:1041B00002F07CF9B0FA80F25209B5B1AAB194F8D4
:1041C000CC319B0609D594F82E2042F0010384F8E7
:1041D000C62184F8B43184F8C03108AB122104F54B
:1041E000DA7003EB0B0202F0A5F978B149B0BDE833
:1041F000F08F049B08AA172104F1420013441A46C9
:1042000001F0FCFFB0FA80F25209A7E708AA039B6D
:10421000052104F5E47013441A4602F0CDF9002894
:10422000E4D13B4608AA0199204602F057FC002839
:10423000DCD1204601F058FC0028D7D1204601F0FF
:10424000CFFC49B0BDE8F08F029B08AA0B2104F512
:10425000AC7013441A4601F069FFB0FA80F25209BB
:1042600008EA0208B8F1000F3FF478AFC1E7B4F8EC
:104270005820920012B223E7002336224FF6DD7158
:1042800001250693984607924FF6E97320224FF0D6
:104290004D0B0095A946AA466427CDE904325F2359
:1042A000CDE90213242301934AE74FF6B3734FF687
:1042B000E97E4FF690714FF0000B17270125CDF8DE
:1042C00000B0D946DA46D846CDE9063E4FF6D3735C
:1042D00005934FF69C7304931223CDE902137123C7
:1042E00001932DE700234FF6EA704FF6A7770125DB
:1042F0009946079398464FF6B3734FF6CA724FF03C
:10430000170BCA4600950692CDE904302923CDE962
:1043100002735A232E27019312E700231622012548
:10432000442705939A4698464FF6E07307924FF656
:10433000BD7206934FF6C973A9464FF02D0B049337
:104340003F23CDE90057CDE90223F9E6592343275E
:1043500001254FF0000C079323234FF0700B0095BD
:1043600006930C23A946AA46A8460195CDE9043731
:1043700082238727CDE902C3E2E600BF00FFFF00EA
:1043800000010100042E4FF6A1704FF67E7C4FF61F
:10439000EE7B94BF4FF000084FF00108032E4FF062
:1043A000050794BF4FF0000A4FF0010A022E94BF98
:1043B0004FF000094FF00109012E94BF00230123A3
:1043C000351C00934FF6D77318BF012507934FF69E
:1043D000C173CDE905304FF68A7304930023CDE90C
:1043E00002C383230193ABE64D2337214FF6F470CC
:1043F0000125079317234FF0640B009506930023C4
:10440000A946AA46A8467B27CDE904317623CDE903
:1044100002030D23019393E638B590F8CC3104469E
:1044200000F5E47103F00F0363F07F0380F8CC31F3
:1044300002F0DCF894F8CC310546032103F00F03B9
:10444000204684F8CC3101F03BFB94F8E532012B97
:1044500001D0284638BD204601F002FE284638BD6E
:1044600001292DE9F0430E46C1B00446904600F5FF
:104470003D7700F00C810229E9464FF088010CBF1E
:1044800086232C234A4602F051FB012EB0FA80F31A
:1044900005464FEA53130BD953B104F52B720DF1B6
:1044A0004E01382002F092F9B0FA80F305465B091C
:1044B00006B18BB9CDB194F82C20394694F8300070
:1044C00084F8F422842284F8F502404614F031FC8A
:1044D000284641B0BDE8F08304F522720BA92120E3
:1044E00002F038F90546002DE5D1494604F5E7729A
:1044F0002C2002F09FF805460028DCD194F8D16109
:1045000094F8CF2184F8F802C4F8FC0202F01F02EC
:1045100084F8F662B4F89C50002E00F0C38094F842
:10452000D0311146072B84F8361300F0C680082BD3
:1045300014BFB4F8D231B4F8E231A4F80833B4F8B7
:10454000DC114FF6FF73B4F8D80101FB05F1B4F8A4
:10455000DEE14001B4F8E4C101F58061A4F824E390
:104560009842A4F826C34FEAE12128BF1846012348
:10457000A4F8341384F83833B4F8D611B4F8DA3127
:10458000A4F82813A4F83233D4F88C12D4F890325B
:10459000A4F830030020C4F81C13C4F82033D4F866
:1045A0009412D4F88832C4F80C13C4F81833C4F841
:1045B0003C03002E40F08680092A14BF11461321C7
:1045C000B4F8F0314FF6FF7084F8761303FB05F36F
:1045D000B4F8EC11A4F86603490103F58063B4F85C
:1045E000E65181424FEAE323A4F8485328BF01462D
:1045F000A4F87433B4F8E8310020A4F87013112A39
:10460000B4F8EA11A4F86433B4F8EE31A4F86813EE
:10461000A4F87233D4F89C12D4F8A032C4F85C1316
:10462000C4F86033D4F8A412D4F89832C4F84C1308
:10463000C4F8583384F8F70294F8E51208D8012337
:104640002D4D93402B4203D084F8F72284F8360393
:10465000012907D194F8E632B3B3012B02D102232A
:1046600084F8E63294F82C20394694F830304046ED
:1046700084F8F422842284F8F53214F05AFB2046A0
:1046800001F080FA0546284641B0BDE8F083E946CE
:104690004D2388214A4602F049FAB0FA80F30546D4
:1046A0005B0905E7092A94F8D03114BF114613219C
:1046B000072B84F836137FF43AAFB4F8E031A4F84E
:1046C00008333CE711467BE72046012601F0ECFC6D
:1046D00094F8302094F82C30054684F8F5223946B9
:1046E000404684F8E662842284F8F43214F021FB18
:1046F000002DC4D0ECE600BF0E200200A1F5004161
:10470000382900F25881DFE811F051014C014701CE
:1047100042013D01380133012E01290124011F010D
:104720001A01150110010B0106010101FC00F7003F
:10473000F200ED00E800E300DE00D900D400CF0075
:10474000CA00C500C000BB00B600B100AC00A700A5
:10475000A2009D00980093008E00890084007F00D5
:104760007A00750070006B00660061005C00570005
:1047700052004D00480043003E003900D0F8EC30B4
:10478000002013607047D0F8E030002013607047BD
:1047900090F8E432002013607047D0F8E830002031
:1047A00013607047D0F8E430002013607047D0F8F1
:1047B000DC30002013607047D0F8D8300020136040
:1047C0007047D0F8D430002013607047D0F8D03054
:1047D000002013607047B0F8CC30002013607047A1
:1047E000B0F8CA30002013607047B0F828310020BC
:1047F0001360704790F8223100201360704790F8E2
:10480000213100201360704790F85631002013606A
:10481000704790F8553100201360704790F854317C
:10482000002013607047D0F84C31002013607047AF
:10483000D0F85031002013607047D0F84831002084
:1048400013607047B0F84431002013607047B0F82F
:104850001C31002013607047B0F81A31002013603B
:104860007047B0F81831002013607047D0F8143149
:1048700000201360704790F81131002013607047DA
:1048800090F8103100201360704790F860310020DC
:104890001360704790F8C63000201360704790F89E
:1048A000AF3000201360704790F8AE3000201360E6
:1048B000704790F8AD3000201360704790F8AC302E
:1048C00000201360704790F8AB30002013607047F1
:1048D00090F8AA30002013607047B0F93E310020F4
:1048E0001360704790F8C83000201360704790F84C
:1048F000C73000201360704790F8C5300020136067
:10490000704790F8403100201360704790F8C43031
:1049100000201360704790F8C33000201360704788
:1049200090F8C230002013607047B0F8C03000200B
:1049300013607047B0F8BE30002013607047B0F8C5
:10494000BC30002013607047B0F8BA30002013600C
:104950007047B0F8B830002013607047B0F8B63038
:1049600000201360704790F8B43000201360704747
:10497000B0F89C30002013607047B0F8B2300020CF
:104980001360704790F8B13000201360704790F8C2
:10499000B030002013607047B0F8A83000201360DA
:1049A0007047B0F8A630002013607047B0F8A4300C
:1049B0000020136070476FF000436FF00300136036
:1049C000704700BF10B4034640F608344FF47A70C5
:1049D00005494FF4A0521C805860002099609A81CC
:1049E0005DF8044B704700BF000A0005034648F617
:1049F000A04103480C225960186000201A817047BA
:104A000000120F02F8B5B0F90E20002743894026A6
:104A1000B0F90C50C4688B608D81CA814F820E75CD
:104A2000C1E9003423B91CB90C740020CC82F8BD54
:104A300001200C46087429461846402301F0E8F985
:104A4000E0820020F8BD00BF30B403464FF47A7511
:104A50004FF4206042F60804092143F2C82218806E
:104A600000205D601C829974C3E9022230BC70474B
:104A7000F0B403461E4C1F4842F202115C604FF036
:104A8000C0161D4C02251D4A4FF47A77C3F8124018
:104A9000A4F528049A604FF00A22D96048F2300148
:104AA00018600120C3F81640154C83F8220043F229
:104AB000C82083F823504FF42F75C3F81E404FF4DD
:104AC000FA54C3F81A604FF21866C3F82620002281
:104AD000D9624FF4FA611F63DD639C641A7483F832
:104AE0002420C3E91060C3E90D111046F0BC7047E3
:104AF00041800E0A0380018068016801060E0A06E3
:104B0000081001022DE9F043089D00244FF4206EA7
:104B1000DFF814C13F4F0126C0F80AC04FF0FF0C68
:104B2000C0F80E704FF03267C0F80240C0F806407F
:104B3000A0F800E040F6025E95F81E8080F8128032
:104B400095F81F8080F8138095F820808475C475CF
:104B5000467580F81AC080F81480048395F8108098
:104B600080F81B8095F80C80447780F81C804FF407
:104B70000C488477C47740F6F5100F60EF89A1F8F0
:104B800006E04FF0080E8F806F7B4C720F72224F41
:104B90008E72C1F81270CC60A1F810801F4F2049AE
:104BA00010817820116040F60B115760B5F81A801B
:104BB000B5F81490A2F80C804FF0C708A2F80A903C
:104BC00082F80EE04FF0DB0ED073204614611475AE
:104BD0001E70C3F802409C7195F8212019810221B2
:104BE000DA71EA799A72AA7A1E73DA7295F8244019
:104BF0000C4A5C7395F8234083F810C09C7383F8CB
:104C00000F8083F811E09974079BC3F80120BDE879
:104C1000F08300BF000208000038FF0101CC0B0147
:104C2000001A002000010121000011022DE9F043CB
:104C3000089D00244FF4206EDFF814C1404F012678
:104C4000A0F800E04FF0326EC0F80AC04FF0FF0C41
:104C5000C0F80E7040F60257C0F802404FF0C70986
:104C6000C0F8064095F81E8080F8128095F81F80E5
:104C700080F8138095F820808475C4750483467588
:104C800080F81AC080F8148095F8108080F81B8096
:104C900095F80C80447780F81C804FF40C4884779A
:104CA000C477C1F800E04CF6014EE889CF808880D7
:104CB000F5206F7B4C720F72224F8E72C1F812700A
:104CC000CC60A1F810804FF002081F49D671116026
:104CD000DB21A2F804E04FF0070E10722046147595
:104CE00014611E70C3F802409C7195F821401E7338
:104CF0000526DC7195F82440144F5C7395F8234029
:104D00005974079983F810C040F2075C9C7343F60E
:104D1000080483F80F9083F81280C1F8017082F8BC
:104D200006E05672EF8AAE8B57819681D481A3F844
:104D300008C02A7A9A72EA7ADA72BDE8F08300BF74
:104D4000000208000038FF01001A002000010121C4
:104D5000000011022DE9F043089D00244FF4206E5D
:104D6000DFF814C1404F0126A0F800E04FF0326E8A
:104D7000C0F80AC04FF0FF0CC0F80E7040F60257A2
:104D8000C0F802404FF0C709C0F8064095F81E80F1
:104D900080F8128095F81F8080F8138095F82080A5
:104DA0008475C4750483467580F81AC080F8148031
:104DB00095F8108080F81B8095F80C80447780F877
:104DC0001C804FF40C488477C477C1F800E04CF69F
:104DD000014EE889CF808880F5206F7B4C720F727E
:104DE000224F8E72C1F81270CC60A1F810804FF083
:104DF00002081F49D6711160DB21A2F804E04FF0D0
:104E00000F0E10722046147514611E70C3F8024014
:104E10009C7195F821401E730D26DC7195F8244095
:104E2000144F5C7395F823405974079983F810C0A8
:104E300040F60F5C9C734BF6080483F80F9083F8E0
:104E40001280C1F8017082F806E056726F8A2E8BCC
:104E500057819681D481A3F808C0AA799A726A7A98
:104E6000DA72BDE8F08300BF000208000038FF01DD
:104E7000001A002000010121000011022DE9F04379
:104E8000089D00244FF4206EDFF818C1404F012622
:104E9000C0F80AC04FF0FF0CC0F80E704FF0326738
:104EA000C0F8024040F6F519C0F80640A0F800E04E
:104EB00040F6025E95F81E8080F8128095F81F80FB
:104EC00080F8138095F820808475C475467580F845
:104ED0001AC080F81480048395F8108080F81B8035
:104EE00095F80C80447780F81C8040F60B18847786
:104EF000C4774FF40C400F60EF89A1F806E04FF043
:104F0000080E8F806F7B4C720F72224FCC60C1F8FD
:104F10001270214F088278201760204FA2F8089065
:104F20005760B5F81490A2F80A90B5F81A9082F874
:104F30000EE04FF0C70EA2F80C90D073204614611B
:104F4000147502221E70C3F802409C7195F821402E
:104F5000A3F80880DC713B2495F8078083F80A8069
:104F600095F80A801E7383F80B8095F824605E73B1
:104F700095F823600A4D9E73079E83F810C083F84E
:104F80000FE09A74C6F801508A725C74BDE8F08331
:104F9000000208000038FF01001A002001CC0B01BC
:104FA00000010121000011022DE9F043089D0024B9
:104FB0004FF4206EDFF818C1404F0126C0F80AC038
:104FC0004FF0FF0CC0F80E704FF03267C0F802408F
:104FD00040F6F519C0F80640A0F800E040F6025E81
:104FE00095F81E8080F8128095F81F8080F8138055
:104FF00095F820808475C475467580F81AC080F8CD
:105000001480048395F8108080F81B8095F80C803C
:10501000447780F81C8040F60B188477C4774FF4EF
:105020000C400F60EF89A1F806E04FF0080E8F806A
:105030006F7B4C720F72224FCC60C1F81270214FFF
:10504000088278201760204FA2F808905760B5F8C2
:105050001490A2F80A90B5F81A9082F80EE04FF07A
:10506000C70EA2F80C90D07320461461147502226A
:105070001E70C3F802409C7195F82140A3F8088087
:10508000DC715B2495F8078083F80A8095F80A8024
:105090001E7383F80B8095F824605E7395F8236087
:1050A0000A4D9E73079E83F810C083F80FE09A7430
:1050B000C6F801508A725C74BDE8F08300020800F3
:1050C0000038FF01001A002001CC0B010001012172
:1050D000000011022DE9F043089D00244FF4206EDA
:1050E000DFF820C1464F0126C0F80AC04FF0FF0C80
:1050F000C0F80E704FF03268C0F8024040F6025718
:10510000C0F80640A0F800E095F81EE080F812E034
:1051100095F81FE080F813E095F820E08475C475D9
:105120000483467580F81AC080F814E095F810E002
:1051300080F81BE095F80CE0447780F81CE04FF411
:105140000C4E8477C477C1F800804FF00B08E889D3
:10515000CF80888009206F7B4C720F72079FA1F867
:1051600010E0DFF8A4E08E72C1F812E0DFF89CE0F6
:10517000CC6047F60801C2F800E040F60B1E82F84A
:1051800006805072B5F81480688BA2F80A804FF43C
:1051900031489081C7201475D181DB211E70C3F87E
:1051A00002409C71A3F808E095F807E083F80AE054
:1051B00095F80AE01E7383F80BE04FF0D40E95F8D3
:1051C000249083F80D9095F8239083F810C04FF445
:1051D000C06CD87320465974402183F80E907C70BF
:1051E000BE70FE709C74A2F80480D47182F808E04E
:1051F000C2F810C095F82220DA713971BDE8F08349
:1052000000020800000011020038FF01001A00200F
:105210002DE9F043089D00244FF4206EDFF824C1EF
:10522000474F0126C0F80AC04FF0FF0CC0F80E70BF
:105230004FF03267C0F80240C0F80640A0F800E026
:1052400040F6025E95F81E8080F8128095F81F8067
:1052500080F8138095F820808475C475467580F8B1
:105260001AC080F81480048395F8108080F81B80A1
:1052700095F80C80447780F81C804FF40C488477B4
:10528000C477C7200F60EF89A1F806E08F80DFF8B0
:10529000B8E06F7B4C720F72079FC1F812E0DFF825
:1052A000ACE08E72CC60A1F81080DB2114754FF059
:1052B0000708C2F800E01E70C3F802409C711E731C
:1052C00095F824E083F80DE04FF0050E95F8239053
:1052D000D87343F60800597440F2075183F810C0A0
:1052E00083F80E907C70BE70FE7082F8068048F2E3
:1052F000014882F809E0B5F816E0B5F81CC0A2F83C
:105300000AE04FF0B10EA2F80CC04FF4C06CD0818F
:1053100019814021287A9872204695F80B909C7448
:1053200083F80B90A2F80480D67182F808E0C2F8E6
:1053300010C095F82220DA713971BDE8F08300BF02
:1053400000020800000011020038FF01001A0020CE
:105350002DE9F043089D00244FF4206EDFF824C1AE
:10536000454F0126A0F800E04FF0326EC0F80AC0A9
:105370004FF0FF0CC0F80E7040F60257C0F8024024
:105380004FF00F09C0F8064095F81E8080F8128093
:1053900095F81F8080F8138095F820808475C47577
:1053A0000483467580F81AC080F8148095F8108040
:1053B00080F81B8095F80C80447780F81C804FF4AF
:1053C0000C488477C477C1F800E04FF0C70EE88935
:1053D000CF80888029486F7B4C720F72079FCC600A
:1053E000C1F81200DB208E72A1F810804FF00D087A
:1053F0002349147511601E70C3F802409C711E731E
:1054000095F82410597395F8231083F810C04FF0C5
:10541000B10C99734BF6080183F80FE04FF4174E67
:10542000587440F60F507C70BE70FE7082F8069083
:1054300082F80980B5F812802E8BD18140219681A7
:105440004FF4C066A2F80A801881204695F80680BD
:1054500083F80A8095F809809C7483F80B80A2F881
:1054600004E0D47182F808C0166195F82220DA7140
:105470003971BDE8F08300BF000208000038FF0169
:10548000001A0020000011022DE9F04F0A9D0024AF
:105490004FF4206EDFF834C1494E0127C0F80AC02E
:1054A0004FF03269C0F80E601646C0F8024040F670
:1054B000025CC0F806404FF40C48A0F800E04FF042
:1054C000FF0EAA7F4FF00B0A4FF0C70B8274EA7FE2
:1054D000C27495F820208475C475477580F81AE069
:1054E000027504832A7CC2762A7B44778477C4774A
:1054F0000277C1F800904FF00909EA893148A1F814
:1055000006C08A806A7BDDF824C00A720B9A4C724E
:105510008F72CC60C1F812000846A1F8108047F6DF
:105520000808294986F806A0316040F60B1186F874
:105530000990B5F814A0B5F81A90A6F80AA04FF48F
:10554000314AA6F80C904FF0D4093475A6F80E80B5
:105550001F70C3F802409C711981DB2195F8078008
:1055600083F80A8095F80A801F7383F80B8095F8FA
:10557000248083F80D8095F8238083F810E04FF0A5
:10558000400E83F80E804FF4C06883F80FB0597452
:1055900019468CF801408CF802708CF803709C74EA
:1055A000F471A6F804A086F80890C6F8108095F863
:1055B0002240DC718CF804E0BDE8F04F00F06ABDD9
:1055C000000208000038FF01001A0020000011024C
:1055D0002DE9F04F0A9D00244FF4206EDFF82CC116
:1055E000474E0127C0F80AC04FF03269C0F80E607C
:1055F0001646C0F8024040F6025CC0F806404FF480
:105600000C48A0F800E04FF0FF0EAA7F4FF0C70A49
:105610008274EA7FC27495F820208475C47547753A
:1056200080F81AE0027504832A7CC2762A7B4477CC
:105630008477C4770277C1F800904FF00709EA89B0
:105640003048A1F806C08A806A7BDDF824C00A725F
:105650000B9A4C728F72CC60C1F812000846A1F808
:105660001080294934753160DB211F70C3F8024076
:105670009C711F7395F8248083F80D804FF0050806
:1056800095F823B083F810E043F6080E83F80EB0C7
:1056900083F80FA048F2014A597440F207518CF880
:1056A00001408CF802708CF8037086F8069086F83A
:1056B0000980B5F81690B5F81C80A6F80A904FF04E
:1056C000B109A6F80C804FF4C068A6F80EE04FF0C0
:1056D000400E1981297A9972E97A9C74D972194617
:1056E000F771A6F804A086F80890C6F8108095F81F
:1056F0002240DC718CF804E0BDE8F04F00F0CABC39
:10570000000208000038FF01001A0020000011020A
:105710002DE9F04F0A9D00244FF4206EDFF828C1D8
:10572000464E0127C0F80AC04FF03269C0F80E603B
:105730001646C0F8024040F6025CC0F806404FF43E
:105740000C48A0F800E04FF0FF0EAA7F4FF0C70A08
:105750008274EA7FC27495F820208475C4754775F9
:1057600080F81AE0027504832A7CC2762A7B44778B
:105770008477C4770277C1F800904FF00F09EA8967
:105780002F48A1F806C08A806A7BDDF824C00A721F
:105790000B9A4C72CC60C1F8120008468F72A1F8C7
:1057A0001080284934753160DB21C3F802409C71B8
:1057B0001F701F7395F8248083F80D804FF00D083B
:1057C00095F823B083F810E04BF6080E83F80EB07E
:1057D00083F80FA0597440F60F518CF801408CF8F3
:1057E00002708CF8037086F806904FF4174986F81B
:1057F0000980B5F812802F8BA6F80A804FF0B10807
:10580000B7814027A6F80EE04FF4C06E1981A97940
:105810009972697A9C74D9721946F471A6F8049049
:1058200086F80880C6F810E095F82240DC718CF804
:105830000470BDE8F04F00F02DBC00BF000208006E
:105840000038FF01001A0020000011022DE9F0438A
:10585000089D00244FF4206EDFF824C1454F012637
:10586000C0F80AC04FF0FF0CC0F80E704FF032675E
:10587000C0F80240C0F80640A0F800E040F6025E22
:1058800095F81E8080F8128095F81F8080F81380AC
:1058900095F820808475C475467580F81AC080F824
:1058A0001480048395F8108080F81B8095F80C8094
:1058B000447780F81C804FF00B088477C4774FF44E
:1058C0000C400F60EF89A1F806E04FF0090E8F80C1
:1058D0006F7B4C720F72079F088227488E72C1F847
:1058E00012002648CC6008211060782082F809E078
:1058F00040F60B1E82F80680B5F81490B5F81A80B1
:105900001461A2F80C804FF4314814759173C721CB
:10591000D073DB20A2F80A901E70C3F802409C717D
:10592000A3F808E095F807E083F80AE095F80AE0A4
:105930001E7383F80BE04FF0D40E95F8249083F893
:105940000D9095F82390D97310215874204683F850
:1059500010C083F80E907C70BE70FE709C74D47181
:10596000A2F8048082F808E095F82220DA713971F3
:10597000BDE8F083000208000038FF01001A002093
:10598000000011022DE9F043089D00244FF4206E21
:10599000DFF814C13F4F0126C0F80AC04FF0FF0CDA
:1059A000C0F80E704FF03267C0F80240C0F80640F1
:1059B000A0F800E040F6025E95F81E8080F81280A4
:1059C00095F81F8080F8138095F820808475C47541
:1059D000467580F81AC080F81480048395F810800A
:1059E00080F81B8095F80C80447780F81C804FF479
:1059F0000C488477C47740F6F5100F60EF89A1F862
:105A000006E04FF0080E8F806F7B4C720F72224FB2
:105A10008E72C1F81270CC60A1F810801F4F20491F
:105A200010817820116040F60B115760B5F81A808C
:105A3000B5F81490A2F80C804FF0C708A2F80A90AD
:105A400082F80EE04FF0DB0ED0732046146114751F
:105A50001E70C3F802409C7195F821201981022123
:105A6000DA71EA799A72AA7A1E73DA7295F824408A
:105A70000C4A5C7395F8234083F810C09C7383F83C
:105A80000F8083F811E09974079BC3F80120BDE8EB
:105A9000F08300BF000208000038FF0101CC0B01B9
:105AA000001A0020010101210000110240F68E01C0
:105AB00040F201220D234162028580F82A307047AE
:105AC0000023022280F82C1080F8301080F82D304E
:105AD00080F82F3080F8313080F8333080F82E2075
